:020000040800F2
:1000000068070020E1020008A9030008A103000816
:10001000A50300089B030008C305000800000000BA
:10002000000000000000000000000000290200089D
:100030009F030008000000007D02000899040008EA
:10004000FB020008FB020008FB020008FB0200089C
:10005000FB020008FB020008FB020008FB0200088C
:10006000FB020008FB020008FB020008FB0200087C
:10007000FB020008FB020008FB020008FB0200086C
:10008000FB020008FB020008FB020008FB0200085C
:10009000FB020008FB020008FB020008FB0200084C
:1000A000FB020008FB020008FB020008FB0200083C
:1000B000FB020008FB020008FB020008FB0200082C
:1000C000FB020008FB020008FB020008FB0200081C
:1000D000FB02000835050008FB020008FB020008CF
:1000E000FB020008FB020008FB020008FB020008FC
:1000F000FB020008FB020008FB020008FB020008EC
:10010000FB020008FB020008FB020008FB020008DB
:10011000FB020008FB020008FB020008FB020008CB
:10012000FB020008FB020008FB020008FB020008BB
:10013000FB020008FB020008FB020008FB020008AB
:10014000FB020008FB020008FB020008FB0200089B
:10015000FB020008FB020008FB020008FB0200088B
:10016000FB020008FB020008FB020008FB0200087B
:10017000FB020008FB020008FB020008FB0200086B
:10018000FB020008FB02000800F002F800F03CF857
:100190000AA090E8000C82448344AAF10107DA45E2
:1001A00001D100F031F8AFF2090EBAE80F0013F0F8
:1001B000010F18BFFB1A43F0010318476406000043
:1001C00084060000103A24BF78C878C1FAD85207D4
:1001D00024BF30C830C144BF04680C6070470000C1
:1001E0000023002400250026103A28BF78C1FBD840
:1001F000520728BF30C148BF0B6070471FB500F0E1
:1002000009FB1FBD10B510BD00F08DF81146FFF7BA
:10021000F5FF00F0D8F900F0ABF803B4FFF7F2FFF8
:1002200003BC00F0B3F800002A4B19680868B0E876
:10023000F04F80F30988BFF36F8F4FF0000080F319
:10024000118870470000000006480068006880F3CD
:10025000088862B661B6BFF34F8FBFF36F8F00DFC0
:1002600000BF00BF08ED00E0DFF80C00016841F4BA
:1002700070010160704700BF88ED00E0EFF3098076
:10028000BFF36F8F134B1A681EF0100F08BF20EDDD
:10029000108A20E9F04F106008B44FF0500080F34E
:1002A0001188BFF34F8FBFF36F8F00F0C9F94FF084
:1002B000000080F3118808BC19680868B0E8F04FA6
:1002C0001EF0100F08BFB0EC108A80F30988BFF34E
:1002D0006F8F704700000020EFF30580704700002B
:1002E0000948804709480047FEE7FEE7FEE7FEE7CA
:1002F000FEE7FEE7FEE7FEE7FEE7FEE70448054906
:10030000054A064B70470000CD040008890100082B
:1003100068010020680700206803002068030020AF
:10032000704770477047754600F02CF8AE460500E0
:100330006946534620F00700854618B020B5FFF700
:10034000DDFFBDE820404FF000064FF000074FF002
:1003500000084FF0000B21F00701AC46ACE8C009E3
:10036000ACE8C009ACE8C009ACE8C0098D467047EC
:1003700010B50446AFF300802046BDE81040FFF7FB
:100380004CBF0000004870470401002001491820BC
:10039000ABBEFEE726000200704700BFFEE77047D5
:1003A00000BFFEE700BFFEE7704700000CB500206D
:1003B000019000903448006840F480303249086071
:1003C00000BF3148006800F4003000900198401CE4
:1003D0000190009818B90198B0F5A04FF1D12A48C2
:1003E000006800F4003010B10120009001E000200E
:1003F00000900098012846D123484030006840F022
:1004000080502149403108602048006840F4404055
:100410001E4908601C48083000681B490831086004
:100420000846006840F4004008600846006840F450
:10043000A05008601648091F0860081F006840F0B7
:100440008070091F086000BF0F48006800F000704E
:100450000028F9D040F205700E4908600A480830BB
:10046000006820F003000849083108600846006869
:1004700040F00200086000BF03480830006800F048
:100480000C000828F8D10CBD003802400070004074
:1004900008544007003C024010B500BF502080F3D4
:1004A0001188BFF34F8FBFF36F8F00BF00F00EF9BD
:1004B00018B14FF080500449086000BF002080F35D
:1004C000118800BF10BD000004ED00E010B5154814
:1004D000006840F47000134908601348006840F059
:1004E00001001149086000200F49083108600E48DA
:1004F00000680E4908400C4908600D48091D086055
:10050000081F006820F48020091F086000200649A9
:100510000C310860FFF74AFF4FF000600149803955
:10052000086010BD88ED00E000380240FFFFF6FED5
:100530001030002410B540F22551074800F00EF8A5
:10054000012807D1044800F033F8C4B2214602481C
:1005500000F033F810BD00000010014070B50246F5
:10056000002400230025002040F66A16B14200D185
:1005700000BFC1F3421501F01F03012606FA03F381
:10058000012D02D19689334006E0022D02D1168A50
:10059000334001E0968A33400C12012606FA04F437
:1005A0001688344013B10CB1012000E0002070BD6A
:1005B00001468888C0F308007047C1F308028280B2
:1005C000704700BFFEE700BFFEE700000A49096868
:1005D000096809B9012100E0002121B14FF0FF3184
:1005E000064A116006E004490968C968C868034AF8
:1005F00041681160704700000400002030000020B6
:1006000001460A69D1E901309860D1E901035860D7
:100610005068884201D188685060002008611068E5
:10062000401E10601068704742684A6093688B6093
:10063000936859609160086103685B1C03607047B0
:100640001D48006818B101201C49086032E00020F4
:100650001A4908601A480068B0FA80F0C0F11F011A
:1006600001EB8100174A52F8200008B1012000E098
:10067000002050B900BF502080F31188BFF34F8F86
:10068000BFF36F8F00BF00BFFEE701EB81020D4B90
:1006900003EB820042685268426000F1080243683E
:1006A000934202D14268526842604268D268064B67
:1006B0001A6000BF704700003800002024000020AE
:1006C000180000203C000020000000202DE9F0412F
:1006D0004FF0000844480068002877D1434800687C
:1006E000451C4248056015BB41480068006808B9D0
:1006F000012000E0002050B900BF502080F3118895
:10070000BFF34F8FBFF36F8F00BF00BFFEE73848C6
:100710000768384800683649086036480760364838
:100720000068401C34490860FFF750FF00BF3348A1
:10073000006885423CD300BF2D480068006808B9B6
:10074000012000E0002020B14FF0FF302B4908606D
:100750002DE027480068C068C4686668B54202D2C8
:100760002648066023E0201DFFF74AFFA06A18B163
:1007700004F11800FFF744FF94F82C100120884082
:100780001F49096808431E490860E16A01EB8101BD
:100790001C4A02EB8100211DFFF746FF1A49E06A5F
:1007A0000968C96A8842C7D34FF00108C4E700BF8F
:1007B00015480068C06A00EB8000124951F820001B
:1007C000012801D94FF0010805E0FFE70F48006854
:1007D000401C0E4908600E48006808B14FF001083F
:1007E0004046BDE8F08100003800002014000020E1
:1007F0000400002008000020280000203000002015
:10080000180000203C0000200000002020000020F4
:10081000240000204FF04070E1EE100A7047000005
:1008200040080008000000203C000000C40100084F
:100830007C0800083C0000202C070000E0010008B4
:1008400000000000000000000000000000000000A8
:100850000000000000000000000000000000000098
:100860000000000000000000000000000000000088
:0C0870000000000000000000000000007C
:040000050800018965
:00000001FF
