:020000040800F2
:10000000982D002031020008A908000855060008B4
:10001000A5080008EF040008ED0E0008000000002D
:10002000000000000000000000000000910A00082D
:10003000F30400080000000039090008810B0008E3
:100040004B0200084B0200084B0200084B0200085C
:100050004B0200084B0200084B0200084B0200084C
:100060004B0200084B0200084B0200084B0200083C
:100070004B0200084B0200084B0200084B0200082C
:100080004B0200084B0200084B0200084B0200081C
:100090004B0200084B0200084B0200084B0200080C
:1000A0004B0200084B0200084B0200084B020008FC
:1000B0004B0200084B0200084B0200084B020008EC
:1000C0004B0200084B0200084B0200084B020008DC
:1000D0004B0200085D0C00084B0200084B020008B0
:1000E0004B0200084B0200084B0200084B020008BC
:1000F000ED0B00084B0200084B0200084B02000801
:100100004B0200084B0200084B0200084B0200089B
:100110004B0200084B0200084B0200084B0200088B
:100120004B0200084B0200084B0200084B0200087B
:100130004B0200084B0200084B0200084B0200086B
:100140004B0200084B0200084B0200084B0200085B
:100150004B0200084B0200084B0200084B0200084B
:100160004B0200084B0200084B0200084B0200083B
:100170004B0200084B0200084B0200084B0200082B
:100180004B0200084B02000800F002F800F041F8B2
:100190000AA090E8000C82448344AAF10107DA45E2
:1001A00001D100F036F8AFF2090EBAE80F0013F0F3
:1001B000010F18BFFB1A43F001031847AC190000E8
:1001C000CC190000103A24BF78C878C1FAD8520779
:1001D00024BF30C830C144BF04680C6070470000C1
:1001E0000023002400250026103A28BF78C1FBD840
:1001F000520728BF30C148BF0B607047642900F028
:100200007780002070471FB501F02DFC1FBD10B591
:1002100010BD00F033F91146FFF7F5FF00F07AFE4C
:1002200000F051F903B4FFF7F2FF03BC00F058F9F6
:100230000948804709480047FEE7FEE7FEE7FEE77A
:10024000FEE7FEE7FEE7FEE7FEE7FEE704480549B6
:10025000054A064B70470000850B0008890100081D
:1002600098270020982D0020982900209829002008
:100270000FB4044910B503AA029800F0D1F810BCDD
:100280005DF814FB140000202DE9F0410E460446F1
:10029000002020622046E168884730B3252805D039
:1002A000D4E901219047206A401CF2E7E16820462A
:1002B00000278847050018D0A5F14100192802D869
:1002C00020354FF400673246294620462760FFF765
:1002D00095FF40B1012804D0F61D26F00706083628
:1002E000D8E7361DD6E72846DAE7206ABDE8F08170
:1002F0002DE9F0410646002410687529314616A5FF
:1003000010D0AFF30080002802DA404213A507E0C6
:1003100031688A0701D512A502E0490704D511A565
:10032000012401E0AFF3008000210A2206F1240736
:1003300009E0B0FBF2FCB0FBF2F302FB1C00303032
:1003400078541846491C0028F3D123462A463046E3
:10035000BDE8F04100F00BB8000000002D000000E7
:100360002B000000200000007047704770472DE907
:10037000F0470D4699469246044600F1240801686C
:10038000880604D5E06921F01001216000E0012019
:10039000A84201DD471B00E00027A1697A1902EBA2
:1003A0000900081AA0612078C00602D42046AFF3E5
:1003B0000080002608E0D4E901211AF806009047E1
:1003C000206A401C761C20624E45F4DB2078C00673
:1003D0000AD52046AFF3008006E0D4E901213020A1
:1003E0009047206A401C2062381EA7F10107F4DC08
:1003F00007E0D4E9012118F805009047206A401C65
:100400002062281EA5F10105F3DC2046AFF3008031
:100410002078000602D50220BDE8F0870120FBE726
:10042000074B70B50D467B4400F011F80446284692
:1004300000F020F810B14FF0FF3070BD204670BDC5
:10044000C70A000001694A1C02610878704700B5BC
:100450008FB0CDE901310021059105497944CDE9FD
:10046000031011466846FFF70FFF0FB000BD0000F4
:10047000E5FFFFFF007B00F080007047754600F04D
:100480002BF8AE4605006946534620F00700854626
:1004900018B020B5FFF7DAFEBDE820404FF00006A7
:1004A0004FF000074FF000084FF0000B21F007015C
:1004B000AC46ACE8C009ACE8C009ACE8C009ACE89F
:1004C000C0098D46704710B50446AFF30080204642
:1004D000BDE81040FFF7A6BE00487047382700204F
:1004E00001491820ABBEFEE726000200704700BF9E
:1004F000FEE7704712E000214FF0E022116145F263
:1005000007215161002191610121116100BF4FF06C
:10051000E021096901F480310029F8D0011EA0F121
:100520000100E8D14FF0E0221161704711E0002195
:100530004FF0E022116114215161002191610121EC
:10054000116100BF4FF0E021096901F480310029F9
:10055000F8D0011EA0F10100E9D14FF0E0221161B5
:100560007047F0B50A4600210023002400BF3DE09B
:10057000012505FA01F3156805EA03049C4234D10C
:1005800005684F000326BE40B543056015794E004F
:10059000B5400668354305601579012D02D01579FF
:1005A000022D16D185684F000326BE40B5438560F5
:1005B00055794E00B540866835438560456801260B
:1005C0008E40B5434560456896798E40B6B2354356
:1005D0004560C5684F000326BE40B543C560D57968
:1005E0004E00B540C6683543C560491C1029BFD3CD
:1005F000F0BDF0B5002300244D07ED0E02FA05F31F
:10060000CE1000F1200555F826504E07F70E0F26A4
:10061000BE40B543CF1000F1200646F82750CE105B
:1006200000F1200555F8265045EA0304CE1000F1EC
:10063000200545F82640F0BD0246002013690B4016
:100640000BB1012000E0002070470AB1018300E0F7
:100650004183704700BFFEE71CB50121082000F070
:100660006DF901208DF8040003208DF805000120AC
:100670008DF8060000208DF80700C0200090694624
:100680000648FFF76EFF012280210448FFF7DDFFD7
:10069000012240210148FFF7D8FF1CBD000C024099
:1006A00070B50024002000F0DDF9002519E00022DB
:1006B00040210E48FFF7C9FF0520FFF737FF012251
:1006C00040210A48FFF7C1FF6006040E8021074859
:1006D000FFF7B2FF08B1601CC4B20520FFF726FF88
:1006E0006D1C082DE3DB204670BD0000000C0240AD
:1006F00010B50446002240211248FFF7A6FF012052
:1007000000F0B0F92CB1012280210E48FFF79DFFC7
:1007100004E0002280210B48FFF797FF0520FFF738
:1007200005FF012240210748FFF78FFF0520FFF753
:10073000FDFE002240210348FFF787FF0520FFF759
:10074000F5FE10BD000C024070B50546012000F01A
:1007500089F9002240211748FFF777FF0520FFF7AE
:10076000E5FE072422E00120A040284028B1012214
:1007700080211048FFF769FF04E0002280210D4826
:10078000FFF763FF0520FFF7D1FE01224021094852
:10079000FFF75BFF0520FFF7C9FE00224021054857
:1007A000FFF753FF0520FFF7C1FE641E002CDADAC5
:1007B00070BD0000000C024010B5012000F052F99D
:1007C000012280210D48FFF740FF012240210B4804
:1007D000FFF73BFF0520FFF7A9FE00228021074815
:1007E000FFF733FF0520FFF7A1FE00224021034859
:1007F000FFF72BFF0520FFF799FE10BD000C02400C
:1008000010B5012000F02EF9012280210C48FFF7DD
:100810001CFF012240210A48FFF717FF0520FFF7C0
:1008200085FE012240210648FFF70FFF01228021AB
:100830000348FFF70AFF0520FFF778FE10BD000010
:10084000000C024010B50024002000F00BF901223A
:1008500080211348FFF7F9FE0520FFF767FE01220C
:1008600040210F48FFF7F1FE0520FFF75FFE07E08C
:10087000601CC4B2FA2C03DDFFF7C2FF012010BDDB
:1008800080210748FFF7D8FE0028F1D1002240213F
:100890000348FFF7DAFE0520FFF748FE0020EEE7E9
:1008A000000C024000BFFEE77047000070B5002159
:1008B00000230F22C4781CB3174C246804F4E064AE
:1008C000C4F5E064C4F30721C1F10404E3B20A41B2
:1008D00044789C40E1B28478144021430C07210EF7
:1008E0000E4C05786155047804F01F050124AC40D6
:1008F00005786D11AD0005F1E025C5F8004109E06E
:10090000047804F01F050124AC40054D06787611EB
:1009100045F8264070BD00000CED00E000E400E06A
:1009200080E100E002490143024A11607047000083
:100930000000FA050CED00E07047000029B1064AFE
:1009400012680243044B1A6004E0034A12688243AF
:10095000014B1A60704700003038024029B1064A46
:1009600012680243044B1A6004E0034A126882438F
:10097000014B1A607047000044380240F0B5002176
:1009800000220024022500260223324F3F6807F090
:100990000C0121B1042905D0082937D105E02E4FDB
:1009A000076036E02D4F076033E02A4F3F1F3F6856
:1009B000C7F38056274F3F1F3F6807F03F036EB1D4
:1009C000264FB7FBF3F7DFF88CC0ACF1040CDCF872
:1009D00000C0CCF3881C07FB0CF40CE01E4FB7FBE7
:1009E000F3F7DFF870C0ACF1040CDCF800C0CCF316
:1009F000881C07FB0CF4174F3F1F3F68C7F30147E4
:100A00007F1C7D00B4FBF5F7076002E0124F076022
:100A100000BF00BF0F4F3F6807F0F0010909104FFA
:100A20007A5C0768D74047600A4F3F6807F4E05197
:100A3000890A0B4F7A5C4768D7408760054F3F684B
:100A400007F46041490B064F7A5C4768D740C7609E
:100A5000F0BD0000083802400024F40000127A00C3
:100A6000040000201CB504468DF8044003208DF8D6
:100A7000050001208DF8060000208DF80700802079
:100A8000009069460148FFF76CFD1CBD000C024058
:100A9000704700000CB500200190009034480068B9
:100AA00040F480303249086000BF3148006800F4EB
:100AB000003000900198401C0190009818B90198EE
:100AC000B0F5A04FF1D12A48006800F4003010B111
:100AD0000120009001E0002000900098012846D1FC
:100AE00023484030006840F0805021494031086080
:100AF0002048006840F440401E4908601C48083007
:100B000000681B49083108600846006840F400404E
:100B100008600846006840F4A05008601648091FA5
:100B20000860081F006840F08070091F086000BF5F
:100B30000F48006800F000700028F9D040F20570FE
:100B40000E4908600A480830006820F00300084990
:100B5000083108600846006840F00200086000BFE5
:100B600003480830006800F00C000828F8D10CBDDC
:100B7000003802400070004008544007003C02402A
:100B80007047000010B51548006840F47000134924
:100B900008601348006840F0010011490860002017
:100BA0000F49083108600E4800680E4908400C499A
:100BB00008600D48091D0860081F006820F48020A7
:100BC000091F0860002006490C310860FFF762FF2A
:100BD0004FF0006001498039086010BD88ED00E0E9
:100BE00000380240FFFFF6FE1030002410B502214D
:100BF0000C4800F021F8012808D10A4800F019F843
:100C0000094908600221074800F010F80121054851
:100C100000F012F8012803D10121024800F006F883
:100C200010BD0000001C004000000020CA430282EA
:100C300070470146486B704730B5024600200023DC
:100C40000024158A05EA0103958905EA010413B118
:100C50000CB1012000E0002030BD000010B540F2D2
:100C60002551074800F027F8012807D1044800F073
:100C7000DBF8C4B22146024800F0DBF810BD0000EA
:100C80000010014021B1828942F40052828104E0C7
:100C900082894DF6FF731A40828170470246002018
:100CA000B1F5007F00D100BF13880B400BB10120CC
:100CB00000E00020704770B50246002400230025A4
:100CC000002040F66A16B14200D100BFC1F34215C0
:100CD00001F01F03012606FA03F3012D02D19689C4
:100CE000334006E0022D02D1168A334001E0968A95
:100CF00033400C12012606FA04F41688344013B16E
:100D00000CB1012000E0002070BDF0B503460024C6
:100D100000260025002040F66A17B94200D100BF26
:100D20001846C1F3421401F01F06012707FA06F521
:100D3000012C01D10C3004E0022C01D1103000E074
:100D400014301AB107682F43076002E00768AF4309
:100D50000760F0BD2DE9FF4705460E460024A14679
:100D600000BFA046B08900B100BF2C8A24F44054D3
:100D7000F08804432C82AC8941F20C608443B08833
:100D800031890843718908430443AC81AC8A24F457
:100D90004074B0890443AC826846FFF7EFFD2048F9
:100DA000854202D01F48854202D1DDF80C9001E057
:100DB000DDF80890A88900F4004040B109EBC900B3
:100DC00000EB091031684900B0FBF1F707E009EBCF
:100DD000C90000EB091031688900B0FBF1F764200D
:100DE000B7FBF0F004012009642101FB1078A88909
:100DF00000F4004040B1322000EBC800B0FBF1F03D
:100E000000F00700044308E0322000EB08106421E2
:100E1000B0FBF1F000F00F0004432C81BDE8FF8728
:100E2000001001400014014001468888C0F308000A
:100E30007047C1F3080282807047000000B587B098
:100E400001210846FFF77AFD01211020FFF786FDFA
:100E5000072209212348FFF7CCFB07220A2121485A
:100E6000FFF7C7FB02208DF8040003208DF8050072
:100E700000208DF8060001208DF807004FF4C060B7
:100E8000009069461748FFF76CFB4FF4165003902B
:100E90000020ADF81000ADF81200ADF81400ADF868
:100EA00018000C20ADF8160003A90F48FFF752FFF9
:100EB00025208DF8080000208DF809008DF80A0023
:100EC00001208DF80B0002A8FFF7F0FC012240F290
:100ED00025510548FFF719FF01210348FFF7D2FE0E
:100EE00007B000BD000002400010014000BFFEE757
:100EF00070B504460D46A1B20548FFF79AFF00BF42
:100F000080210348FFF7CAFE0028F9D0204670BDB3
:100F1000001001402DED028B86B04FF00009CA464B
:100F20004FF44070FFF7FEFCFFF788FF00F0F6F982
:100F300095A0FFF79DF99B4D00264FF4FA709A4952
:100F40000860002435E000BF984800680128FBD005
:100F500004A9072000F095F99DF810008007800B88
:100F60009DF8111040EA01209DF8121008439049A5
:100F700041F824009DF813008007800B9DF81410A1
:100F800040EA01209DF8151008438A4941F82400E1
:100F9000874850F82400A84202D2854850F82450CF
:100FA000834850F82400B04202D9814850F82460A8
:100FB000641C7D4800688442C5DB7D4850F824707D
:100FC0007D487E497E4A7F4BCDE900210290784AD8
:100FD00075480168774800F015FAD4E00024714D97
:100FE0000026642420E0724850F82410A4F1640024
:100FF0006F4A42F820106F4850F82410A4F16400A2
:101000006C4A42F820106A4850F82400A84202D2E4
:10101000674850F82450664850F82400B04202D97E
:10102000634850F82460641CB4F5FA7FDBDB4FF4AE
:10103000C87488E0601E5E4951F8207000BF5B48AC
:1010400000680128FBD004A9072000F01AF99DF8D8
:1010500010008007800B9DF8111040EA01209DF8D8
:1010600012100843524941F824009DF813008007EC
:10107000800B9DF8141040EA01209DF815100843DC
:101080004C4941F824004A4850F82400B84224D979
:10109000474850F82400C01B00EE100AB8EE400A82
:1010A000B0EE408A701B00EE100AB8EE400AC8EE9F
:1010B000000AB0EE608A9FED440A28EE000AB0EE06
:1010C000408ABDEEC80A10EE100AA8EB0008B8F17D
:1010D000000F25DA4FF0000822E0354850F82400D0
:1010E000381A00EE100AB8EE400AB0EE408A701BC3
:1010F00000EE100AB8EE400AC8EE000AB0EE608AB0
:101100009FED310A28EE000AB0EE408ABDEEC80A13
:1011100010EE100A8044B8F1FF0F01DD4FF0FF0818
:101120002548007801280AD124480068782806DA82
:10113000224890F80090234890F800A002E04FF079
:101140000009CA46641CB4F5FA7FFFF673AF1A486B
:101150001A491B4A1B4BCDE900210290144A124840
:101160000168144800F04EF9494618A0FFF780F8CE
:10117000514619A0FFF77CF81BA0FFF779F84FF450
:10118000FA70FFF7B7F929E754686973206973208B
:101190006D6178333031303220746573742E0D0AEE
:1011A00000000000FFFF030024000020180241425D
:1011B000681F002098170020340000203000002015
:1011C0002C0000202800002000007F43D0C4C2CAA9
:1011D0003D25640D0A000000D1AAD1F5C5A8B6C806
:1011E0003D25640D0A0000000D0A000070B504469C
:1011F000FFF7E2FAAE20FFF7A7FAFFF723FB00B1F3
:1012000019E02046FFF7A0FAFFF71CFB00B112E03F
:10121000FFF7D2FAAF20FFF797FAFFF713FB00B101
:1012200009E0FFF73DFA05460120FFF761FAFFF7F5
:10123000E7FA284670BDFFF7E3FA0020FAE770B539
:1012400005460C46FFF7B8FAAE20FFF77DFAFFF728
:10125000F9FA00B111E02846FFF776FAFFF7F2FA43
:1012600000B10AE02046FFF76FFAFFF7EBFA00B192
:1012700003E0FFF7C5FA012070BDFFF7C1FA0020B7
:10128000FAE770B505460C460020FFF7AFFF0120D6
:10129000FFF7ACFFFFF790FAAE20FFF755FAFFF724
:1012A000D1FA00B136E02846FFF74EFAFFF7CAFA46
:1012B00000B12FE0FFF780FAAF20FFF745FAFFF704
:1012C000C1FA00B126E0FFF7EBF920700020FFF72C
:1012D0000FFAFFF7E5F960700020FFF709FAFFF752
:1012E000DFF9A0700020FFF703FAFFF7D9F9E070EB
:1012F0000020FFF7FDF9FFF7D3F920710020FFF779
:10130000F7F9FFF7CDF960710120FFF7F1F9FFF769
:1013100077FA00BFFFF774FA70BD00001CB5012119
:101320000420FFF70BFB00208DF8040003208DF84C
:10133000050000208DF8060001208DF807006946A1
:101340001948FFF70EF9FFF787F900F02FF8C021D1
:101350000220FFF774FF00210320FFF770FF002138
:101360000420FFF76CFF00210520FFF768FF002134
:101370000620FFF764FF0F210820FFF760FF03211D
:101380000920FFF75CFF27210A20FFF758FF2421DF
:101390000C20FFF754FF24210D20FFF750FF7F2181
:1013A0001020FFF74CFF1CBD0008024010B5402183
:1013B0000920FFF744FF40210920FFF740FF10BD3F
:1013C0002DE9F84705460C4616461F46DDE90A9A00
:1013D000DDF824803B46324621462846CDF8008081
:1013E00000F090FA4B4632462146284600F0C7FAF4
:1013F0002068504501DA206800E050462060BDE8D2
:10140000F88700002DE9FF4FC6B0884699460020B6
:101410004590002406E0469850F82410459808446A
:101420004590641C4445F6DB4598B0FBF8F04590C8
:10143000002408E0469850F824104598081AFE4900
:1014400041F82400641C4445F4DB002417E0FA480A
:1014500050F824100246601C52F820000144A01CE1
:1014600052F820000144E01C52F820000F183846C2
:10147000F91707EB9171891042F82410641CB4F538
:10148000F87FE4DB00240AE0EB49601C51F82000FF
:1014900051F82410401AE94941F82400641CB4F5BD
:1014A000F77FF1DD00240EE0E44951F824200B46DB
:1014B000611C53F82110501800EBD07149101A46E6
:1014C00042F82410641CB4F5F77FEDDB00251BE027
:1014D000002043902C460BE0D84850F82410601BA5
:1014E000D74A32F81020439801FB12004390641C45
:1014F000681D8442F0DB40F27A41439890FBF1F0A2
:10150000CE4941F825006D1CB5F5F47FE0DD0020E3
:101510004190002410E0C94850F82400002803DD61
:10152000C64850F8240003E0C44850F82400404264
:10153000419908444190641CB4F5F77FEBDD40F21B
:10154000EF11419890FBF1F041900521082241985C
:1015500040F2EF13CDE901210090B84A40A912A84A
:10156000FFF72EFF002011904098022821DB012474
:101570000BE012A850F82410601E12AA52F82000A6
:10158000091A119808441190641C40988442F0DBB9
:101590004098401E119991FBF0F0119041F270714A
:1015A000119891FBF0F15498016001215598017058
:1015B00005E0A44954980160002155980170002469
:1015C00007E012A850F82400801C30A941F824003C
:1015D000641C40988442F4DB00240CE0469850F8E8
:1015E0002400954941F82400489850F82400964971
:1015F00041F82400641C4445F0DB002042900024A4
:101600002DE00120449030A850F824A04FF08070C5
:101610003F900AF10500B0F5F77F1FDC0A3800287B
:101620001CDD054611E0844850F825103F988142A2
:101630000ADA449808B1002044907F4850F8250009
:101640003F9021A840F824506D1C0AF10500854206
:10165000E9DB449810B94298401C4290641C4098C1
:101660008442CEDB4298022808DA7648C9F80000A6
:101670000021539801704AB0BDE8F08F00242EE09D
:101680006D4951F824200B46611C53F821100A447F
:10169000A11C53F821100A44E11C53F821105018E2
:1016A000C11700EB917189101A4642F8241066495F
:1016B00051F824200B46611C53F821100A44A11C48
:1016C00053F821100A44E11C53F821105018C11797
:1016D00000EB917189101A4642F82410641CB4F58D
:1016E000F87FCDDB002004900026002404E00020D9
:1016F00005A941F82400641C052CF8DB00240DE04A
:1017000021A850F82400B0F5FA7F06DD4D48C9F84D
:101710000000002153980170ADE7641C4298844298
:10172000EEDB0024AFE04FF07F400D900C9021A93C
:10173000601C51F8200051F82410401A0A2879DD65
:1017400021A850F8245016E03B4850F825100C987A
:10175000814204DD384850F825000C900A953A483B
:1017600050F825100D98814204DD374850F82500C7
:101770000D900B956D1C21A9601C51F82000A8420A
:10178000E2DC601C51F820002F4951F8200021A90B
:1017900051F824102C4A52F82110401A21A951F86E
:1017A00024200B99891A4843109021A9601C51F8F4
:1017B000200051F82410411A109890FBF1F021A953
:1017C00051F82410204A52F8211008441090114674
:1017D0000B9851F820101098081A109021A9601C3D
:1017E00051F82000144951F8200021A951F8241083
:1017F000114A52F82110401A21A951F824200A99BF
:10180000891A48430F9021A9601C51F8200051F813
:101810002410411A0F9890FBF1F021A951F82410DF
:10182000054A52F8211008440F9011460B9851F8C0
:1018300020100BE026E00000F80700203800002010
:10184000701A000819FCFFFFC80F00200F98081A33
:101850000F900C9910984843C01103900D990F9860
:101860004843C711002F0DDD052E0BDA039848B150
:10187000039800EB8000800090FBF7F005A941F889
:101880002600761C641C4298401EA0423FF74BAFD6
:10189000314605A800F0ACF8304606EBD0714FEAAF
:1018A000610BBBF1010F0CDDABF1010105AA52F890
:1018B000211052F82B20881800EBD07149100491A8
:1018C00003E005A850F82B000490049802280DDDD1
:1018D0000498B8280ADA09490498085C0E900E9812
:1018E000C9F8000001215398017005E00448C9F8C7
:1018F000000000215398017000BFBCE6AE1A00083A
:1019000019FCFFFFF0B505461C46059E0120002787
:101910000F6030E052F82070B7422BDD52F820C043
:10192000471E52F82770BC4524DD012300E05B1CF4
:10193000C718A74207DA52F8207000EB030C52F8E0
:101940002CC06745F3D052F8207000EB030C52F81E
:101950002CC067450CDD0F680F2F09DAD1F800C0E5
:101960000CF101070F6045F82C005F1C384402E0C1
:10197000184400E0401C671E8742CBDCF0BD2DE917
:10198000F04F05460C469246984629465046226836
:1019900000F049F84FF0FF3621E0D4F800B0701C99
:1019A0002060771C18E055F82710701C10B94FF014
:1019B000FF3001E055F82600A1EB0009C14503DC2A
:1019C000C8F10000814506DA55F827102268501C3E
:1019D000206045F822107F1C5F45E4DB761C206800
:1019E000B042DADC2846216800F002F8BDE8F08F4A
:1019F00030B50C46012213E050F82230114605E0C4
:101A00004D1E50F8255040F82150491E002904DD94
:101A10004D1E50F825509D42F2DC40F82130521CFA
:101A2000A242E9DB30BDF0B503461546012217E0BE
:101A300051F82240104605E0461E51F8266041F854
:101A40002060401E002808DD53F82470461E51F81F
:101A5000266053F82660B742EEDC41F82040521C65
:101A6000AA42E5DBF0BD4FF04070E1EE100A70478E
:101A700029001401000214012900000000000000E8
:101A80000000000000000000000000000000000056
:101A90000000000000000000000000000000000046
:101AA00000000000000000000000000000005F5F78
:101AB0005F60606061616161616262626262636312
:101AC00063636363636364646464646464646464DC
:101AD00064646464646464646464636363636363CC
:101AE00063636262626262626161616160606060E0
:101AF0005F5F5F5E5E5E5D5D5D5C5C5C5B5B5A5A1A
:101B00005959595858575756565555545453525277
:101B1000515150504F4E4E4D4C4C4B4A4A494848FB
:101B2000474645454443424241403F3E3E3D3C3BA3
:101B30003A39383837363534333231302F2E2D2C70
:101B40002B2A2928272625242322211F1E1D1C1B62
:101B50001A19171615141311100F0E0C0B0A09077A
:101B60000605030201000000881B00080000002099
:101B700038000000C4010008C01B00083800002025
:101B8000602D0000E00100080000000000000000DF
:101B90000102030401020304060708090000000013
:101BA0000000000000000000000000000000000035
:101BB0000000000000000000000000000000000025
:040000050800018965
:00000001FF
