:020000040800F2
:100000009006002031020008670C00083B0700083A
:10001000630C0008CF040008A512000800000000CF
:100020000000000000000000000000004B0E00086F
:10003000D304000800000000F50C0008390F000888
:100040004B0200084B0200084B0200084B0200085C
:100050004B0200084B020008450500084B0200084F
:100060007D050008B5050008E90500084B020008F9
:100070004B0200084B0200084B0200084B0200082C
:100080004B0200084B0200084B0200084B0200081C
:100090004B0200084B0200084B0200084B0200080C
:1000A0004B0200084B0200084B0200084B020008FC
:1000B0004B0200084B0200084B0200084B020008EC
:1000C0004B0200084B0200084B0200084B020008DC
:1000D0004B020008151000084B0200084B020008F4
:1000E0004B0200084B0200084B0200084B020008BC
:1000F000A50F00084B0200084B0200084B02000845
:100100004B0200084B0200084B0200084B0200089B
:100110004B0200084B0200084B0200084B0200088B
:100120004B0200084B0200084B0200084B0200087B
:100130004B0200084B0200084B0200084B0200086B
:100140004B0200084B0200084B0200084B0200085B
:100150004B0200084B0200084B0200084B0200084B
:100160004B0200084B0200084B0200084B0200083B
:100170004B0200084B0200084B0200084B0200082B
:100180004B0200084B02000800F002F800F041F8B2
:100190000AA090E8000C82448344AAF10107DA45E2
:1001A00001D100F036F8AFF2090EBAE80F0013F0F3
:1001B000010F18BFFB1A43F001031847C0110000DC
:1001C000E0110000103A24BF78C878C1FAD852076D
:1001D00024BF30C830C144BF04680C6070470000C1
:1001E0000023002400250026103A28BF78C1FBD840
:1001F000520728BF30C148BF0B607047782900F014
:100200007780002070471FB501F09EF81FBD10B524
:1002100010BD00F023F91146FFF7F5FF01F056F885
:1002200000F041F903B4FFF7F2FF03BC00F048F916
:100230000948804709480047FEE7FEE7FEE7FEE77A
:10024000FEE7FEE7FEE7FEE7FEE7FEE704480549B6
:10025000054A064B704700003D0F00088901000861
:1002600090000020900600209002002090020020C4
:100270000FB4044910B503AA029800F0C1F810BCED
:100280005DF814FB100000202DE9F0410E460446F5
:10029000002020622046E168884730B3252805D039
:1002A000D4E901219047206A401CF2E7E16820462A
:1002B00000278847050018D0A5F14100192802D869
:1002C00020354FF400673246294620462760FFF765
:1002D00095FF40B1012804D0F61D26F00706083628
:1002E000D8E7361DD6E72846DAE7206ABDE8F08170
:1002F00070B504460D4621461068AFF30080218892
:10030000090502D50F4A7A4402E00E4A7A440E32B9
:10031000002104F1240305E000F00F060009965DBA
:100320005E54491C0028F7D120780023000704D52B
:10033000702D02D009B1022311322046BDE8704071
:1003400000F005B8481000007047704770472DE96D
:10035000F0470D4699469246044600F1240801688C
:10036000880604D5E06921F01001216000E0012039
:10037000A84201DD471B00E00027A1697A1902EBC2
:100380000900081AA0612078C00602D42046AFF305
:100390000080002608E0D4E901211AF80600904701
:1003A000206A401C761C20624E45F4DB2078C00693
:1003B0000AD52046AFF3008006E0D4E901213020C1
:1003C0009047206A401C2062381EA7F10107F4DC28
:1003D00007E0D4E9012118F805009047206A401C85
:1003E0002062281EA5F10105F3DC2046AFF3008052
:1003F0002078000602D50220BDE8F0870120FBE747
:10040000074B70B50D467B4400F011F804462846B2
:1004100000F020F810B14FF0FF3070BD204670BDE5
:100420009F0E000001694A1C02610878704700B500
:100430008FB0CDE901310021059105497944CDE91D
:10044000031011466846FFF71FFF0FB000BD000004
:10045000E5FFFFFF007B00F080007047754600F06D
:100460002BF8AE4605006946534620F00700854646
:1004700018B020B5FFF7EAFEBDE820404FF00006B7
:100480004FF000074FF000084FF0000B21F007017C
:10049000AC46ACE8C009ACE8C009ACE8C009ACE8BF
:1004A000C0098D46704710B50446AFF30080204662
:1004B000BDE81040FFF7B6BE00487047300000208E
:1004C00001491820ABBEFEE726000200704700BFBE
:1004D000FEE7704712E000214FF0E022116145F283
:1004E00007215161002191610121116100BF4FF08D
:1004F000E021096901F480310029F8D0011EA0F142
:100500000100E8D14FF0E0221161704711E00021B5
:100510004FF0E0221161142151610021916101210C
:10052000116100BF4FF0E021096901F48031002919
:10053000F8D0011EA0F10100E9D14FF0E0221161D5
:100540007047000010B5012000F06EF801280FD1AF
:100550000A20FFF7BFFF0121064800F0DCF820B9B0
:100560004FF40071044800F0DFF8012000F056F865
:1005700010BD0000000002400014024010B504202D
:1005800000F052F801280FD10A20FFF7A3FF042141
:10059000064800F0C0F820B94FF48061044800F02C
:1005A000C3F8042000F03AF810BD0000001002402B
:1005B0000014024010B5082000F036F801280FD1D1
:1005C0000A20FFF787FF0821064800F0A4F820B9A9
:1005D0004FF40051034800F0A7F8082000F01EF87F
:1005E00010BD00000010024010B5102000F01CF8F3
:1005F00001280FD10A20FFF76DFF1021064800F0F7
:100600008AF820B94FF48041034800F08DF810209B
:1006100000F004F810BD000000100240014908601D
:1006200070470000143C014001460020034A126854
:100630000A400AB1012000E000207047143C01404C
:10064000F0B50A4600210023002400BF3DE001254B
:1006500005FA01F3156805EA03049C4234D10568E4
:100660004F000326BE40B543056015794E00B540E6
:100670000668354305601579012D02D01579022DE4
:1006800016D185684F000326BE40B5438560557975
:100690004E00B540866835438560456801268E402A
:1006A000B5434560456896798E40B6B2354345609E
:1006B000C5684F000326BE40B543C560D5794E00DE
:1006C000B540C6683543C560491C1029BFD3F0BD8D
:1006D000F0B5002300244D07ED0E02FA05F3CE100D
:1006E00000F1200555F826504E07F70E0F26BE40A4
:1006F000B543CF1000F1200646F82750CE1000F188
:10070000200555F8265045EA0304CE1000F12005D7
:1007100045F82640F0BD0246002013690B400BB19E
:10072000012000E00020704742694A404261704762
:100730000AB1018300E04183704700BFFEE71CB5AA
:1007400004460121E06800F0D7FA0121206900F099
:10075000D3FA01208DF8040003208DF80500012054
:100760008DF8060000208DF807002089009069466A
:100770002068FFF765FF01208DF8040003208DF845
:10078000050001208DF8060000208DF80700608923
:10079000009069466068FFF753FF218901222068B5
:1007A000FFF7C6FF618901226068FFF7C1FF1CBD2A
:1007B0002DE9F04104460E4600270021204600F0B6
:1007C0002FFB07251CE0618900226068FFF7B0FF5E
:1007D0000520FFF79BFE618901226068FFF7A8FFF3
:1007E0000520FFF793FE21892068FFF794FF18B1D9
:1007F0000120A8403843C7B20520FFF787FE6D1ED1
:10080000002DE0DA26B10121204600F008F803E0CF
:100810000021204600F003F83846BDE8F08170B5AD
:1008200004460D46618900226068FFF781FF0121BF
:10083000204600F0F5FA2DB1218901222068FFF74A
:1008400077FF04E0218900222068FFF771FF05206F
:10085000FFF75CFE618901226068FFF769FF0520F0
:10086000FFF754FE618900226068FFF761FF0520F1
:10087000FFF74CFE70BD70B504460E4601212046C0
:1008800000F0CEFA618900226068FFF751FF052071
:10089000FFF73CFE072523E00120A840304028B1A7
:1008A000218901222068FFF743FF04E0218900220B
:1008B0002068FFF73DFF0520FFF728FE6189012230
:1008C0006068FFF735FF0520FFF720FE61890022F1
:1008D0006068FFF72DFF0520FFF718FE681E45B280
:1008E000002DD9DA70BD10B504460121204600F074
:1008F00097FA218901222068FFF71AFF61890122F6
:100900006068FFF715FF0520FFF700FE2189002230
:100910002068FFF70DFF0520FFF7F8FD6189002231
:100920006068FFF705FF0520FFF7F0FD10BD10B56B
:1009300004460121204600F073FA21890022206834
:10094000FFF7F6FE618900226068FFF7F1FE0520DF
:10095000FFF7DCFD218901222068FFF7E9FE6189AC
:1009600001226068FFF7E4FE0520FFF7CFFD10BD10
:1009700070B5044600250021204600F051FA618937
:1009800000226068FFF7D4FE0520FFF7BFFD6189F4
:1009900001226068FFF7CCFE0520FFF7B7FD08E0F5
:1009A000681CC5B2FA2D04DD2046FFF7C0FF012008
:1009B00070BD21892068FFF7AEFE0028F0D1618963
:1009C00000226068FFF7B4FE0520FFF79FFD0020BE
:1009D000EEE7000070B505462846FFF7B0FE80221E
:1009E0006B21284600F010F96420FFF773FD002208
:1009F0006B21284600F008F90321284600F0B9F8D9
:100A00000021284600F0ABF83221284600F0DAF841
:100A100000223821284600F0F7F800226A212846F3
:100A200000F0F2F800222321284600F0EDF88022A1
:100A30003721284600F0E8F87521284600F020F814
:100A4000044621460BA0FFF713FC682C0ED10122AF
:100A50006B21284600F0D8F800226C21284600F0CF
:100A6000D3F83221284600F0ADF801E0012070BD36
:100A70000020FCE75245533D25580D0A00000000B8
:100A800070B504460D462046FFF72DFFD0212046C5
:100A9000FFF7F1FE2046FFF76BFF29462046FFF7E0
:100AA000EAFE2046FFF764FF2046FFF71CFFD12136
:100AB0002046FFF7E0FE2046FFF75AFF01212046BF
:100AC000FFF776FE06462046FFF731FF304670BD41
:100AD0002DE9F04180460D4617461C46069E4046CD
:100AE000FFF701FF002040EA4500C1B24046FFF792
:100AF000C2FE4046FFF73CFF28B14046FFF717FF14
:100B00000120BDE8F08139464046FFF7B4FE40467B
:100B1000FFF72EFF4046FFF7E6FE012000EB450001
:100B2000C1B24046FFF7A7FE4046FFF721FF0FE0A6
:100B3000012C05D101214046FFF73AFE307004E058
:100B400000214046FFF734FE3070601EC4B2761CB0
:100B5000002CEDD14046FFF7EAFE0020D1E770B54A
:100B600005460C46E006020E1C21284600F04CF813
:100B700070BD70B505460C46E006020E1B212846E6
:100B800000F042F870BD70B505460C460026BC2C3E
:100B900001DB012610E0622C01DB02260CE02A2C8E
:100BA00001DB032608E0142C01DB042604E00A2CF8
:100BB00001DB052600E0062632461A21284600F011
:100BC00023F870BD2DE9F04105460C46B4F57A7F57
:100BD00001DD4FF47A74042C00DA04244FF47A70A7
:100BE00090FBF4F0401EC6B232461921284600F0B0
:100BF0000BF80646274604EBD770C0F34F01284692
:100C0000FFF7C1FFBDE8F08170B505460E461446FA
:100C10002846FFF768FED0212846FFF72CFE28461D
:100C2000FFF7A6FE20B12846FFF781FE012070BD28
:100C300031462846FFF71FFE2846FFF799FE21465A
:100C40002846FFF718FE2846FFF792FE20B12846F7
:100C5000FFF76DFE0120EAE72846FFF768FE002057
:100C6000E5E700BFFEE7704770B5002100230F22C3
:100C7000C4781CB3174C246804F4E064C4F5E06441
:100C8000C4F30721C1F10404E3B20A4144789C4053
:100C9000E1B28478144021430C07210E0E4C0578F4
:100CA0006155047804F01F050124AC4005786D11EE
:100CB000AD0005F1E025C5F8004109E0047804F035
:100CC0001F050124AC40054D0678761145F82640F5
:100CD00070BD00000CED00E000E400E080E100E009
:100CE00002490143024A1160704700000000FA0502
:100CF0000CED00E07047000029B1064A126802437B
:100D0000044B1A6004E0034A12688243014B1A60E4
:100D1000704700003038024029B1064A1268024389
:100D2000044B1A6004E0034A12688243014B1A60C4
:100D30007047000044380240F0B500210022002432
:100D4000022500260223324F3F6807F00C0121B133
:100D5000042905D0082937D105E02E4F076036E079
:100D60002D4F076033E02A4F3F1F3F68C7F380567F
:100D7000274F3F1F3F6807F03F036EB1264FB7FB79
:100D8000F3F7DFF88CC0ACF1040CDCF800C0CCF356
:100D9000881C07FB0CF40CE01E4FB7FBF3F7DFF8E1
:100DA00070C0ACF1040CDCF800C0CCF3881C07FB6D
:100DB0000CF4174F3F1F3F68C7F301477F1C7D00AE
:100DC000B4FBF5F7076002E0124F076000BF00BFF9
:100DD0000F4F3F6807F0F0010909104F7A5C076870
:100DE000D74047600A4F3F6807F4E051890A0B4F2C
:100DF0007A5C4768D7408760054F3F6807F46041D9
:100E0000490B064F7A5C4768D740C760F0BD0000C9
:100E1000083802400024F40000127A00000000208C
:100E20007CB504460D468DF8045003208DF805006E
:100E300001208DF8060000208DF807002089009021
:100E400069462068FFF7FCFB7CBD70470CB50020AD
:100E5000019000903448006840F4803032490860C6
:100E600000BF3148006800F4003000900198401C39
:100E70000190009818B90198B0F5A04FF1D12A4817
:100E8000006800F4003010B10120009001E0002063
:100E900000900098012846D123484030006840F077
:100EA00080502149403108602048006840F44040AB
:100EB0001E4908601C48083000681B49083108605A
:100EC0000846006840F4004008600846006840F4A6
:100ED000A05008601648091F0860081F006840F00D
:100EE0008070091F086000BF0F48006800F00070A4
:100EF0000028F9D040F205700E4908600A48083011
:100F0000006820F0030008490831086008460068BE
:100F100040F00200086000BF03480830006800F09D
:100F20000C000828F8D10CBD0038024000700040C9
:100F300008544007003C02407047000010B51548B7
:100F4000006840F47000134908601348006840F0DE
:100F500001001149086000200F49083108600E485F
:100F600000680E4908400C4908600D48091D0860DA
:100F7000081F006820F48020091F0860002006492F
:100F80000C310860FFF762FF4FF0006001498039C3
:100F9000086010BD88ED00E000380240FFFFF6FE5B
:100FA0001030002410B502210C4800F021F801286F
:100FB00008D10A4800F019F80949086002210748D9
:100FC00000F010F80121054800F012F8012803D1C3
:100FD0000121024800F006F810BD0000001C00408E
:100FE00018000020CA43028270470146486B7047D0
:100FF00030B50246002000230024158A05EA0103CB
:10100000958905EA010413B10CB1012000E000202C
:1010100030BD000010B540F22551074800F027F818
:10102000012807D1044800F0DBF8C4B22146024889
:1010300000F0DBF810BD00000010014021B18289F2
:1010400042F40052828104E082894DF6FF731A4017
:101050008281704702460020B1F5007F00D100BFB9
:1010600013880B400BB1012000E00020704770B5E1
:101070000246002400230025002040F66A16B142F3
:1010800000D100BFC1F3421501F01F03012606FA8B
:1010900003F3012D02D19689334006E0022D02D1DF
:1010A000168A334001E0968A33400C12012606FA74
:1010B00004F41688344013B10CB1012000E0002084
:1010C00070BDF0B50346002400260025002040F640
:1010D0006A17B94200D100BF1846C1F3421401F0AB
:1010E0001F06012707FA06F5012C01D10C3004E098
:1010F000022C01D1103000E014301AB107682F43E0
:10110000076002E00768AF430760F0BD2DE9FF47C5
:1011100005460E460024A14600BFA046B08900B196
:1011200000BF2C8A24F44054F08804432C82AC89FC
:1011300041F20C608443B0883189084371890843C7
:101140000443AC81AC8A24F44074B0890443AC827B
:101150006846FFF7F1FD2048854202D01F488542CE
:1011600002D1DDF80C9001E0DDF80890A88900F4C8
:10117000004040B109EBC90000EB0910316849009B
:10118000B0FBF1F707E009EBC90000EB091031688B
:101190008900B0FBF1F76420B7FBF0F004012009EF
:1011A000642101FB1078A88900F4004040B132208E
:1011B00000EBC800B0FBF1F000F00700044308E0CA
:1011C000322000EB08106421B0FBF1F000F00F00BA
:1011D00004432C81BDE8FF8700100140001401404A
:1011E00001468888C0F308007047C1F30802828076
:1011F0007047000000B587B001210846FFF77CFD6D
:1012000001211020FFF788FD072209212348FFF75D
:101210005FFA07220A212148FFF75AFA02208DF8C7
:10122000040003208DF8050000208DF80600012041
:101230008DF807004FF4C060009069461748FFF72B
:10124000FFF94FF4E13003900020ADF81000ADF845
:101250001200ADF81400ADF818000C20ADF816001F
:1012600003A90F48FFF752FF25208DF80800002042
:101270008DF809008DF80A0001208DF80B0002A8F6
:10128000FFF7F2FC012240F225510548FFF719FF54
:1012900001210348FFF7D2FE07B000BD0000024065
:1012A0000010014000BFFEE770B504460D46A1B234
:1012B0000548FFF79AFF00BF80210348FFF7CAFEE9
:1012C0000028F9D0204670BD001001401CB54FF435
:1012D000A060FFF705FDFFF78DFF0F48FFF77AFBD2
:1012E000054615B90DA0FEF7C3FF14E07CB901A8AF
:1012F00002234122682100900748FFF7E9FB9DF88F
:1013000005209DF804100AA0FEF7B2FF00BF4FF4BD
:10131000FA70FFF7DFF8E9E71C0000206D70752018
:10132000696E697420737563636573730D0A0000D9
:1013300042756666657220636F6E74656E743A20DE
:1013400025582025580A00004FF04070E1EE100AA1
:1013500070473031323334353637383941424344BF
:10136000454640305800303132333435363738391D
:101370006162636465664030780000009C13000879
:101380000000002030000000C4010008CC13000859
:101390003000002060060000E001000800000000AE
:1013A000010203040102030406070809000000000B
:1013B0000000000000000000000802400008024099
:0C13C00080000002040000000400000097
:040000050800018965
:00000001FF
