:020000040800F2
:1000000078060020310200082D07000825070008A7
:10001000290700083F060008670D000800000000DF
:100020000000000000000000000000007D09000842
:100030004306000800000000A90700086D0A000838
:100040004B0200084B0200084B0200084B0200085C
:100050004B0200084B0200084B0200084B0200084C
:100060004B0200084B0200084B0200084B0200083C
:100070004B0200084B0200084B0200084B0200082C
:100080004B0200084B0200084B0200084B0200081C
:100090004B0200084B0200084B0200084B0200080C
:1000A0004B0200084B0200084B0200084B020008FC
:1000B0004B0200084B0200084B0200084B020008EC
:1000C0004B0200084B0200084B0200084B020008DC
:1000D0004B020008890B00084B0200084B02000885
:1000E0004B0200084B0200084B0200084B020008BC
:1000F0004B0200084B0200084B0200084B020008AC
:100100004B0200084B0200084B0200084B0200089B
:100110004B0200084B0200084B0200084B0200088B
:100120004B0200084B0200084B0200084B0200087B
:100130004B0200084B0200084B0200084B0200086B
:100140004B0200084B0200084B0200084B0200085B
:100150004B0200084B0200084B0200084B0200084B
:100160004B0200084B0200084B0200084B0200083B
:100170004B0200084B0200084B0200084B0200082B
:100180004B0200084B02000800F002F800F041F8B2
:100190000AA090E8000C82448344AAF10107DA45E2
:1001A00001D100F036F8AFF2090EBAE80F0013F0F3
:1001B000010F18BFFB1A43F0010318472410000079
:1001C00044100000103A24BF78C878C1FAD852070A
:1001D00024BF30C830C144BF04680C6070470000C1
:1001E0000023002400250026103A28BF78C1FBD840
:1001F000520728BF30C148BF0B607047782900F014
:100200006B80002070471FB500F0C2FF1FBD10B506
:1002100010BD00F0DBF91146FFF7F5FF00F0E2FD3D
:1002200000F0F9F903B4FFF7F2FF03BC00F000FAA5
:100230000948804709480047FEE7FEE7FEE7FEE77A
:10024000FEE7FEE7FEE7FEE7FEE7FEE704480549B6
:10025000054A064B70470000710A00088901000832
:100260007800002078060020780200207802002024
:100270000FB4044910B503AA029800F079F910BC34
:100280005DF814FB1000002070B504468569006815
:10029000C10601D5302600E02026C00707D070BD7A
:1002A000D4E9012130469047206A401C20626D1E2F
:1002B000F6D570BD70B5044685690078C00707D1D2
:1002C00070BDD4E9012120209047206A401C2062A3
:1002D0006D1EF6D570BD000070B504460D46214672
:1002E0001068AFF300802188090502D50F4A7A44CF
:1002F00002E00E4A7A440E32002104F1240305E0A4
:1003000000F00F060009965D5E54491C0028F7D1E5
:1003100020780023000704D5702D02D009B10223F4
:1003200011322046BDE8704000F0C8B8B20E00009F
:100330002DE9F05F894604464FF0000ADFF824B14A
:10034000FB44C0F820A02046E168884700287DD003
:10035000252806D0D4E901219047206A401C20625C
:10036000F1E700255F462046E168884720280646D9
:1003700007DB312E05D2B81910F8200C08B105435F
:10038000F1E7A80701D525F00405C4F81CA0002753
:10039000C4F818A02A2E09D0304600F0E6FC38B385
:1003A00004EB8708303EC8F8186019E059F8041BC0
:1003B000204604EB87029161E1688847012F0646D9
:1003C00018D1E069002820DA25F020051DE0D8F8D2
:1003D000180000EB800006EB40003038C8F8180029
:1003E0002046E1688847064600F0BFFC0028EED1B1
:1003F000012F0AD02E2E08D12046E16888477F1CA5
:100400000646022F45F02005C4DBA069002803DA68
:10041000404245F00105A061E80701D025F0100534
:10042000A6B1A6F14100192802D8203645F400658E
:100430004A463146204625604D46FFF7DFFE60B153
:10044000012807D0ED1D25F0070000E007E000F1CE
:10045000080978E705F1040975E730467AE7206A6C
:10046000BDE8F09F880E00004FF0000200B5134673
:1004700094469646203922BFA0E80C50A0E80C50C4
:10048000B1F12001BFF4F7AF090728BFA0E80C5075
:1004900048BF0CC05DF804EB890028BF40F8042B6E
:1004A00008BF704748BF20F8022B11F0804F18BFDB
:1004B00000F8012B70477047704770472DE9F047EF
:1004C0000D4699469246044600F1240801688806C4
:1004D00004D5E06921F01001216000E00120A8426C
:1004E00001DD471B00E00027A1697A1902EB090032
:1004F000081AA0612078C00602D42046FFF7C4FE87
:10050000002608E0D4E901211AF806009047206A85
:10051000401C761C20624E45F4DB2078C0060AD5CC
:100520002046FFF7B1FE06E0D4E9012130209047D4
:10053000206A401C2062381EA7F10107F4DC07E0A6
:10054000D4E9012118F805009047206A401C206278
:10055000281EA5F10105F3DC2046FFF7ABFE20784D
:10056000000602D50220BDE8F0870120FBE700006D
:10057000074B70B50D467B4400F011F80446284641
:1005800000F020F810B14FF0FF3070BD204670BD74
:100590004708000001694A1C02610878704700B5ED
:1005A0008FB0CDE901310021059105497944CDE9AC
:1005B000031011466846FFF7BBFE0FB000BD0000F8
:1005C000E5FFFFFF007B00F080007047754600F0FC
:1005D0002BF8AE4605006946534620F007008546D5
:1005E00018B020B5FFF732FEBDE820404FF00006FE
:1005F0004FF000074FF000084FF0000B21F007010B
:10060000AC46ACE8C009ACE8C009ACE8C009ACE84D
:10061000C0098D46704710B50446AFF300802046F0
:10062000BDE81040FFF7FEBD0048704718000020ED
:1006300001491820ABBEFEE726000200704700BF4C
:10064000FEE77047F0B50A4600210023002400BFF2
:100650003DE0012505FA01F3156805EA03049C4213
:1006600034D105684F000326BE40B54305601579B7
:100670004E00B5400668354305601579012D02D05E
:100680001579022D16D185684F000326BE40B5436B
:10069000856055794E00B54086683543856045686C
:1006A00001268E40B5434560456896798E40B6B2C6
:1006B00035434560C5684F000326BE40B543C5605D
:1006C000D5794E00B540C6683543C560491C102930
:1006D000BFD3F0BDF0B5002300244D07ED0E02FAA4
:1006E00005F3CE1000F1200555F826504E07F70E01
:1006F0000F26BE40B543CF1000F1200646F8275024
:10070000CE1000F1200555F8265045EA0304CE101E
:1007100000F1200545F82640F0BD0AB1018300E054
:100720004183704700BFFEE700BFFEE7704700004F
:1007300070B5002100230F22C4781CB3174C246825
:1007400004F4E064C4F5E064C4F30721C1F10404D7
:10075000E3B20A4144789C40E1B2847814402143DA
:100760000C07210E0E4C05786155047804F01F0526
:100770000124AC4005786D11AD0005F1E025C5F808
:10078000004109E0047804F01F050124AC40054D48
:100790000678761145F8264070BD00000CED00E0AB
:1007A00000E400E080E100E07047000029B1064A63
:1007B00012680243044B1A6004E0034A1268824341
:1007C000014B1A60704700003038024029B1064AD8
:1007D00012680243044B1A6004E0034A1268824321
:1007E000014B1A607047000044380240F0B5002108
:1007F00000220024022500260223324F3F6807F022
:100800000C0121B1042905D0082937D105E02E4F6C
:10081000076036E02D4F076033E02A4F3F1F3F68E7
:10082000C7F38056274F3F1F3F6807F03F036EB165
:10083000264FB7FBF3F7DFF88CC0ACF1040CDCF803
:1008400000C0CCF3881C07FB0CF40CE01E4FB7FB78
:10085000F3F7DFF870C0ACF1040CDCF800C0CCF3A7
:10086000881C07FB0CF4174F3F1F3F68C7F3014775
:100870007F1C7D00B4FBF5F7076002E0124F0760B4
:1008800000BF00BF0F4F3F6807F0F0010909104F8C
:100890007A5C0768D74047600A4F3F6807F4E05129
:1008A000890A0B4F7A5C4768D7408760054F3F68DD
:1008B00007F46041490B064F7A5C4768D740C76030
:1008C000F0BD0000083802400024F40000127A0055
:1008D0000000002010B5044600BF02210A4800F0C5
:1008E00021F80028F9D02146074800F027F800BF7A
:1008F0000121054800F016F80028F9D0024800F060
:100900001AF8C0B210BD00000030014021B10288C9
:1009100042F04002028004E002884FF6BF731A40A2
:10092000028070470246002013890B400BB1012062
:1009300000E0002070470146888970478181704738
:1009400010B50022028802F441520B884C882343E0
:100950008C882343CC8823430C8923434C8923432D
:100960008C892343CC8923431A430280838B4FF223
:10097000FF74234083830B8A038210BD70470000FD
:100980000CB50020019000903448006840F480309D
:100990003249086000BF3148006800F40030009020
:1009A0000198401C0190009818B90198B0F5A04F2B
:1009B000F1D12A48006800F4003010B10120009005
:1009C00001E0002000900098012846D123484030E3
:1009D000006840F08050214940310860204800689C
:1009E00040F440401E4908601C48083000681B491C
:1009F000083108600846006840F400400860084676
:100A0000006840F4A05008601648091F0860081FDD
:100A1000006840F08070091F086000BF0F48006840
:100A200000F000700028F9D040F205700E4908600F
:100A30000A480830006820F00300084908310860BF
:100A40000846006840F00200086000BF0348083014
:100A5000006800F00C000828F8D10CBD00380240F6
:100A60000070004008544007003C024070470000FE
:100A700010B51548006840F4700013490860134829
:100A8000006840F001001149086000200F4908315A
:100A900008600E4800680E4908400C4908600D487F
:100AA000091D0860081F006820F48020091F0860E5
:100AB000002006490C310860FFF762FF4FF000602C
:100AC00001498039086010BD88ED00E0003802401F
:100AD000FFFFF6FE1030002410B588B00446012157
:100AE0000846FFF763FE01211020FFF76FFE072283
:100AF00009212348FFF7EEFD07220A212048FFF7CE
:100B0000E9FD02208DF8080003208DF8090000207F
:100B10008DF80A0001208DF80B004FF4C0600190A1
:100B200001A91748FFF78EFD04940020ADF81400CA
:100B3000ADF81600ADF81800ADF81C000C20ADF8AB
:100B40001A0004A90F4800F09BF825208DF80C002E
:100B500000208DF80D008DF80E0001208DF80F009B
:100B600003A8FFF7E5FD012240F22551054800F0FA
:100B700062F80121034800F01BF808B010BD000026
:100B8000000002400010014010B540F22551074816
:100B900000F027F8012807D1044800F0DBF8C4B2C0
:100BA0002146024800F0DBF810BD000000100140B3
:100BB00021B1828942F40052828104E082894DF69B
:100BC000FF731A408281704702460020B1F5007F12
:100BD00000D100BF13880B400BB1012000E00020C2
:100BE000704770B50246002400230025002040F61F
:100BF0006A16B14200D100BFC1F3421501F01F03D4
:100C0000012606FA03F3012D02D19689334006E04E
:100C1000022D02D1168A334001E0968A33400C122D
:100C2000012606FA04F41688344013B10CB10120F1
:100C300000E0002070BDF0B503460024002600252A
:100C4000002040F66A17B94200D100BF1846C1F330
:100C5000421401F01F06012707FA06F5012C01D105
:100C60000C3004E0022C01D1103000E014301AB135
:100C700007682F43076002E00768AF430760F0BDD5
:100C80002DE9FF4705460E460024A14600BFA046B9
:100C9000B08900B100BF2C8A24F44054F08804438A
:100CA0002C82AC8941F20C608443B08831890843BE
:100CB000718908430443AC81AC8A24F44074B08940
:100CC0000443AC826846FFF791FD2048854202D07C
:100CD0001F48854202D1DDF80C9001E0DDF8089054
:100CE000A88900F4004040B109EBC90000EB0910ED
:100CF00031684900B0FBF1F707E009EBC90000EBF0
:100D0000091031688900B0FBF1F76420B7FBF0F0FF
:100D100004012009642101FB1078A88900F4004037
:100D200040B1322000EBC800B0FBF1F000F007004A
:100D3000044308E0322000EB08106421B0FBF1F01E
:100D400000F00F0004432C81BDE8FF870010014034
:100D50000014014001468888C0F308007047C1F3C1
:100D600008028280704700BFFEE730380A2801D2AF
:100D7000012070470020704700214FF0E0221161F0
:100D8000C0EBC00101EB410101EB4102C2EBC1111B
:100D90000122C2EBC1014FF0E022516100219161BB
:100DA0000121116100BF4FF0E021096901F4803198
:100DB0000029F8D000214FF0E022116170470000B7
:100DC00070B504460D46A1B20548FFF7C8FF00BF45
:100DD00080210348FFF7F8FE0028F9D0204670BDB7
:100DE00000100140A2B0402110A8FFF73DFB3821C0
:100DF00002A8FFF739FB244903C9CDE900014FF4EC
:100E00001650FFF769FE00F087F820A921A800F02E
:100E100019F99DF880209DF884101CA0FFF728FA8E
:100E2000402210A9002000F0DFF81DA0FFF720FAF3
:100E3000002405E010A8015D1CA0FFF719FA641C4E
:100E4000402CF7D31BA0FFF713FA002000F034F872
:100E50006946002000F034F9402210A9002000F07B
:100E6000C3F80FA0FFF704FA002405E010A8015D05
:100E70000EA0FFF7FDF9641C402CF7D30DA0FFF77F
:100E8000F7F900BFFEE700009C1100086D69643DA2
:100E9000253032582C6469643D253032580D0A00E3
:100EA0007265616420646174613A000025303258D3
:100EB000200000000D0A000070B5044600F056F94D
:100EC00000224FF480411348FFF727FC2020FFF752
:100ED00001FDC4F30740FFF7FDFCC4F30720FFF753
:100EE000F9FCE0B2FFF7F6FC012291030948FFF795
:100EF00014FC09E000F0CCF8054605F0010000B94B
:100F000003E00120FFF738FFF4E700BF00F01CF911
:100F100070BD00000004024000B587B0012102202E
:100F2000FFF744FC01210803FFF750FC02208DF875
:100F3000040003208DF8050000208DF806008DF8D0
:100F400007003820009069462548FFF77BFB052203
:100F500003212348FFF7BEFB052204212048FFF7A9
:100F6000B9FB052211461E48FFF7B4FB01208DF89E
:100F7000040003208DF8050000208DF806008DF890
:100F800007004FF48040009069461548FFF75AFB70
:100F9000012291031248FFF7C0FB0020ADF80800C2
:100FA0004FF48270ADF80A000020ADF80C0002206A
:100FB000ADF80E000120ADF810004002ADF81200AF
:100FC0000820ADF814000020ADF8160002A905486D
:100FD000FFF7B6FC01210348FFF798FC07B000BDFE
:100FE00000040240003001402DE9F04104460D4666
:100FF00016462F4600224FF480411148FFF78DFB23
:101000000320FFF767FCC4F30740FFF763FCC4F35A
:101010000720FFF75FFCE0B2FFF75CFC04E0102064
:10102000FFF758FC38707F1C301EA6F10106F6D180
:10103000012291030248FFF770FBBDE8F081000038
:101040000004024070B504460D4600224FF4804172
:101050000E48FFF762FB9020FFF73CFC0020FFF7F3
:1010600039FC0020FFF736FC0020FFF733FC10208E
:10107000FFF730FC20706620FFF72CFC287001225F
:1010800091030248FFF749FB70BD000000040240D5
:1010900010B5002400224FF480410848FFF73DFBC3
:1010A0000520FFF717FCFF20FFF714FC0446012280
:1010B00091030248FFF731FB204610BD00040240B7
:1010C00070B504460E4600224FF480411D48FFF7DC
:1010D00024FB0620FFF7FEFB012291031948FFF7CE
:1010E0001CFB00224FF480411648FFF716FB02203C
:1010F000FFF7F0FBC4F30740FFF7ECFBC4F3072056
:10110000FFF7E8FBE0B2FFF7E5FB002504E0705DC8
:10111000FFF7E0FB681CC5B2402DF8DB012291030C
:101120000848FFF7FAFA00224FF480410548FFF71C
:10113000F4FA0420FFF7CEFB012291030148FFF7E8
:10114000ECFA70BD0004024010B500224FF480415B
:101150000548FFF7E2FA0420FFF7BCFB01229103E8
:101160000148FFF7DAFA10BD0004024010B5002272
:101170004FF480410548FFF7D0FA0620FFF7AAFB9D
:10118000012291030148FFF7C8FA10BD0004024094
:101190004FF04070E1EE100A7047000048656C6C3B
:1011A0006F00000030313233343536373839414240
:1011B00043444546403058003031323334353637B9
:1011C0003839616263646566403078000400000865
:1011D00000000000000000020001000010000000FC
:1011E000001200080000002018000000C4010008E0
:1011F000181200081800002060060000E001000836
:1012000000000000010203040102030406070809AC
:081210000000000000000000D6
:040000050800018965
:00000001FF
