:020000040800F2
:1000000068060020290200087D050008E5040008B4
:1000100079050008E3020008150700080000000049
:10002000000000000000000000000000B90500080A
:10003000E70200080000000095050008A906000876
:10004000430200084302000843020008430200087C
:100050004302000843020008350300084302000879
:100060006D030008A5030008D90300084302000837
:10007000430200084302000843020008430200084C
:10008000430200084302000843020008430200083C
:10009000430200084302000843020008430200082C
:1000A000430200084302000843020008430200081C
:1000B000430200084302000843020008430200080C
:1000C00043020008430200084302000843020008FC
:1000D00043020008430200084302000843020008EC
:1000E00043020008430200084302000843020008DC
:1000F00043020008430200084302000843020008CC
:1001000043020008430200084302000843020008BB
:1001100043020008430200084302000843020008AB
:10012000430200084302000843020008430200089B
:10013000430200084302000843020008430200088B
:10014000430200084302000843020008430200087B
:10015000430200084302000843020008430200086B
:10016000430200084302000843020008430200085B
:10017000430200084302000843020008430200084B
:10018000430200084302000800F002F800F03CF8C7
:100190000AA090E8000C82448344AAF10107DA45E2
:1001A00001D100F031F8AFF2090EBAE80F0013F0F8
:1001B000010F18BFFB1A43F001031847A405000004
:1001C000C4050000103A24BF78C878C1FAD8520795
:1001D00024BF30C830C144BF04680C6070470000C1
:1001E0000023002400250026103A28BF78C1FBD840
:1001F000520728BF30C148BF0B6070471FB500F0E1
:10020000A9FA1FBD10B510BD00F031F81146FFF777
:10021000F5FF00F081FA00F04FF803B4FFF7F2FFAA
:1002200003BC00F057F80000094880470948004720
:10023000FEE7FEE7FEE7FEE7FEE7FEE7FEE7FEE796
:10024000FEE7FEE704480549054A064B70470000F3
:10025000AD0600088901000868000020680600203B
:10026000680200206802002070477047704775469A
:1002700000F02CF8AE4605006946534620F0070012
:10028000854618B020B5FFF7DDFFBDE820404FF0F0
:1002900000064FF000074FF000084FF0000B21F070
:1002A0000701AC46ACE8C009ACE8C009ACE8C0093D
:1002B000ACE8C0098D46704710B50446AFF3008026
:1002C0002046BDE81040FFF7A8BF00000048704777
:1002D0000800002001491820ABBEFEE726000200FE
:1002E000704700BFFEE770470021114A1268424381
:1002F000521E4FF0E0235A6100229A611A46126999
:1003000042F001021A6100BF4FF0E022116901F0D2
:1003100001021AB101F48032002AF5D04FF0E02238
:10032000126922F001024FF0E0231A6170470000C9
:100330000400002010B5012000F06EF801280FD154
:100340000A20FFF7D1FF0121064800F0B9F820B9D3
:100350004FF40071044800F0BCF8012000F056F89A
:1003600010BD0000000002400014024010B504203F
:1003700000F052F801280FD10A20FFF7B5FF042141
:10038000064800F09DF820B94FF48061044800F061
:10039000A0F8042000F03AF810BD00000010024060
:1003A0000014024010B5082000F036F801280FD1E3
:1003B0000A20FFF799FF0821064800F081F820B9CC
:1003C0004FF40051034800F084F8082000F01EF8B4
:1003D00010BD00000010024010B5102000F01CF805
:1003E00001280FD10A20FFF77FFF1021064800F0F7
:1003F00067F820B94FF48041034800F06AF81020F4
:1004000000F004F810BD000000100240014908602F
:1004100070470000143C014001460020034A126866
:100420000A400AB1012000E000207047143C01405E
:10043000F0B50A4600210023002400BF3DE001255D
:1004400005FA01F3156805EA03049C4234D10568F6
:100450004F000326BE40B543056015794E00B540F8
:100460000668354305601579012D02D01579022DF6
:1004700016D185684F000326BE40B5438560557987
:100480004E00B540866835438560456801268E403C
:10049000B5434560456896798E40B6B235434560B0
:1004A000C5684F000326BE40B543C560D5794E00F0
:1004B000B540C6683543C560491C1029BFD3F0BD9F
:1004C0000246002013690B400BB1012000E0002020
:1004D000704742694A40426170470AB1018300E0B7
:1004E0004183704700BFFEE71CB50121202000F0CA
:1004F00053F80121102000F04FF84FF4C060009035
:1005000001208DF8040000208DF8060003208DF8EE
:10051000050001208DF8070069461548FFF788FFA0
:100520004FF4C040009001208DF8040000208DF8A9
:10053000060003208DF8050001208DF807006946AC
:100540000C48FFF775FF012251020948FFF7C5FF6C
:10055000012291020648FFF7C0FF0122510305481E
:10056000FFF7BBFF012291030248FFF7B6FF1CBD56
:10057000001402400010024000BFFEE77047000078
:1005800002490143024A1160704700000000FA0569
:100590000CED00E07047000029B1064A12680243E2
:1005A000044B1A6004E0034A12688243014B1A604C
:1005B0007047000030380240704700000CB5002042
:1005C000019000903448006840F48030324908605F
:1005D00000BF3148006800F4003000900198401CD2
:1005E0000190009818B90198B0F5A04FF1D12A48B0
:1005F000006800F4003010B10120009001E00020FC
:1006000000900098012846D123484030006840F00F
:1006100080502149403108602048006840F4404043
:100620001E4908601C48083000681B4908310860F2
:100630000846006840F4004008600846006840F43E
:10064000A05008601648091F0860081F006840F0A5
:100650008070091F086000BF0F48006800F000703C
:100660000028F9D040F205700E4908600A480830A9
:10067000006820F003000849083108600846006857
:1006800040F00200086000BF03480830006800F036
:100690000C000828F8D10CBD003802400070004062
:1006A00008544007003C02407047000010B5154850
:1006B000006840F47000134908601348006840F077
:1006C00001001149086000200F49083108600E48F8
:1006D00000680E4908400C4908600D48091D086073
:1006E000081F006820F48020091F086000200649C8
:1006F0000C310860FFF762FF4FF00060014980395C
:10070000086010BD88ED00E000380240FFFFF6FEF3
:100710001030002400BFFEE74FF4A060FFF730FF69
:10072000FFF7E2FE12E000224FF400710848FFF7E5
:10073000D4FE4FF47A70FFF7D7FD0122510204482E
:10074000FFF7CBFE4FF47A70FFF7CEFDEBE700002A
:10075000001402404FF04070E1EE100A70470000B4
:10076000800700080000002008000000C401000805
:10077000880700080800002060060000E00100086B
:08078000150000000852000002
:040000050800018965
:00000001FF
