:020000040800F2
:1000000068060020290200083F04000837040008A1
:100010003B040008E3020008870600080000000017
:100020000000000000000000000000004304000881
:10003000E702000800000000410400083105000844
:10004000430200084302000843020008430200087C
:10005000430200084302000821030008430200088D
:100060005903000891030008C50300084302000873
:10007000430200084302000843020008430200084C
:10008000430200084302000843020008430200083C
:10009000430200084302000843020008430200082C
:1000A000430200084302000843020008430200081C
:1000B000430200084302000843020008430200080C
:1000C00043020008430200084302000843020008FC
:1000D00043020008F9050008430200084302000833
:1000E00043020008430200084302000843020008DC
:1000F000430200089D05000843020008430200086F
:1001000043020008430200084302000843020008BB
:1001100043020008430200084302000843020008AB
:10012000430200084302000843020008430200089B
:10013000430200084302000843020008430200088B
:10014000430200084302000843020008430200087B
:10015000430200084302000843020008430200086B
:10016000430200084302000843020008430200085B
:10017000430200084302000843020008430200084B
:10018000430200084302000800F002F800F03CF8C7
:100190000AA090E8000C82448344AAF10107DA45E2
:1001A00001D100F031F8AFF2090EBAE80F0013F0F8
:1001B000010F18BFFB1A43F001031847DC040000CD
:1001C000FC040000103A24BF78C878C1FAD852075E
:1001D00024BF30C830C144BF04680C6070470000C1
:1001E0000023002400250026103A28BF78C1FBD840
:1001F000520728BF30C148BF0B6070471FB500F0E1
:1002000046FA1FBD10B510BD00F031F81146FFF7DA
:10021000F5FF00F03AFA00F04FF803B4FFF7F2FFF1
:1002200003BC00F057F80000094880470948004720
:10023000FEE7FEE7FEE7FEE7FEE7FEE7FEE7FEE796
:10024000FEE7FEE704480549054A064B70470000F3
:1002500035050008890100086800002068060020B4
:10026000680200206802002070477047704775469A
:1002700000F02CF8AE4605006946534620F0070012
:10028000854618B020B5FFF7DDFFBDE820404FF0F0
:1002900000064FF000074FF000084FF0000B21F070
:1002A0000701AC46ACE8C009ACE8C009ACE8C0093D
:1002B000ACE8C0098D46704710B50446AFF3008026
:1002C0002046BDE81040FFF7A8BF00000048704777
:1002D0000400002001491820ABBEFEE72600020002
:1002E000704700BFFEE7704712E000214FF0E022A8
:1002F000116145F2072151610021916101211161D4
:1003000000BF4FF0E021096901F480310029F8D0E5
:10031000011EA0F10100E8D14FF0E0221161704709
:1003200010B5012000F06EF801280FD10A20FFF768
:10033000DBFF0121064800F071F820B94FF400718D
:10034000044800F074F8012000F056F810BD0000D9
:10035000000002400014024010B5042000F052F8E2
:1003600001280FD10A20FFF7BFFF0421064800F043
:1003700055F820B94FF48061044800F058F8042083
:1003800000F03AF810BD00000010024000140240D6
:1003900010B5082000F036F801280FD10A20FFF729
:1003A000A3FF0821064800F039F820B94FF40051A6
:1003B000034800F03CF8082000F01EF810BD0000D3
:1003C0000010024010B5102000F01CF801280FD1D9
:1003D0000A20FFF789FF1021064800F01FF820B916
:1003E0004FF48041034800F022F8102000F004F898
:1003F00010BD000000100240014908607047000075
:10040000143C014001460020034A12680A400AB128
:10041000012000E000207047143C0140024600200B
:1004200013690B400BB1012000E0002070474269C6
:100430004A404261704700BFFEE700BFFEE77047D9
:10044000704770470CB50020019000903448006858
:1004500040F480303249086000BF3148006800F441
:10046000003000900198401C0190009818B9019844
:10047000B0F5A04FF1D12A48006800F4003010B167
:100480000120009001E0002000900098012846D152
:1004900023484030006840F08050214940310860D6
:1004A0002048006840F440401E4908601C4808305D
:1004B00000681B49083108600846006840F40040A5
:1004C00008600846006840F4A05008601648091FFC
:1004D0000860081F006840F08070091F086000BFB6
:1004E0000F48006800F000700028F9D040F2057055
:1004F0000E4908600A480830006820F003000849E7
:10050000083108600846006840F00200086000BF3B
:1005100003480830006800F00C000828F8D10CBD32
:10052000003802400070004008544007003C024080
:100530007047000010B51548006840F4700013497A
:1005400008601348006840F001001149086000206D
:100550000F49083108600E4800680E4908400C49F0
:1005600008600D48091D0860081F006820F48020FD
:10057000091F0860002006490C310860FFF762FF80
:100580004FF0006001498039086010BD88ED00E03F
:1005900000380240FFFFF6FE1030002410B50221A3
:1005A000074800F017F8012804D1054800F00FF8BB
:1005B000044908600221024800F006F810BD00005E
:1005C000001C004000000020CA4302827047014620
:1005D000486B704730B50246002000230024158A7E
:1005E00005EA0103958905EA010413B10CB1012064
:1005F00000E0002030BD000010B540F22551074852
:1006000000F00EF8012807D1044800F033F8C4B216
:100610002146024800F033F810BD000000100140F0
:1006200070B50246002400230025002040F66A161B
:10063000B14200D100BFC1F3421501F01F030126F2
:1006400006FA03F3012D02D19689334006E0022D0C
:1006500002D1168A334001E0968A33400C120126FB
:1006600006FA04F41688344013B10CB1012000E0FE
:10067000002070BD01468888C0F308007047C1F3B0
:1006800008028280704700BFFEE700BFFEE74FF020
:100690004070E1EE100A7047B80600080000002024
:1006A00004000000C4010008BC060008040000208B
:0C06B00064060000E001000800000000EB
:040000050800018965
:00000001FF
