:020000040800F2
:10000000E80B002031020008C9060008C1060008FC
:10001000C506000825050008630C00080000000064
:10002000000000000000000000000000710800084F
:10003000E905000800000000450700086109000804
:100040004B0200084B0200084B0200084B0200085C
:100050004B0200084B0200084B0200084B0200084C
:100060004B0200084B0200084B0200084B0200083C
:100070004B0200084B0200084B0200084B0200082C
:100080004B0200084B0200084B0200084B0200081C
:100090004B0200084B0200084B0200084B0200080C
:1000A0004B0200084B0200084B0200084B020008FC
:1000B0004B020008CD0900084B0200084B02000863
:1000C0004B0200084B0200084B0200084B020008DC
:1000D0004B0200085D0A00084B0200084B020008B2
:1000E0004B0200084B0200084B0200084B020008BC
:1000F0004B0200084B0200084B0200084B020008AC
:100100004B0200084B0200084B0200084B0200089B
:100110004B0200084B0200084B0200084B0200088B
:100120004B0200084B0200084B020008290500089A
:100130004B0200084B0200084B0200084B0200086B
:100140004B0200084B0200084B0200084B0200085B
:100150004B0200084B0200084B0200084B0200084B
:100160004B0200084B0200084B0200084B0200083B
:100170004B0200084B0200084B0200084B0200082B
:100180004B0200084B02000800F002F800F041F8B2
:100190000AA090E8000C82448344AAF10107DA45E2
:1001A00001D100F036F8AFF2090EBAE80F0013F0F3
:1001B000010F18BFFB1A43F0010318477831010003
:1001C00098310100103A24BF78C878C1FAD8520794
:1001D00024BF30C830C144BF04680C6070470000C1
:1001E0000023002400250026103A28BF78C1FBD840
:1001F000520728BF30C148BF0B607047642900F028
:100200008180002070471FB501F05CFB1FBD10B559
:1002100010BD00F054F91146FFF7F5FF01F050F85A
:1002200000F072F903B4FFF7F2FF03BC00F01BFD0E
:100230000948804709480047FEE7FEE7FEE7FEE77A
:10024000FEE7FEE7FEE7FEE7FEE7FEE704480549B6
:10025000054A064B7047000065090008890100083F
:10026000E8050020E80B0020E8070020E807002050
:10027000704700000FB41CB5074B06AA7B446946C3
:100280000090059800F003F90020694600F012F98B
:100290001CBC5DF814FB0000350200002DE9F041A4
:1002A0000E460446002020622046E168884730B3AD
:1002B000252805D0D4E901219047206A401CF2E7A7
:1002C000E168204600278847050018D0A5F14100C5
:1002D000192802D820354FF40067324629462046B7
:1002E0002760FFF78BFF40B1012804D0F61D26F0F0
:1002F00007060836D8E7361DD6E72846DAE7206A2B
:10030000BDE8F0812DE9F04106460024106875290A
:10031000314616A510D0AFF30080002802DA404223
:1003200013A507E031688A0701D512A502E0490745
:1003300004D511A5012401E0AFF3008000210A22B9
:1003400006F1240709E0B0FBF2FCB0FBF2F302FB7C
:100350001C00303078541846491C0028F3D123463D
:100360002A463046BDE8F04100F032B800000000F7
:100370002D0000002B000000200000004FF00002C4
:1003800000B5134694469646203922BFA0E80C508B
:10039000A0E80C50B1F12001BFF4F7AF090728BF66
:1003A000A0E80C5048BF0CC05DF804EB890028BFE2
:1003B00040F8042B08BF704748BF20F8022B11F00B
:1003C000804F18BF00F8012B704770477047704787
:1003D0002DE9F0470D4699469246044600F124085F
:1003E0000168880604D5E06921F01001216000E071
:1003F0000120A84201DD471B00E00027A1697A190E
:1004000002EB0900081AA0612078C00602D4204639
:10041000AFF30080002608E0D4E901211AF80600B5
:100420009047206A401C761C20624E45F4DB207801
:10043000C0060AD52046AFF3008006E0D4E90121CA
:1004400030209047206A401C2062381EA7F1010727
:10045000F4DC07E0D4E9012118F805009047206A90
:10046000401C2062281EA5F10105F3DC2046AFF3F5
:1004700000802078000602D50220BDE8F087012028
:10048000FBE7000001694A1C02610878704700B56B
:100490008FB0CDE901310021059105497944CDE9BD
:1004A000031011466846FFF7F9FE0FB000BD0000CB
:1004B000E5FFFFFF0A6802F8010B0A607047754606
:1004C00000F02CF8AE4605006946534620F00700C0
:1004D000854618B020B5FFF7B9FEBDE820404FF0C3
:1004E00000064FF000074FF000084FF0000B21F01E
:1004F0000701AC46ACE8C009ACE8C009ACE8C009EB
:10050000ACE8C0098D46704710B50446AFF30080D3
:100510002046BDE81040FFF785BE00000048704748
:100520008405002000BFFEE710B50649064800F02C
:1005300029F830B10349044800F00AF801200349C2
:10054000086010BD0080001858640240B4024242A6
:100550000246094B9A4201D2084801E00648103889
:1005600001F000531BB1064B0B40C36002E0044B8B
:100570000B4083607047000010640240006002403E
:100580007D0F7D0F70B50246002000240025124E1D
:10059000B24201D2114B01E00F4B103B104E0E4006
:1005A00036B11E2606EAD124166806EA040502E0E2
:1005B000566906F0800501F000560EB15C6800E057
:1005C0001C68084E344004EA010616B10DB1012042
:1005D00000E0002070BD0000106402400060024096
:1005E0003C0F3C0F7D0F7D0F7047F0B50A46002190
:1005F0000023002400BF3DE0012505FA01F3156842
:1006000005EA03049C4234D105684F000326BE402E
:10061000B543056015794E00B54006683543056061
:100620001579012D02D01579022D16D185684F005C
:100630000326BE40B543856055794E00B5408668B7
:1006400035438560456801268E40B5434560456861
:1006500096798E40B6B235434560C5684F00032693
:10066000BE40B543C560D5794E00B540C668354338
:10067000C560491C1029BFD3F0BDF0B5002300248C
:100680004D07ED0E02FA05F3CE1000F1200555F8E6
:1006900026504E07F70E0F26BE40B543CF1000F18F
:1006A000200646F82750CE1000F1200555F82650B8
:1006B00045EA0304CE1000F1200545F82640F0BDC0
:1006C00000BFFEE700BFFEE77047000070B50021E5
:1006D00000230F22C4781CB3174C246804F4E06490
:1006E000C4F5E064C4F30721C1F10404E3B20A4194
:1006F00044789C40E1B28478144021430C07210ED9
:100700000E4C05786155047804F01F050124AC40B7
:1007100005786D11AD0005F1E025C5F8004109E04F
:10072000047804F01F050124AC40054D06787611CD
:1007300045F8264070BD00000CED00E000E400E04C
:1007400080E100E07047000029B1064A12680243C8
:10075000044B1A6004E0034A12688243014B1A609A
:10076000704700003038024029B1064A126802433F
:10077000044B1A6004E0034A12688243014B1A607A
:100780007047000044380240F0B5002100220024E8
:10079000022500260223324F3F6807F00C0121B1E9
:1007A000042905D0082937D105E02E4F076036E02F
:1007B0002D4F076033E02A4F3F1F3F68C7F3805635
:1007C000274F3F1F3F6807F03F036EB1264FB7FB2F
:1007D000F3F7DFF88CC0ACF1040CDCF800C0CCF30C
:1007E000881C07FB0CF40CE01E4FB7FBF3F7DFF897
:1007F00070C0ACF1040CDCF800C0CCF3881C07FB23
:100800000CF4174F3F1F3F68C7F301477F1C7D0063
:10081000B4FBF5F7076002E0124F076000BF00BFAE
:100820000F4F3F6807F0F0010909104F7A5C076825
:10083000D74047600A4F3F6807F4E051890A0B4FE1
:100840007A5C4768D7408760054F3F6807F460418E
:10085000490B064F7A5C4768D740C760F0BD00007F
:10086000083802400024F40000127A003000002012
:10087000704700000CB500200190009034480068DB
:1008800040F480303249086000BF3148006800F40D
:10089000003000900198401C0190009818B9019810
:1008A000B0F5A04FF1D12A48006800F4003010B133
:1008B0000120009001E0002000900098012846D11E
:1008C00023484030006840F08050214940310860A2
:1008D0002048006840F440401E4908601C48083029
:1008E00000681B49083108600846006840F4004071
:1008F00008600846006840F4A05008601648091FC8
:100900000860081F006840F08070091F086000BF81
:100910000F48006800F000700028F9D040F2057020
:100920000E4908600A480830006820F003000849B2
:10093000083108600846006840F00200086000BF07
:1009400003480830006800F00C000828F8D10CBDFE
:10095000003802400070004008544007003C02404C
:100960007047000010B51548006840F47000134946
:1009700008601348006840F0010011490860002039
:100980000F49083108600E4800680E4908400C49BC
:1009900008600D48091D0860081F006820F48020C9
:1009A000091F0860002006490C310860FFF762FF4C
:1009B0004FF0006001498039086010BD88ED00E00B
:1009C00000380240FFFFF6FE1030002410B5012170
:1009D000134800F032F8012820D112480068401C6A
:1009E00010490860084600680A2813D30E480068BA
:1009F00080B10D4800680D490968884203D1012083
:100A00000B49086003E008480068084908600020B6
:100A1000044908600121024800F00CF810BD0000F4
:100A20000004004050000020200000204C00002066
:100A300024000020CA430282704730B502460020DD
:100A400000230024158A05EA0103958905EA0104BB
:100A500013B10CB1012000E0002030BD10B500241E
:100A600040F225510E4800F03EF8012817D10C48FD
:100A700000F0F2F8C4B20B490868411C094A116041
:100A800009490C5410460068B0F5A06F02D301204C
:100A90000649086040F22551014800F009F810BDF0
:100AA00000100140200000208400002024000020CD
:100AB00010B50022002340F66A14A14200D100BF05
:100AC0000A1201249440A3B2DC43048010BD21B17A
:100AD000828942F40052828104E082894DF6FF73DC
:100AE0001A408281704770B5024600240023002519
:100AF000002040F66A16B14200D100BFC1F3421592
:100B000001F01F03012606FA03F3012D02D1968995
:100B1000334006E0022D02D1168A334001E0968A66
:100B200033400C12012606FA04F41688344013B13F
:100B30000CB1012000E0002070BDF0B50346002498
:100B400000260025002040F66A17B94200D100BFF8
:100B50001846C1F3421401F01F06012707FA06F5F3
:100B6000012C01D10C3004E0022C01D1103000E046
:100B700014301AB107682F43076002E00768AF43DB
:100B80000760F0BD2DE9FF4705460E460024A1464B
:100B900000BFA046B08900B100BF2C8A24F44054A5
:100BA000F08804432C82AC8941F20C608443B08805
:100BB00031890843718908430443AC81AC8A24F429
:100BC0004074B0890443AC826846FFF7DDFD2048DD
:100BD000854202D01F48854202D1DDF80C9001E029
:100BE000DDF80890A88900F4004040B109EBC90085
:100BF00000EB091031684900B0FBF1F707E009EBA1
:100C0000C90000EB091031688900B0FBF1F76420DE
:100C1000B7FBF0F004012009642101FB1078A889DA
:100C200000F4004040B1322000EBC800B0FBF1F00E
:100C300000F00700044308E0322000EB08106421B4
:100C4000B0FBF1F000F00F0004432C81BDE8FF87FA
:100C5000001001400014014001468888C0F30800DC
:100C6000704700BFFEE7704719E000214FF0E02217
:100C700011610F4909684FF47A72B1FBF2F1491E14
:100C80004FF0E0225161002191610521116100BF07
:100C90004FF0E021096901F480310029F8D0011EEC
:100CA000A0F10100E1D14FF0E02211617047000096
:100CB0000000002000214FF0E02211610D49096879
:100CC0000D4AB1FBF2F14143491E4FF0E022516160
:100CD000002191610521116100BF4FF0E0210969F8
:100CE00001F480310029F8D000214FF0E022116199
:100CF000704700000000002040420F00F0B504469D
:100D00000D4616461F4600F081F818B100F07EF837
:100D1000022801D11435143700F078F8012803D0E7
:100D200000F074F8032801D1143414362A2000F09E
:100D300087F9C4F3072000F097F9E0B200F094F9C6
:100D4000C6F3072000F090F9F0B200F08DF92B20E7
:100D500000F076F9C5F3072000F086F9E8B200F05C
:100D600083F9C7F3072000F07FF9F8B200F07CF9AF
:100D70002C2000F065F9F0BD18B504460448009435
:100D80000368044800210268084600F017F818BDFF
:100D9000440000204000002070B505460E46144671
:100DA00033462A4631462846FFF7A8FFC4F30720FA
:100DB00000F05AF9E0B200F057F970BD2DE9F047A4
:100DC00004460D4616461F46DDF82080E819431EEE
:100DD000A019421E29462046FFF790FFAA4610E0C0
:100DE000A14609E0C8F3072000F03EF908F0FF0033
:100DF00000F03AF909F10109A0194845F2D80AF1C1
:100E0000010AE8195045EBD8BDE8F08701480068B1
:100E1000704700004800002010B501211820FFF79E
:100E200093FC4FF400708049086001200871032092
:100E3000487100208871C8717C48FFF7D6FB4AF6DC
:100E40008020794908600120087103204871002042
:100E50008871C8717648FFF7C8FB002075490860A3
:100E60007549C1F8AC02012074490860002072493C
:100E7000C1F89C026420FFF7F7FE01206F4910398A
:100E800008606420FFF7F0FE112000F0D9F8782008
:100E9000FFF7EAFE3A2000F0D3F8052000F0E4F86E
:100EA000C52000F0CDF81A2000F0DEF8362000F062
:100EB000C7F8002000F0D8F8B22000F0C1F80520F3
:100EC00000F0D2F8052000F0CFF8002000F0CCF8B8
:100ED000332000F0C9F8332000F0C6F8B72000F046
:100EE000AFF8052000F0C0F8BB2000F0A9F83F20C3
:100EF00000F0BAF8C02000F0A3F82C2000F0B4F8FD
:100F0000C22000F09DF8012000F0AEF8C32000F0F0
:100F100097F80F2000F0A8F8C42000F091F82020E6
:100F200000F0A2F8C62000F08BF8012000F09CF839
:100F3000D02000F085F8A42000F096F8A12000F061
:100F400093F8E82000F07CF8032000F08DF8E92009
:100F500000F076F8092000F087F8092000F084F806
:100F6000082000F081F8E02000F06AF8D02000F0BE
:100F70007BF8052000F078F8092000F075F80920CA
:100F800000F072F8082000F06FF8142000F06CF800
:100F9000282000F069F8332000F066F83F2000F0C8
:100FA00063F8072000F060F8132000F05DF81420CB
:100FB00000F05AF8282000F057F8302000F054F8DC
:100FC000E12000F03DF8D02000F04EF8052000F0C0
:100FD0004BF8092000F048F8092000F045F80820F7
:100FE00000F042F8032000F03FF8242000F03CF825
:100FF000322000F039F8322000F036F83B2000F0C3
:1010000033F8142000F030F8132000F02DF82820D9
:1010100000F02AF82F2000F027F8212000F010F827
:10102000292000F00DF810BD68000020000C0240DF
:1010300000100240A482414200004242AC024242FF
:1010400010B504460020064908600649C1F8BC02F4
:10105000204600F0DBF901200149086010BD0000C6
:10106000B40242420000424210B504460020064944
:10107000086001200549C1F8BC02204600F0C6F90D
:1010800001200149086010BDB40242420000424202
:1010900010B504461E48046064B93620FFF7D0FF3F
:1010A0000020FFF7E1FFF0201A4908604FF48C7030
:1010B00019490860012C0CD13620FFF7C1FF7020C0
:1010C000FFF7D2FF4FF48C7012490860F0201249EC
:1010D0000860022C0CD13620FFF7B2FFC020FFF7CA
:1010E000C3FFF0200B4908604FF48C700A49086078
:1010F000032C0CD13620FFF7A3FFB020FFF7B4FF7D
:101100004FF48C7003490860F0200349086010BD5B
:101110004800002040000020440000202DE9FF4F3F
:1011200080468B46174699460E9D002002901FFA76
:1011300088F00090C5F347042046E21704EB527292
:10114000D2102146E31704EB5373DB10A4EBC30367
:101150000BB1012300E000231A446A4392B20192CA
:10116000A7F12000C7B20BEB0500431E08EB0400FB
:10117000421E59464046FFF7C1FD002670E00C2D87
:1011800007D107EB4700394901EB8000805D0390F0
:101190001BE0102D05D1364800EB0710805D039051
:1011A00013E0182D07D107EB4700324901EB00107F
:1011B000805D039009E0202D05D12F4800EB8710BA
:1011C000805D039001E0BDE8FF8F4FF0000A41E031
:1011D0000F9820BB012000FA0AF00399084040B1A3
:1011E000C9F30720FFF740FF09F0FF00FFF73CFFBE
:1011F00008E00D98C0F30720FFF736FF0D99C8B23D
:10120000FFF732FF0298401CC0B20290029890FB98
:10121000F4F104FB1100C8B9002002901DE0012088
:1012200000FA0AF00399084020B14A465946404660
:10123000FFF7B2FD08F101080098A8EB0000A042FA
:1012400004D1DDF800800BF1010B06E00AF101008A
:1012500000F0FF0ABAF1080FBADB00BF701C86B2BB
:10126000019886428BDB00BFADE70000CE18000876
:10127000421D000832230008023500082DE9FE4710
:1012800006460F4614469846DDE90C5ADDF82C90C8
:1012900010E0CDE9015ACDF8009022784346394656
:1012A0003046FFF73BFF284605EBD07106EB6101A6
:1012B0008EB2641C20780028EBD1BDE8FE870000C8
:1012C0008EB0202106A8FFF759F8002003904FF4B4
:1012D000E13000F0A7FAFFF79FFD4FF6FF70FFF730
:1012E0004BFD0220FFF7D4FE00F08AF90020102108
:1012F0004FF6FF724FF47843CDE90021029035A2FA
:101300008C211E20FFF7BAFF63E0384800680028F0
:101310005FD13FE004A905A800F0BCF9041E2ED05F
:101320004FF4784005231A460090BDF81010BDF820
:101330001400FFF743FD1F2000902D480068A0F126
:1013400014011423A0221846FFF738FD0094BDF8BD
:101350001030BDF8142027A106A8FEF78BFF00204F
:1013600010211F22CDE90021029021480088143865
:1013700081B24FF6FF7306AA1420FFF77FFF03A97F
:10138000022000F0EDF99DF80C0000B903E00A20FE
:10139000FFF76AFCBEE700BF4FF4FA60FFF764FC9A
:1013A0004FF6FF700090124803681748002102684A
:1013B0000846FFF703FD002010214FF6FF724FF49F
:1013C0007843CDE90021029002A28C211E20FFF774
:1013D00055FF9AE754502054657374204279205485
:1013E0006561636865722E57656E00003082424207
:1013F00044000020783D256420793D2564207374E5
:10140000613D25640000000040000020002115E03F
:1014100000220D4B1A6000F0800222B900220A4B14
:10142000083B1A6003E00122074B083B1A604206A2
:10143000100E0122044B1A604A1CD1B20829E7DBC6
:101440000022014B1A607047AC02424210B50446BC
:10145000012000F0B9F90020104908601049C1F8D6
:10146000B8020120FFF726FC24B101200B493831D6
:10147000086003E000200949383108600120FFF7C7
:1014800019FC012005490860FFF714FC00200449FD
:10149000C1F880020120FFF70DFC10BD808241429F
:1014A0000080414270B50025002000F08DF907242E
:1014B00013E001200B490860FFF7FCFB0A48D0F855
:1014C000380218B10120A0402843C5B200200549C8
:1014D00008600120FFF7EEFB641E002CE9DA2846C5
:1014E00070BD0000808241420080414270B50546D7
:1014F000012000F069F90020144908601449C1F87E
:10150000B8020120FFF7D6FB07241CE00120A04011
:10151000284020B101200D493831086003E0002047
:101520000A49383108600120FFF7C4FB0120074950
:101530000860FFF7BFFB00200549C1F880020120C9
:10154000FFF7B8FB641E002CE0DA70BD80824142D8
:101550000080414210B5012000F036F901200B490E
:1015600008600B49C1F8B802FFF7A4FB0020074947
:10157000383108600120FFF79DFB00200449C1F8C5
:1015800080020120FFF796FB10BD000080824142DF
:101590000080414210B5012000F016F901200849F1
:1015A000086000200749C1F8B8020120FFF782FB5C
:1015B0000120034938310860FFF77CFB10BD0000B3
:1015C000808241420080414210B5002000F0FCF8CA
:1015D000012009490860FFF76DFB0848D0F8380280
:1015E00008B1012400E00024002003490860012024
:1015F000FFF760FB204610BD8082414200804142DF
:1016000038B5002000900024002500F00BF800F011
:10161000C7F800F0C5F8112000906946FA2000F0E4
:10162000E9F838BD10B501210820FFF78DF8012138
:101630002020FFF789F844F21100114908600120C9
:1016400008718871032048710020C8710D48FEF7A9
:10165000CCFF01200C4908600C49C1F8B8020849C8
:10166000C871002008714FF4805008600320487151
:101670000748FEF7BAFF012003491031086010BD8A
:1016800060000020000C0240808241420080414204
:10169000001402402DE9FE43074688460024002539
:1016A00001A9012000F05CF80DF10501032000F014
:1016B00057F80DF10601042000F052F80DF1070172
:1016C000052000F04DF802A9062000F049F89DF829
:1016D00006009DF8051001F00F0140EA01249DF875
:1016E00008009DF8071001F00F0140EA01251A4893
:1016F000006884422ED21948006885422AD2FFF73A
:1017000085FB012805D126462C4614480088801BFD
:1017100085B2FFF77BFB022807D10F480088001B2A
:1017200084B20E480088401B85B2FFF76FFB032888
:1017300005D12E46254608480088801B84B23C808F
:10174000A8F800506946012000F00AF89DF8000052
:10175000BDE8FE830020FBE740000020440000209D
:1017600070B505460C46FFF7F5FE2A20FFF7BEFED2
:10177000FFF72AFF2846FFF7B9FEFFF725FFFFF71F
:10178000E9FE2B20FFF7B2FEFFF71EFFFFF78AFEF0
:1017900020700120FFF75AFEFFF7FCFE70BD00002D
:1017A00010B50020064908600A20FFF75DFA012005
:1017B0000449C1F890023C20FFF756FA10BD000022
:1017C000908241420080414210B504464FF480406F
:1017D0000649086008460471012088710320487199
:1017E0000020C8710248FEF700FF10BD6000002015
:1017F000000C024070B505460C46FFF7ABFE2A20F0
:10180000FFF774FEFFF7E0FE2846FFF76FFEFFF7D5
:10181000DBFE2078FFF76AFEFFF7D6FEFFF7BAFE81
:1018200070BD000010B5044601210846FEF78CFF8C
:1018300001211020FEF798FF4FF4C0601C4908609A
:10184000022008710320487100208871C87119486E
:10185000FEF7CBFE072209211648FEF70EFF0722EE
:101860000A211448FEF709FF1348046000201249BA
:101870008880C880088188810C2048810F48FFF744
:1018800081F9012240F225510C48FFF756F9252035
:101890000B4908700020487088700120C870084605
:1018A000FEF714FF01210548FFF711F910BD0000F4
:1018B00014000020000002407400002000100140CD
:1018C0001C0000204FF04070E1EE100A704700004D
:1018D00000000000000000000000000004040404F8
:1018E00004000004000014140A00000000000000BE
:1018F000000000000A0A1F0A0A1F0A0A000000046A
:101900000E1505060C14150E0400000012150D1519
:101910002E2C2A1200000000040A0A36151529167A
:10192000000002020100000000000000000010089A
:101930000804040404040808100002040408080849
:1019400008080404020000000004150E0E1504002F
:10195000000000000008083E080800000000000029
:101960000000000000000202010000000000003F33
:101970000000000000000000000000000000000265
:1019800000000020101008080404020201000000FA
:101990000E1111111111110E0000000004060404B3
:1019A0000404040E000000000E1111080402011FBF
:1019B000000000000E11100C1010110E00000000AD
:1019C000080C0C0A091F081C000000001F01010F71
:1019D0001110110E000000000C12010D1311110E58
:1019E000000000001E1008080404040400000000A9
:1019F0000E11110E1111110E000000000E1111191F
:101A00001610090600000000000004000000000499
:101A100000000000000000040000000404000000BA
:101A200010080402020408100000000000003F003B
:101A30003F0000000000000002040810100804022B
:101A4000000000000E111108040400040000000052
:101A50001C22292D2D1D221C0000000004040C0A4C
:101A60000A1E1233000000000F12120E1212120F83
:101A7000000000001E1101010101110E0000000014
:101A80000F1212121212120F000000001F120A0E83
:101A90000A02121F000000001F120A0E0A020207AB
:101AA000000000001C1201013911120C000000009E
:101AB0003312121E12121233000000001F0404041D
:101AC0000404041F000000003E0808080808080875
:101AD0000907000037120A060A1212370000000038
:101AE000070202020202223F000000003B1B1B1BF8
:101AF00015151535000000003B1216161A1A12179C
:101B0000000000000E1111111111110E0000000053
:101B10000F12120E02020207000000000E11111136
:101B20001117190E180000000F12120E0A121237A8
:101B3000000000001E1101060810110F0000000037
:101B40001F1504040404040E0000000033121212D6
:101B50001212120C000000003312120A0A0C0404C4
:101B600000000000151515150E0A0A0A00000000F5
:101B70001B0A0A04040A0A1B000000001B0A0A0AC6
:101B80000404040E000000001F0908040402121FD0
:101B900000001C0404040404040404041C000002E7
:101BA000020404040808081010000E0808080808B9
:101BB000080808080E00040A0000000000000000E9
:101BC000000000000000000000000000003F0204D0
:101BD0000000000000000000000000000000000CF9
:101BE000121C123C000000030202020E1212120E1E
:101BF000000000000000001C1202120C000000187F
:101C00001010101C1212123C000000000000000C0A
:101C1000121E021C000000182404041E0404041EEA
:101C2000000000000000003C120C021C221C0003FB
:101C30000202020E12121237000000040400000615
:101C40000404040E000000080800000C080808083E
:101C5000080700030202021A0A060A13000000071E
:101C6000040404040404041F000000000000000F2A
:101C700015151515000000000000000F1212123794
:101C8000000000000000000C1212120C0000000006
:101C90000000000F1212120E020700000000001CCC
:101CA0001212121C103800000000001B060202076E
:101CB000000000000000001E020C101E00000000CA
:101CC0000004041E0404041C000000000000001BAB
:101CD0001212123C000000000000001B0A0A04045B
:101CE0000000000000000015150E0A0A00000000A8
:101CF0000000001B0A040A1B000000000000003363
:101D000012120C08040300000000001E0804041E48
:101D1000000018080808080C080808081800080837
:101D20000808080808080808080806040404040845
:101D3000040404040600160900000000000000006E
:101D40000000000000000000000000000000000093
:101D5000000000000008080808080808000018181B
:101D6000000000486C241200000000000000000089
:101D700000000000002424247F1212127F1212128D
:101D800000000000081C2A2A0A0C1828282A2A1CED
:101D9000080800000022251515152A58545454220D
:101DA00000000000000C1212120A76252911916E13
:101DB0000000000606040300000000000000000010
:101DC0000000004020101008080808080810102023
:101DD0004000000204080810101010101008080439
:101DE00002000000000008086B1C1C6B08080000C3
:101DF000000000000000080808087F080808080024
:101E000000000000000000000000000000000606C6
:101E100004030000000000000000FE0000000000BD
:101E200000000000000000000000000000000606A6
:101E30000000000080404020201010080804040228
:101E4000020000000018244242424242424224184A
:101E50000000000000080E08080808080808083EEE
:101E600000000000003C4242422020100804427E54
:101E700000000000003C4242201820404042221C4A
:101E80000000000000203028242422227E20207818
:101E900000000000007E0202021A26404042221C7E
:101EA0000000000000382402021A26424242241890
:101EB00000000000007E2222101008080808080810
:101EC00000000000003C4242422418244242423CAE
:101ED0000000000000182442424264584040241C84
:101EE0000000000000000000181800000000181892
:101EF00000000000000000000008000000000008D2
:101F000008040000004020100804020408102040CB
:101F100000000000000000007F0000007F000000C3
:101F200000000000000204081020402010080402F5
:101F300000000000003C42424640201010001818EB
:101F400000000000001C225A555555552D42221CF8
:101F500000000000000808181414243C224242E744
:101F600000000000001F2222221E22424242221FA5
:101F700000000000007C4242010101010142221CDC
:101F800000000000001F2242424242424242221F01
:101F900000000000003F4212121E12120242423F95
:101FA00000000000003F4212121E1212020202073D
:101FB00000000000003C2222010101712122221CAC
:101FC0000000000000E7424242427E42424242E7B5
:101FD00000000000003E0808080808080808083E3D
:101FE00000000000007C10101010101010101010D5
:101FF000110F0000007722120A0E0A121222227715
:102000000000000000070202020202020202427FF8
:10201000000000000077363636362A2A2A2A2A6B34
:102020000000000000E346464A4A525252626247AC
:1020300000000000001C2241414141414141221C5D
:1020400000000000003F424242423E0202020207FC
:1020500000000000001C2241414141414D53321C0F
:1020600060000000003F4242423E1212222242C75C
:1020700000000000007C4242020418204042423E20
:1020800000000000007F4908080808080808081C2C
:102090000000000000E74242424242424242423CCB
:1020A0000000000000E7424222242414141808080B
:1020B00000000000006B494949495555362222224B
:1020C0000000000000E7422424181818242442E7E6
:1020D0000000000000772222141408080808081CD9
:1020E00000000000007E2120101008040442423F3E
:1020F0000000007808080808080808080808080808
:1021000078000000020204040808081010202020B3
:102110004040001E10101010101010101010101061
:102120001E00003844000000000000000000000015
:10213000000000000000000000000000000000009F
:1021400000FF000608000000000000000000000082
:102150000000000000000000003C4278444242FCC5
:102160000000000000030202021A26424242261A20
:102170000000000000000000003844020202443861
:10218000000000000060404040784442424264D871
:102190000000000000000000003C427E0202423CC1
:1021A0000000000000F08808087E08080808083EC3
:1021B0000000000000000000007C22221C023C42C3
:1021C000423C000000030202023A4642424242E719
:1021D00000000000000C0C00000E08080808083E73
:1021E0000000000000303000003820202020202097
:1021F000221E0000000302020272120A1612227747
:1022000000000000000E0808080808080808083E3A
:102210000000000000000000007F9292929292B7AE
:102220000000000000000000003B4642424242E73E
:102230000000000000000000003C42424242423CDC
:102240000000000000000000001B26424242221E47
:102250000207000000000000007844424242447837
:1022600040E000000000000000774C040404041F5C
:102270000000000000000000007C42023C40423EA2
:102280000000000000000008083E080808080830A8
:10229000000000000000000000634242424262DC95
:1022A000000000000000000000E742242414080899
:1022B000000000000000000000EB494955552222B3
:1022C0000000000000000000007624181818246E9A
:1022D000000000000000000000E742242414180859
:1022E0000807000000000000007E22100808447E5D
:1022F000000000C0202020202010202020202020AE
:10230000C00010101010101010101010101010102D
:10231000101000060808080808100808080808082F
:1023200006000C32C20000000000000000000000A7
:10233000000000000000000000000000000000009D
:10234000000000000000000000000000000000008D
:10235000000000000000000000000000000000007D
:10236000000000000000000000006000600060004D
:10237000600060006000600040002000200020003D
:10238000000000000000600060006000000000002D
:10239000000000000000600660063003980188001D
:1023A00044000000000000000000000000000000E9
:1023B000000000000000000000000000000000001D
:1023C00000000000000000000000100210021002D7
:1023D0001002FE07FE0708020801080108010801B3
:1023E000FE07FE07040104010401040100000000CF
:1023F000000000000000000040004000F001580311
:102400004C03CC034C0058007000E000C001C00138
:1024100040034C035C034C034801F00040004000C3
:10242000000000000000000000000E010A01910001
:1024300091009100510051003A00AE03A0025004F7
:102440005004480448044804840284030000000047
:102450000000000000000000000038006C006C006C
:102460006C006C006C002C0098071C011A013301F1
:1024700033016301E300C308C6093C070000000004
:102480000000000000000C001C00100010000800FC
:102490000400000000000000000000000000000038
:1024A000000000000000000000000000000000002C
:1024B0000000000000000004000200018000800015
:1024C00040004000200020002000200020002000CC
:1024D0002000400040008000800000010002000455
:1024E00000000000000002000400080010001000BE
:1024F000200020004000400040004000400040001C
:10250000400020002000100010000800040002001D
:10251000000000000000000000000000000040007B
:10252000C0004000460C4E0FD001F0015E0F460C7B
:1025300040004000400000000000000000000000DB
:10254000000000000000000000000000000000008B
:1025500040004000400040004000FE0F40004000AE
:1025600040004000400000000000000000000000AB
:10257000000000000000000000000000000000005B
:10258000000000000000000000000000000000004B
:102590000000000000000C001C00100010000800EB
:1025A0000400000000000000000000000000000027
:1025B00000000000000000000000FE070000000016
:1025C000000000000000000000000000000000000B
:1025D00000000000000000000000000000000000FB
:1025E00000000000000000000000000000000000EB
:1025F0000000000000001C001C001C000000000087
:1026000000000000000000040006000200030001BA
:102610000001800080004000400060002000200099
:1026200010001000080008000C0004000600020062
:10263000000000000000000000000000F000980111
:102640000C030C0306060606060606060606060624
:10265000060606060C030C039801F00000000000BB
:1026600000000000000000000000000040007C00AE
:10267000600060006000600060006000600060005A
:1026800060006000600060006000FC03000000006B
:10269000000000000000000000000000F8008401BD
:1026A000020306030603000300018001C00060006E
:1026B00020001000080204020602FE0300000000D1
:1026C0000000000000000000000000007800C600CC
:1026D0008601860180018001C00070008001000138
:1026E00000030003060306038601F8000000000053
:1026F00000000000000000000000000080018001D8
:10270000C001A001A001900188018801840182011B
:10271000FE0F8001800180018001E00700000000C1
:10272000000000000000000000000000FC030400A6
:102730000400040004000400F4008C0104030003FE
:1027400000030603060382018401F8000000000074
:10275000000000000000000000000000E00118037D
:102760000C030C0004000600E60116030E06060624
:102770000606060604060C021803F000000000001E
:10278000000000000000000000000000F8070C0638
:1027900004020401000100018000800040004000AC
:1027A0004000600060006000600060000000000009
:1027B000000000000000000000000000F8010C0311
:1027C0000606060606060C021C03F000C8010C03F0
:1027D00006060606060606060C03F00100000000C9
:1027E000000000000000000000000000F0000C01EC
:1027F0000C03060206060606060606078C06780681
:102800000006000300030C018C01780000000000AA
:1028100000000000000000000000000000000000B8
:10282000000000000000E000E000E0000000000008
:10283000000000000000E000E000E00000000000F8
:102840000000000000000000000000000000000088
:1028500000000000000060006000000000000000B8
:102860000000000000000000600060004000200048
:102870002000000000000000000000040002000131
:102880008000400020001000080004000800100034
:102890002000400080000001000200040000000051
:1028A0000000000000000000000000000000000028
:1028B000000000000000FE07000000000000FE070E
:1028C0000000000000000000000000000000000008
:1028D00000000000000000000000040008001000DC
:1028E00020004000800000010002000400020001FE
:1028F00080004000200010000800040000000000DC
:10290000000000000000000000000000E0031806C6
:10291000040C040C0C0C0C0C00078001400040005F
:10292000400000000000E000E000E00000000000C7
:1029300000000000000000000000E00018030C028E
:10294000CC0564056605A605B604B604B604B6044F
:10295000B602E4010C040C021803F00000000000B1
:1029600000000000000000000000000060006000A7
:102970005000D00090009000880088010801F80104
:10298000040304030402020202060F0F0000000009
:10299000000000000000000000000000FE008C03AA
:1029A0000C030C030C030C038C01FC000C030C0245
:1029B0000C060C060C060C060C03FE0100000000C1
:1029C000000000000000000000000000E003180309
:1029D0000C060C04040406000600060006000600AF
:1029E000060006040C040C021803F00000000000AE
:1029F0000000000000000000000000007F008C01CB
:102A00000C030C030C060C060C060C060C060C063C
:102A10000C060C060C030C038C017F000000000068
:102A2000000000000000000000000000FF0306039B
:102A300006040604060086008600FE008600860066
:102A400086000600060406040602FF0300000000DC
:102A5000000000000000000000000000FF0306036B
:102A600006040604060086008600FE008600860036
:102A7000860006000600060006001F000000000099
:102A8000000000000000000000000000F00018013D
:102A90000C020C0204020600060006000600C60F27
:102AA000060306030C030C031803F00000000000EB
:102AB0000000000000000000000000000F0F0606EC
:102AC00006060606060606060606FE0706060606AD
:102AD000060606060606060606060F0F000000009C
:102AE000000000000000000000000000FC03600087
:102AF00060006000600060006000600060006000D6
:102B000060006000600060006000FC0300000000E6
:102B1000000000000000000000000000F807C000F6
:102B2000C000C000C000C000C000C000C000C000A5
:102B3000C000C000C000C000C000C000C6006600E9
:102B40003C0000000000000000000000CF038601F0
:102B5000C60046002600160036002E006E00460015
:102B6000C60086008601060106038F0700000000EC
:102B70000000000000000000000000001F00060030
:102B80000600060006000600060006000600060015
:102B900006000600060406040602FF03000000000B
:102BA000000000000000000000000000070786038E
:102BB00086038E038E034E034E034A035A035A03C1
:102BC0003A03320332033203120387070000000086
:102BD0000000000000000000000000008E0F0C024A
:102BE0001C021C0234023402640264024402C40265
:102BF000840284038403040304031F020000000012
:102C0000000000000000000000000000F00098013B
:102C10000C030C020606060606060606060606064F
:102C2000060606060C020C039801F00000000000E6
:102C3000000000000000000000000000FF0006038C
:102C4000060606060606060606068603FE000600BB
:102C5000060006000600060006001F000000000037
:102C6000000000000000000000000000F0009801DB
:102C70000C030C02060606060606060606060606EF
:102C8000060676064C02CC039801F000800700038C
:102C9000000000000000000000000000FF0106032B
:102CA00006060606060606060603FE004600C600E1
:102CB000860086010603060306060F0E00000000CC
:102CC000000000000000000000000000F8020C03FB
:102CD0000602060206000E003C00F800E003800336
:102CE00000070206020606060C03F00100000000C1
:102CF000000000000000000000000000FE07620469
:102D000061086108600060006000600060006000B1
:102D100060006000600060006000F80100000000DA
:102D20000000000000000000000000001E070C0270
:102D30000C020C020C020C020C020C020C020C0223
:102D40000C020C020C020C021801F0000000000042
:102D50000000000000000000000000000F07060255
:102D6000040104010C010C018800880098009800FF
:102D700050005000700030002000200000000000D3
:102D8000000000000000000000000000F70E6204D8
:102D900042044604460464026402E402E4029C0223
:102DA0009C019801980188018800880000000000BB
:102DB0000000000000000000000000009E070C0161
:102DC000080118019000B000600020006000600061
:102DD000D00090008801080104038E070000000065
:102DE0000000000000000000000000000F0F0604BB
:102DF00004020C0208011801B800B0007000600065
:102E000060006000600060006000F80100000000E9
:102E1000000000000000000000000000FC070C02A1
:102E200006030201800180004000400020002000D5
:102E30001000180008040C040402FE030000000047
:102E4000000000000000E00320002000200020001F
:102E50002000200020002000200020002000200072
:102E60002000200020002000200020002000E0039F
:102E70000000000000000000000004000400080042
:102E8000080010001000100020002000400040004A
:102E9000C00080008000000100010002000200026A
:102EA0000004000000007C004000400040004000A2
:102EB0004000400040004000400040004000400012
:102EC00040004000400040004000400040007C00C6
:102ED00000000000600090000801000000000000F9
:102EE00000000000000000000000000000000000E2
:102EF00000000000000000000000000000000000D2
:102F000000000000000000000000000000000000C1
:102F100000000000000000000000000000000000B1
:102F200000000000000000000000000000000000A1
:102F3000FF0F00000000180060000000000000000B
:102F40000000000000000000000000000000000081
:102F50000000000000000000000000000000000071
:102F60000000000000000000000000000000000061
:102F7000000000000000F0010C030C030003E0035C
:102F80001C030E03060306038E0B7C0E00000000DC
:102F90000000000000000000000008000E000C000F
:102FA0000C000C000C00CC013C031C060C060C06AB
:102FB0000C060C060C060C021C03E40100000000C9
:102FC0000000000000000000000000000000000001
:102FD000000000000000F0008C018C01860106005A
:102FE0000600060006020C020C01F00000000000C2
:102FF000000000000000000000000002C003000309
:1030000000030003000378038C030C03060306038C
:1030100006030603060304038C0778010000000082
:1030200000000000000000000000000000000000A0
:10303000000000000000E001180308020C060C0666
:10304000FC070C000C0018041802E001000000004E
:10305000000000000000000000000000C003600647
:10306000300630003000FE0130003000300030000B
:1030700030003000300030003000FC010000000063
:103080000000000000000000000000000000000040
:10309000000000000000F007D8068C018C018C01B4
:1030A0009801F8000C00FC00CC03060306038E0315
:1030B000F800000000000000000008000E000C00F6
:1030C0000C000C000C00EC011C030C030C030C03A3
:1030D0000C030C030C030C030C039E070000000000
:1030E0000000000000000000000000006000600020
:1030F0000000000040007C00600060006000600094
:1031000060006000600060006000FC0300000000E0
:10311000000000000000000000000000C001C0012D
:10312000000000000001F0018001800180018001A9
:103130008001800180018001800180018001CC003C
:103140007C00000000000000000008000E000C00E1
:103150000C000C000C008C038C008C004C006C00EC
:103160005C008C008C010C010C039E070000000029
:103170000000000000000000000040007C00600033
:10318000600060006000600060006000600060003F
:1031900060006000600060006000FC030000000050
:1031A000000000000000000000000000000000001F
:1031B0000000000000003707EE0666066606660699
:1031C00066066606660666066606FF0F00000000D5
:1031D00000000000000000000000000000000000EF
:1031E000000000000000EE011C030C030C030C03A4
:1031F0000C030C030C030C030C039E0700000000DF
:1032000000000000000000000000000000000000BE
:10321000000000000000F00098010C0306060606FE
:103220000606060606060C030C03F000000000006C
:10323000000000000000000000000000000000008E
:10324000000000000000EE011C030C060C060C063A
:103250000C060C060C060C031C03EC010C000C0005
:103260003E00000000000000000000000000000020
:1032700000000000000078028C030C030603060324
:1032800006030603060304038C037803000300030C
:10329000C007000000000000000000000000000067
:1032A0000000000000009F035806380618001800B0
:1032B00018001800180018001800FF000000000097
:1032C00000000000000000000000000000000000FE
:1032D000000000000000F0031C030C020C02380088
:1032E000F000C003040304038C03FC010000000091
:1032F00000000000000000000000000000002000AE
:10330000200030003000FE0130003000300030007E
:1033100030003000300030023002E00100000000D8
:10332000000000000000000000000000000000009D
:103330000000000008028E030C030C030C030C03B6
:103340000C030C030C030C039C0778010000000025
:10335000000000000000000000000000000000006D
:103360000000000000001E070C02080108011801FF
:103370009000B000B000600060002000000000007D
:10338000000000000000000000000000000000003D
:10339000000000000000F70E6204460464026402AC
:1033A000EC029C01980198019801080000000000BF
:1033B000000000000000000000000000000000000D
:1033C000000000000000BC0718011001B000600000
:1033D0006000E0009000080108039E070000000064
:1033E00000000000000000000000000000000000DD
:1033F0000000000000009E0708010801080190007D
:103400009000B000600060006000200020002400F8
:103410001C00000000000000000000000000000090
:10342000000000000000FC018401C40044006000B2
:1034300020003000180208020C03FC01000000000C
:103440000000000000000003800080008000800079
:10345000800080008000800040002000400080004C
:1034600080008000800080008000800080000003D9
:10347000000040004000400040004000400040008C
:10348000400040004000400040004000400040003C
:10349000400040004000400040004000400040002C
:1034A0004000000000000C00100010001000100090
:1034B000100010001000100020004000200010003C
:1034C00010001000100010001000100010000C0080
:1034D000000000001C002204C20480030000000061
:1034E00000000000000000000000000000000000DC
:1034F00000000000000000000000000000000000CC
:1035000000000000000000000000000000000000BB
:1035100000000000000000000000000000000000AB
:10352000000000000000000000000000000000009B
:10353000000000000000000000000000000000008B
:10354000000000000000000000000000C001C001F9
:10355000C001C001C001C001C00180008000800026
:10356000800080008000800000000000000000005B
:103570008001C003C00380010000000000000000C3
:103580000000000000000000E01CE01CF01E700EB7
:103590003807180308018400000000000000000044
:1035A000000000000000000000000000000000001B
:1035B000000000000000000000000000000000000B
:1035C00000000000000000000000000000002010CB
:1035D0002010201020102010FE7FFE7F1008100801
:1035E00010081008100810081008FE7FFE7F08045D
:1035F000080408040804080400000000000000009B
:103600000000000000000000000000010001C007F1
:103610006019103118311839183938017001E0017A
:10362000C0038007000F001D003900311C311C3120
:103630000C310C11180DE007000100010001000021
:1036400000000000000000000000000000001C104E
:1036500036186308630C6304630463026302630146
:10366000361D9C3780228063406340632063206363
:10367000306310221836081C000000000000000013
:103680000000000000000000000000000000F0004A
:1036900098018C018C018C018C018C00CC0078008D
:1036A000183E1C083608320863046304C304C303CD
:1036B000834306438E26781C0000000000000000B3
:1036C00000000000000000001C003C003C00300036
:1036D000300010000C000600000000000000000098
:1036E00000000000000000000000000000000000DA
:1036F00000000000000000000000000000000000CA
:103700000000000000000000004000200010000841
:10371000000C000400060003000300038001800188
:10372000800180018001800180018001000300038D
:10373000000300060006000C0008001000200040F6
:10374000000000000000000002000400080010005B
:10375000300020006000C000C000C0008001800177
:10376000800180018001800180018001C000C000D3
:10377000C00060006000300010000800040002007B
:103780000000000000000000000000000000000039
:10379000000000018003800300011C713C79783D2A
:1037A000C0070001C007783D3C791C71000180030F
:1037B0008003800100000000000000000000000005
:1037C00000000000000000000000000000000000F9
:1037D00000000000000100010001000100010001E3
:1037E0000001FC7F00010001000100010001000157
:1037F00000010000000000000000000000000000C8
:1038000000000000000000000000000000000000B8
:1038100000000000000000000000000000000000A8
:103820000000000000000000000000000000000098
:1038300000001C003C003C003000300010000C0078
:103840000600000000000000000000000000000072
:103850000000000000000000000000000000000068
:103860000000FE7F000000000000000000000000DB
:103870000000000000000000000000000000000048
:103880000000000000000000000000000000000038
:103890000000000000000000000000000000000028
:1038A0000000000000000000000000000000000018
:1038B00018003C003C001800000000000000000060
:1038C0000000000000000000004000600020003008
:1038D000001000180008000C00040006000200039D
:1038E000000180018000C000400060002000300026
:1038F0001000180008000C00040006000200000080
:103900000000000000000000000000000000C007F0
:10391000600C30181830183018200C600C600C60E7
:103920000C600C600C600C600C600C60182018308F
:1039300018303018600CC0070000000000000000C4
:103940000000000000000000000000000000000176
:103950008001F801800180018001800180018001E7
:10396000800180018001800180018001800180014F
:1039700080018001C003F81F00000000000000006B
:103980000000000000000000000000000000E00750
:10399000101C0818043004300C300C3000300018B3
:1039A00000080004000200018000400020201020D8
:1039B00008200430FC1FFC1F000000000000000075
:1039C0000000000000000000000000000000E00314
:1039D000180E0C0C0C180C180C180018000C000613
:1039E000C003000E00180010003000300C300C3006
:1039F0000C100C18180CE003000000000000000080
:103A00000000000000000000000000000000000CAA
:103A1000000E000E000F800E800E400E600E200E75
:103A2000100E100E080E040E040EFE7F000E000E87
:103A3000000E000E000E000EC07F0000000000000F
:103A40000000000000000000000000000000F03F47
:103A5000F03F10001000100008000800C807280CF4
:103A60001818081000300030003000300C300C30D6
:103A700004180418080CF003000000000000000007
:103A80000000000000000000000000000000800FA7
:103A9000C010203010301800180008000C008C0FE7
:103AA0006C183C301C600C600C600C600C60186082
:103AB000182030306018C00700000000000000002F
:103AC0000000000000000000000000000000F83FBF
:103AD000F83F1C100C080408040400040002000253
:103AE000000100010001800080008000C000C000D3
:103AF000C000C000C000C0000000000000000000C6
:103B00000000000000000000000000000000E007CE
:103B1000300C18180C300C300C301C303818700871
:103B2000E007B007180E0C1C0638063006300630C9
:103B300006300C18180CE003000000000000000024
:103B40000000000000000000000000000000E00392
:103B500018040C080C180610063006300630063023
:103B600006380C3C1836F0310030001800180018E8
:103B70000C0C0C060C03F00100000000000000001B
:103B80000000000000000000000000000000000035
:103B90000000000000000000000000008001C003E1
:103BA000C0038001000000000000000000000000D1
:103BB0008001C003C003800100000000000000007D
:103BC00000000000000000000000000000000000F5
:103BD000000000000000000000000000C000C00065
:103BE00000000000000000000000000000000000D5
:103BF00000000000C000C0008000800040004000C5
:103C00000000000000000000000000000020001084
:103C100000080004000600038001C00060003000BE
:103C200018000C00180030006000C0008001000384
:103C30000006000400080010002000000000000042
:103C40000000000000000000000000000000000074
:103C5000000000000000000000000000FE7F0000E7
:103C60000000000000000000FE7F000000000000D7
:103C70000000000000000000000000000000000044
:103C80000000000000000000000000000400080028
:103C9000100020006000C000800100030006000C3E
:103CA000001800300018000C000600038001C0005E
:103CB0006000200010000800040000000000000068
:103CC000000000000000000000000000C0073018E5
:103CD000083008600C601C601C601C600030001C18
:103CE00000060001800080008000800000000000CD
:103CF0008001C003C003800100000000000000003C
:103D00000000000000000000000000000000C007EC
:103D10006018103018200C2F8C4D864CC64CC64CA9
:103D2000664C66446644662666266615CC1C0C40C6
:103D3000082018303018C007000000000000000004
:103D40000000000000000000000000000001C001B1
:103D5000C001C0014001600320032003200330069E
:103D6000100610061006F80F080C080C080C0C0CB6
:103D70000418041806181F7C000000000000000052
:103D80000000000000000000000000000000FE072E
:103D9000181C183818301830183018301818180C2B
:103DA000F807181818301820186018601860186084
:103DB000186018301818FE0F000000000000000006
:103DC0000000000000000000000000000000C0270C
:103DD0006038103018200C400C400400060006002B
:103DE0000600060006000600060006000C400C4017
:103DF0000C2018303018C007000000000000000040
:103E00000000000000000000000000000000FE03B1
:103E1000180E18181830183018301860186018600C
:103E20001860186018601860186018601830183032
:103E300018101818180EFE03000000000000000003
:103E40000000000000000000000000000000FE3F35
:103E50001830182018601840180018081808180C96
:103E6000F80F180C18081808180018001800184047
:103E7000184018201830FE3F00000000000000002D
:103E80000000000000000000000000000000FE7FB5
:103E90001870184018C0188018001810181018183A
:103EA000F81F18181810181018001800180018001B
:103EB0001800180018007E0000000000000000003C
:103EC0000000000000000000000000000000C0131F
:103ED000701C101018100C200C20040006000600A6
:103EE00006000600060006FC063006300C300C30DA
:103EF000183018303008C007000000000000000033
:103F000000000000000000000000000000003F7EF4
:103F10000C180C180C180C180C180C180C180C1881
:103F20000C18FC1F0C180C180C180C180C180C187A
:103F30000C180C180C183F7E000000000000000058
:103F40000000000000000000000000000000F81F5A
:103F50008001800180018001800180018001800159
:103F60008001800180018001800180018001800149
:103F7000800180018001F81F0000000000000000A7
:103F80000000000000000000000000000000E07FD2
:103F900000060006000600060006000600060006F1
:103FA00000060006000600060006000600060006E1
:103FB000000600060006000600060E060E038E012F
:103FC000FC000000000000000000000000007E7CFB
:103FD00018181808180418061802180198019801F2
:103FE000D801B803380318071806180E180C181C47
:103FF0001818183018307EFC000000000000000087
:1040000000000000000000000000000000007E0032
:1040100018001800180018001800180018001800E0
:104020001800180018001800180018001800184090
:10403000184018201830FE3F00000000000000006B
:1040400000000000000000000000000000001FF859
:104050001C381C381C381C3C34343434343434366A
:1040600074326432643264326431C431C431C43174
:10407000C430C43084309FFC000000000000000009
:1040800000000000000000000000000000001F7C95
:104090001C103C103410341074106410E410C41060
:1040A000C41184118413041304170416041E041C81
:1040B000041C041C04181F1800000000000000006D
:1040C0000000000000000000000000000000C0032D
:1040D000300C181808100C300C30066006600660B2
:1040E0000660066006600660066006600C200C3004
:1040F00008101818300CC003000000000000000079
:104100000000000000000000000000000000FE0FA2
:104110001818183018601860186018601860183087
:104120001818F80F180018001800180018001800C8
:104130001800180018007E000000000000000000B9
:104140000000000000000000000000000000C003AC
:10415000300C18180C100C300C200660066006603D
:10416000066006600660066006600660E4612C3347
:104170001C321816300EC007004C007C00380000BE
:104180000000000000000000000000000000FE072A
:10419000181C183818301830183018301818180C27
:1041A000F80798031803180718061806180E180CB5
:1041B000180C181C18187E78000000000000000081
:1041C0000000000000000000000000000000E027E8
:1041D000303818300C200C200C000C00180078002F
:1041E000E003800F001E003800700060046004606F
:1041F000086018303818C80F0000000000000000E8
:104200000000000000000000000000000000FC3F73
:104210008C21846182418241800180018001800182
:104220008001800180018001800180018001800186
:10423000800180018001E007000000000000000014
:1042400000000000000000000000000000003F7CB3
:104250000C100C100C100C100C100C100C100C107E
:104260000C100C100C100C100C100C100C100C106E
:104270000C1008083804E0030000000000000000F3
:1042800000000000000000000000000000003EF8F8
:10429000182018201820301030103010301060080E
:1042A00060086008E00CC004C004C0048003800300
:1042B00080038003000100010000000000000000F6
:1042C0000000000000000000000000000000DFF31C
:1042D0008661862186218C210C218C238C138C13E2
:1042E0008C134C1358125816580E380E380E380EC0
:1042F000300C100410041004000000000000000046
:1043000000000000000000000000000000007E3EF1
:10431000180838083004300470026002E001C0015F
:10432000C001800180034003400720062006100CD6
:10433000100C081808183E7C000000000000000067
:1043400000000000000000000000000000007E7C73
:104350001C10181018083008300C7004600460023B
:10436000C002C002C0018001800180018001800183
:10437000800180018001E0070000000000000000D3
:104380000000000000000000000000000000F83FF6
:1043900018180818040C040E000600070003800318
:1043A0008001C001C000E0006000700030003820D3
:1043B00018201C100C18FE1F000000000000000058
:1043C0000000000000000000C03F4000400040002E
:1043D00040004000400040004000400040004000DD
:1043E00040004000400040004000400040004000CD
:1043F000400040004000400040004000C03F00003E
:10440000000000000000000000000000080018008C
:104410001800100030002000600060004000C00064
:1044200080008001800100010003000200060006F8
:104430000004000C000800180018001000300020D4
:104440000000000000000000FC0300020002000267
:10445000000200020002000200020002000200024C
:10446000000200020002000200020002000200023C
:10447000000200020002000200020002FC03000031
:1044800000000000000000008007C0062008101097
:10449000000000000000000000000000000000001C
:1044A000000000000000000000000000000000000C
:1044B00000000000000000000000000000000000FC
:1044C00000000000000000000000000000000000EC
:1044D00000000000000000000000000000000000DC
:1044E00000000000000000000000000000000000CC
:1044F00000000000000000000000000000000000BC
:10450000FFFF0000000000007800C0000001000074
:10451000000000000000000000000000000000009B
:10452000000000000000000000000000000000008B
:10453000000000000000000000000000000000007B
:10454000000000000000000000000000000000006B
:10455000000000000000000000000000F00318064A
:104560000C0C0C0C000C800F700C1C0C0C0C060CB2
:10457000060C064C0C4FF83800000000000000004C
:1045800000000000000000000000000010001E00FD
:10459000180018001800180018001800180FD81874
:1045A000383038601860186018601860186018603B
:1045B000182038307818C8070000000000000000FC
:1045C00000000000000000000000000000000000EB
:1045D000000000000000000000000000C007700C98
:1045E000181818180C180C000C000C000C000C20EB
:1045F000182018103008C00700000000000000005C
:104600000000000000000000000000000010001E7C
:10461000001800180018001800180018E01B301CC3
:10462000181818180C180C180C180C180C180C1852
:104630000818181C307AE009000000000000000093
:10464000000000000000000000000000000000006A
:10465000000000000000000000000000C007300C57
:10466000181808100C300C30FC3F0C000C000C002B
:10467000182018107018C00700000000000000008B
:104680000000000000000000000000000000003EEC
:1046900080C380C0C0C0C000C000C000FC1FC000FC
:1046A000C000C000C000C000C000C000C000C0000A
:1046B000C000C000C000F80F0000000000000000B3
:1046C00000000000000000000000000000000000EA
:1046D000000000000000000000000000C077306C07
:1046E00010181818181818181018300CF00718009F
:1046F0001800F00FF03F08700C600C600C60383848
:10470000E00F0000000000000000000010001E008C
:10471000180018001800180018001800980FD81872
:104720003830183018301830183018301830183029
:104730001830183018307EFC000000000000000027
:1047400000000000000000000000000000008003E6
:10475000800380030000000000000001F8018001D8
:104760008001800180018001800180018001800141
:10477000800180018001F81F00000000000000009F
:1047800000000000000000000000000000000038F1
:10479000003800380000000000000010801F0018E2
:1047A0000018001800180018001800180018001849
:1047B000001800180018001800180018180C180627
:1047C000F0030000000000000000000010001E00C8
:1047D000180018001800180018001800183E180CCF
:1047E0001806180318019801D8013803180718068D
:1047F000180C181C18187E7C000000000000000037
:104800000000000000000000000000000001F801AE
:104810008001800180018001800180018001800190
:104820008001800180018001800180018001800180
:10483000800180018001F81F0000000000000000DE
:104840000000000000000000000000000000000068
:10485000000000000000000000000800EE1C9C3377
:104860008C318C318C318C318C318C318C318C3160
:104870008C318C318C31DE7B0000000000000000A8
:104880000000000000000000000000000000000028
:104890000000000000000000000010001E0FD818EB
:1048A00038301830183018301830183018301830A8
:1048B0001830183018307EFC0000000000000000A6
:1048C00000000000000000000000000000000000E8
:1048D000000000000000000000000000C007701C85
:1048E000103018300C600C600C600C600C600C60B8
:1048F000183018303018C007000000000000000019
:1049000000000000000000000000000000000000A7
:104910000000000000000000000010009E0F58186A
:104920003830182018601860186018601860186017
:104930001830383078189807180018001800180038
:104940007E000000000000000000000000000000E9
:10495000000000000000000000000000C023303C08
:10496000183818300C300C300C300C300C300C3047
:1049700008301838303CE033003000300030003070
:1049800000FC00000000000000000000000000002B
:104990000000000000000000000060007E3C606637
:1049A0006061E000E00060006000600060006000A6
:1049B000600060006000FE070000000000000000D2
:1049C00000000000000000000000000000000000E7
:1049D000000000000000000000000000E027303868
:1049E0001830182018007000E003800F001C0430FD
:1049F00004300C301C18EC0F000000000000000018
:104A000000000000000000000000000000000000A6
:104A10000000800080008000C000E000FC1FC0009B
:104A2000C000C000C000C000C000C000C000C00086
:104A3000C020C0208011000F000000000000000016
:104A40000000000000000000000000000000000066
:104A50000000000000000000000010201E3C183084
:104A60001830183018301830183018301830183006
:104A70001830183830F4E013000000000000000087
:104A80000000000000000000000000000000000026
:104A90000000000000000000000000007E3C18182C
:104AA0001808380830043004700260026002E00127
:104AB000C001C001C0008000000000000000000034
:104AC00000000000000000000000000000000000E6
:104AD000000000000000000000000000DFF78E630F
:104AE0000C238C238C239813981358165816700E89
:104AF000700E700E20042004000000000000000072
:104B000000000000000000000000000000000000A5
:104B1000000000000000000000000000FC3E7008E3
:104B20007004E004C002C0018003800340076006F7
:104B3000200C100C18183E7E000000000000000041
:104B40000000000000000000000000000000000065
:104B50000000000000000000000000007E7C18182B
:104B6000180830083008300460046004C002C00235
:104B7000C0028001800180018000800080004C0024
:104B80003C000000000000000000000000000000E9
:104B9000000000000000000000000000FC1F0C0CE2
:104BA000040E0406000380038001C000E0007020B2
:104BB000302038301C18FC1F0000000000000000EE
:104BC00000000000000000000030000800040004A5
:104BD00000040004000400040004000400040004B5
:104BE000000280010002000400040004000400042C
:104BF0000004000400040004000400040008003065
:104C0000000000010001000100010001000100019D
:104C1000000100010001000100010001000100018C
:104C2000000100010001000100010001000100017C
:104C3000000100010001000100010001000100016C
:104C400000010000000000000C0010002000200007
:104C50002000200020002000200020002000200054
:104C600040008001400020002000200020002000A3
:104C700020002000200020002000200010000C0058
:104C8000000000003800C400864002610022001CC1
:104C90000000000000000000000000000000000014
:104CA0000000000000000000000000000000000004
:104CB00000000000000000000000000000000000F4
:104CC0000000800000010001FC3F0400040004001B
:104CD00004000400040004000400040002000200B8
:104CE0000100082008210821082108212A254A2935
:104CF0004A29092108210821082104210421022030
:104D000001204000FC1F9414A412F417C411A41233
:104D10009414FC1F0000FF7F0800F81F0010000A19
:104D20000004800084108410FC1F00044404447CB0
:104D3000FF42442944087C08440844147C1444225B
:104D400000410000C41F48104810C11F421042100B
:104D5000C81F0800E43F2725242524252425F47FA7
:104D600000000000FE3F0008F80908090809F809DA
:104D70000000FF7F0008F80908090809F809000A7F
:104D800000040000000008000030000030000010A7
:104D900010F0FF3F10000010000010000010000095
:104DA00010000010000010000010000010000010A3
:104DB00000001800000800000800000800000400BF
:104DC00000040000020000000000000000000000DD
:104DD000000008C00018C0200840200840200840FB
:104DE000200840200840A20848220948240B4C24EF
:104DF0000B4C240840200840200860200820200890
:104E000020200810200810200808000804001802BC
:104E10000000000000000400000200F0FF0F3088D6
:104E20000430C90430AA04B0FF05301E0430EA047F
:104E3000308905F00805F0FF07300004000010FE7F
:104E4000FF3F00010080FF07800006000006000011
:104E50000200E003008001000000000000001800D4
:104E600030080C10080C10080CF0FF0F10000C108C
:104E7000820030860010C200FEDF3F104210102278
:104E800009109209F093011082021082021082022E
:104E9000104204F0630C103218100A700004000075
:104EA000000000000000000008000430FE0720029F
:104EB0000400020480FE078202044C02044802043B
:104EC00048FE0720020420000020FF1F2091081048
:104ED00091081E91081891081891081891081891C6
:104EE00028F8FF7F00000000000000000000000024
:104EF000000008FCFF1F000002C03F0240100240FB
:104F00001002C01F02401002000002FCFF3F000020
:104F100002000002E03F02601002601002E01F0287
:104F200060100220000200000200C0030000010027
:104F30000000000000000000000000800000008071
:104F4000010000000300000003082000021CE0FF35
:104F5000FF3F600000006000000060000000600093
:104F600000006000000060000000600000006000C1
:104F700000006000000060000000600000006000B1
:104F80000000600000002000000020000000300051
:104F900000003000000010000000180000000800B1
:104FA00000000400000004000000020000000000F7
:104FB00000000000000000000000000000020003EC
:104FC000000C0007060400030604000306040003A7
:104FD000060400030604000306040003060420037D
:104FE00016042013260430336604306366043063ED
:104FF000C604186346041C2106040001060480014F
:105000000604800106048001060480000604C00036
:105010000604C000060460000604200006043000F8
:105020000004180000040C0000040200000200004C
:1050300000000000000000000000002000000060F0
:10504000000000100001C0FFFF07C0000003C08C7B
:105050001103C0981803C0900C03C0903603C0FE23
:105060007F03C0E00103C0B00E03C0983803C084C2
:105070003003C0822003C0FFFF03C000000900000E
:10508000001CFEFFFF3F00180000000C000100FEA6
:10509000FF03000480030000800100008001000085
:1050A000C0000000FE00000078000000300000009A
:1050B00000000000000000000000008000002080D0
:1050C0000101E080010660800102608001026080D1
:1050D0000102E0FFFF034000100220103000E0302A
:1050E00030006030180060B01808FCFFFB1F603013
:1050F0000C186030040C6030660460306202E03FDF
:105100007100603070006030B0006030B00060301E
:1051100098006030180160300C03E03F04066030F6
:10512000060E6030017C60C00018003000000000F6
:10513000000000000000000000000000000030102F
:10514000000160F0FF03C0300001C03000010034F6
:1051500000010032000100F2FF01003200010C32B8
:105160000001183100013031000110F1FF018030E1
:1051700000018010000080000000C004000440FC1A
:10518000FF0F408C3106608C31067C8C3106708CB0
:105190003106308C3106308C3106308C3106308C43
:1051A0003106308C3136B0FFFF3F000000000000B8
:1051B00000000000000000000000000000000000EF
:1051C0000004F8FFFF0F0000C0000000C10000FF56
:1051D000C3000003C3000003C1000003C1000003BB
:1051E000C10000FFC1000003C1008000C018FCFF27
:1051F000FF3F00008000000080000000810080FF71
:105200008300800183008001810080018100800192
:10521000810080FF81008001810080018100000009
:1052200080000000FC000000E000000040000000E2
:105230000000FFFFFFFFFFFFFFFFFFFFFFFFFFFF7C
:10524000FFFFFFFFFFFFFFFFFFFFFFFFFFFFFFFF6E
:10525000FFFFFFFFFFFFFFFFFFFFFFFFFFFFFFFF5E
:10526000FFFFFFFFFFFFFFFFFFFFFFFFFFFFFFFF4E
:10527000FFFFFFFFFFFFFFFFFFFFFFFFFFFFFFFF3E
:10528000FFFFFFFFFFFFFFFFFFFFFFFFFFFFFFFF2E
:10529000FFFFFFDFFFFFFFFFFFFFFFFFFFFFFFFF3E
:1052A000FFDFFFDFF7BEF7BEF7BEF7BEF7BEF7BE04
:1052B000FFDFFFDFFFFFFFFFFFFFFFFFFFFFFFFF3E
:1052C000FFFFFFDFFFFFFFFFFFFFFFFFFFFFFFFF0E
:1052D000FFFFFFFFFFFFFFFFFFFFFFFFFFFFFFFFDE
:1052E000FFFFFFFFFFFFFFFFFFFFFFFFFFFFFFFFCE
:1052F000FFFFFFFFFFFFFFFFFFFFFFFFFFFFFFFFBE
:10530000FFFFFFFFFFFFFFFFFFFFFFFFFFFFFFFFAD
:10531000FFFFFFFFFFFFFFFFFFFFFFFFFFFFFFFF9D
:10532000FFFFFFFFFFFFFFFFFFFFFFFFFFFFFFFF8D
:10533000FFFFFFFFFFFFFFFFFFFFFFFFFFFFFFFF7D
:10534000FFFFFFFFFFFFFFFFFFFFFFFFFFFFFFFF6D
:10535000FFFFFFFFFFFFFFFFFFFFFFFFFFFFFFFF5D
:10536000FFFFFFFFFFFFFFFFFFFFFFFFFFFFFFFF4D
:10537000FFFFFFFFFFFFFFFFFFFFFFDFFFFFFFFF5D
:10538000FFFFF7BEDEFBC6388410AD55EF7DFFDFB3
:10539000FFFFFFFFFFFFFFFFFFFFFFFFFFFFFFFF1D
:1053A000FFFFFFFFF7BEDEFB94927BCFA534DEDB71
:1053B000EF7DFFFFFFFFFFFFFFFFFFFFFFFFFFFF8F
:1053C000FFFFFFFFFFFFFFFFFFFFFFFFFFFFFFFFED
:1053D000FFFFFFFFFFFFFFFFFFFFFFFFFFFFFFFFDD
:1053E000FFFFFFFFFFFFFFFFFFFFFFFFFFFFFFFFCD
:1053F000FFFFFFFFFFFFFFFFFFFFFFFFFFFFFFFFBD
:10540000FFFFFFFFFFFFFFFFFFFFFFFFFFFFFFFFAC
:10541000FFFFFFFFFFFFFFFFFFFFFFFFFFFFFFFF9C
:10542000FFFFFFFFFFFFFFFFFFFFFFFFFFFFFFFF8C
:10543000FFFFFFFFFFFFFFFFFFFFFFFFFFFFFFFF7C
:10544000FFFFFFFFFFFFFFFFFFFFFFFFFFFFFFFF6C
:10545000FFFFFFFFFFFFFFFFFFFFFFFFFFFFFFFF5C
:10546000FFFFFFFFFFDFFFFFFFFFF7BEC638A514FA
:10547000E71CFFFFF7BEC618B5967BCF4A694A699D
:105480004A694A694A694A694A694A694A694A6984
:105490004A694A694A698410B5B6CE59FFDFFFFFF1
:1054A000FFFFCE598C71AD55E71CFFFFFFFFFFFFDB
:1054B000FFFFFFFFFFFFFFFFFFFFFFFFFFFFFFFFFC
:1054C000FFFFFFFFFFFFFFFFFFFFFFFFFFFFFFFFEC
:1054D000FFFFFFFFFFFFFFFFFFFFFFFFFFFFFFFFDC
:1054E000FFFFFFFFFFFFFFFFFFFFFFFFFFFFFFFFCC
:1054F000FFFFFFFFFFFFFFFFFFFFFFFFFFFFFFFFBC
:10550000FFFFFFFFFFFFFFFFFFFFFFFFFFFFFFFFAB
:10551000FFFFFFFFFFFFFFFFFFFFFFFFFFFFFFFF9B
:10552000FFFFFFFFFFFFFFFFFFFFFFFFFFFFFFFF8B
:10553000FFFFFFFFFFFFFFFFFFFFFFFFFFFFFFFF7B
:10554000FFFFFFFFFFFFFFFFFFFFFFFFFFFFFFFF6B
:10555000FFFFFFFFEF7DBDF7D69AFFFFC63884300F
:105560004A694A694A694A694A694A694A694A69A3
:105570004A694A69632C7BEF84308C5184107BCF5D
:105580005ACB4A694A694A694A694A694A694A6911
:10559000528A8C51DEDBFFFFFFFFC6188410C6382D
:1055A000FFFFFFFFFFFFFFDFFFFFFFFFFFFFFFFF2B
:1055B000FFFFFFFFFFFFFFFFFFFFFFFFFFFFFFFFFB
:1055C000FFFFFFFFFFFFFFFFFFFFFFFFFFFFFFFFEB
:1055D000FFFFFFFFFFFFFFFFFFFFFFFFFFFFFFFFDB
:1055E000FFFFFFFFFFFFFFFFFFFFFFFFFFFFFFFFCB
:1055F000FFFFFFFFFFFFFFFFFFFFFFFFFFFFFFFFBB
:10560000FFFFFFFFFFFFFFFFFFFFFFFFFFFFFFFFAA
:10561000FFFFFFFFFFFFFFFFFFFFFFFFFFFFFFFF9A
:10562000FFFFFFFFFFFFFFFFFFFFFFFFFFFFFFFF8A
:10563000FFFFFFFFFFFFFFFFFFFFFFFFFFFFFFDF9A
:105640009CF3E73CF7BE7BEF52AA4A694A694A6974
:105650004A694A69632CC638E71CF7BEFFFFFFFFA3
:10566000FFFFFFDFF79EF7BEF7BEF7BEF7BEF7BE40
:10567000FFFFFFFFFFFFFFFFFFFFEF7DDEDB9CF380
:105680005ACB4A694A694A695AEB9CD3FFFFFFFF2C
:10569000DEDB73AEEF5DFFFFFFFFFFDFFFFFFFFF0E
:1056A000FFFFFFFFFFFFFFFFFFFFFFFFFFFFFFFF0A
:1056B000FFFFFFFFFFFFFFFFFFFFFFFFFFFFFFFFFA
:1056C000FFFFFFFFFFFFFFFFFFFFFFFFFFFFFFFFEA
:1056D000FFFFFFFFFFFFFFFFFFFFFFFFFFFFFFFFDA
:1056E000FFFFFFFFFFFFFFFFFFFFFFFFFFFFFFFFCA
:1056F000FFFFFFFFFFFFFFFFFFFFFFFFFFFFFFFFBA
:10570000FFFFFFFFFFFFFFFFFFFFFFFFFFFFFFFFA9
:10571000FFFFFFFFFFFFFFFFFFFFFFFFFFFFFFFF99
:10572000FFFFFFFFFFFFFFFFFFFFDEFBCE79FFFF65
:105730008C71528A4A694A694A694A6973AEEF7D37
:10574000FFFFFFDFF7BEFFFFFFFFFFFFFFFFFFFFD2
:10575000FFFFFFFFFFFFFFFFFFFFFFFFFFFFFFFF59
:10576000FFFFFFFFFFFFFFFFFFFFFFFFFFDFF7BEB2
:10577000FFFFFFFFFFDFC6385ACB4A694A69528AEA
:10578000B5B6FFFFFFDF94B2B596FFFFFFFFFFDF67
:10579000FFFFFFFFFFFFFFFFFFFFFFFFFFFFFFFF19
:1057A000FFFFFFFFFFFFFFFFFFFFFFFFFFFFFFFF09
:1057B000FFFFFFFFFFFFFFFFFFFFFFFFFFFFFFFFF9
:1057C000FFFFFFFFFFFFFFFFFFFFFFFFFFFFFFFFE9
:1057D000FFFFFFFFFFFFFFFFFFFFFFFFFFFFFFFFD9
:1057E000FFFFFFFFFFFFFFFFFFFFFFFFFFFFFFFFC9
:1057F000FFFFFFFFFFFFFFFFFFFFFFFFFFFFFFFFB9
:10580000FFFFFFFFFFFFFFFFFFFFFFFFFFFFFFFFA8
:10581000FFFFFFFFFFFFCE59F79EEF7D4A694A6900
:105820004A694A69528A94B2FFFFFFFFF7BEFFFF41
:10583000FFFFFFFFFFFFF7BECE798C71630C4A6953
:105840004A694A694A694A694A694A694A694A69C0
:105850004A695AEB8C51C618F7BEFFDFFFFFFFFF06
:10586000FFFFFFFFFFFFF7BEFFFFFFFFEF5D5AEBFC
:105870004A694A69632CF7BEFFFFC6188C71FFFFA7
:10588000FFFFFFFFFFFFFFFFFFFFFFFFFFFFFFFF28
:10589000FFFFFFFFFFFFFFFFFFFFFFFFFFFFFFFF18
:1058A000FFFFFFFFFFFFFFFFFFFFFFFFFFFFFFFF08
:1058B000FFFFFFFFFFFFFFFFFFFFFFFFFFFFFFFFF8
:1058C000FFFFFFFFFFFFFFFFFFFFFFFFFFFFFFFFE8
:1058D000FFFFFFFFFFFFFFFFFFFFFFFFFFFFFFFFD8
:1058E000FFFFFFFFFFFFFFFFFFFFFFFFFFFFFFFFC8
:1058F000FFFFFFFFFFFFFFFFFFFFFFFFFFFFFFFFB8
:10590000FFFFD6BAEF7DCE594A694A694A694A69AA
:10591000738EF79EFFFFFFDFFFFFFFFFEF7DC638AF
:10592000630C4A694A694A694A694A694A694A6923
:105930004A694A694A694A694A694A694A694A69CF
:105940004A694A694A694A694A694A694A695ACB4D
:10595000B5B6EF5DFFFFFFFFFFFFFFFFF7BEFFFFE5
:10596000FFFFC6385ACB4A6952AAE73CFFFFC61868
:105970009CD3FFFFFFFFFFDFFFFFFFFFFFFFFFFFE6
:10598000FFFFFFFFFFFFFFFFFFFFFFFFFFFFFFFF27
:10599000FFFFFFFFFFFFFFFFFFFFFFFFFFFFFFFF17
:1059A000FFFFFFFFFFFFFFFFFFFFFFFFFFFFFFFF07
:1059B000FFFFFFFFFFFFFFFFFFFFFFFFFFFFFFFFF7
:1059C000FFFFFFFFFFFFFFFFFFFFFFFFFFFFFFFFE7
:1059D000FFFFFFFFFFFFFFFFFFFFFFFFFFFFFFFFD7
:1059E000FFFFFFFFFFFFFFFFFFFFFFDFFFFFDEDB2C
:1059F000DEDBC6184A694A694A694A699CD3FFDFF7
:105A0000F7BEFFFFFFFFD69A7BCF4A694A694A6912
:105A10004A694A694A694A694A694A694A694A69EE
:105A20004A694A694A694A694A694A694A694A69DE
:105A30004A694A694A694A694A694A694A694A69CE
:105A40004A694A694A69632CCE59FFFFFFFFFFFF8D
:105A5000FFFFFFDFFFFFF7BE73AE4A6952AAE71CE4
:105A6000FFFFA514BDF7FFFFFFFFFFFFFFFFFFFFD5
:105A7000FFFFFFFFFFFFFFFFFFFFFFFFFFFFFFFF36
:105A8000FFFFFFFFFFFFFFFFFFFFFFFFFFFFFFFF26
:105A9000FFFFFFFFFFFFFFFFFFFFFFFFFFFFFFFF16
:105AA000FFFFFFFFFFFFFFFFFFFFFFFFFFFFFFFF06
:105AB000FFFFFFFFFFFFFFFFFFFFFFFFFFFFFFFFF6
:105AC000FFFFFFFFFFFFFFFFFFFFFFFFFFFFFFFFE6
:105AD000FFFFFFFFFFFFFFFFFFFFFFFFC638DEFBFB
