:020000040800F2
:100000008006002039020008DF0C0008B506000851
:10001000DB0C00084F0500087D13000800000000FD
:10002000000000000000000000000000C50E0008F5
:1000300053050008000000006D0D0008B50F000812
:10004000530200085302000853020008530200083C
:10005000530200085302000853020008530200082C
:10006000530200085302000853020008530200081C
:10007000530200085302000853020008530200080C
:1000800053020008530200085302000853020008FC
:1000900053020008530200085302000853020008EC
:1000A00053020008530200085302000853020008DC
:1000B00053020008530200085302000853020008CC
:1000C00053020008530200085302000853020008BC
:1000D0005302000891100008530200085302000860
:1000E000530200085302000853020008530200089C
:1000F00021100008530200085302000853020008B0
:10010000530200085302000853020008530200087B
:10011000530200085302000853020008530200086B
:10012000530200085302000853020008530200085B
:10013000530200085302000853020008530200084B
:10014000530200085302000853020008530200083B
:10015000530200085302000853020008530200082B
:10016000530200085302000853020008530200081B
:10017000530200085302000853020008530200080B
:10018000530200085302000800F002F800F044F89F
:100190000AA090E8000C82448344AAF10107DA45E2
:1001A00001D100F039F8AFF2090EBAE80F0013F0F0
:1001B000010F18BFFB1A43F001031847EC190000A8
:1001C0000C1A0000103A24BF78C878C1FAD8520738
:1001D00024BF30C830C144BF04680C6070470000C1
:1001E0000023002400250026103A28BF78C1FBD840
:1001F000520728BF30C148BF0B607047642900F028
:100200007B80782900F0B480002070471FB501F092
:10021000ADFC1FBD10B510BD00F060F91146FFF731
:10022000F5FF01F0BFF800F07EF903B4FFF7F2FF2D
:1002300003BC00F085F900000948804709480047E1
:10024000FEE7FEE7FEE7FEE7FEE7FEE7FEE7FEE786
:10025000FEE7FEE704480549054A064B70470000E3
:10026000B90F0008890100088000002080060020E6
:1002700080020020800200200FB4044910B503AAB8
:10028000029800F0FDF810BC5DF814FB100000208F
:100290002DE9F0410E460446002020622046E16828
:1002A000884730B3252805D0D4E901219047206A3A
:1002B000401CF2E7E168204600278847050018D077
:1002C000A5F14100192802D820354FF400673246C5
:1002D000294620462760FFF791FF40B1012804D04E
:1002E000F61D26F007060836D8E7361DD6E728465D
:1002F000DAE7206ABDE8F0812DE9F04106460024E6
:1003000010687529314616A510D0AFF3008000287B
:1003100002DA404213A507E031688A0701D512A529
:1003200002E0490704D511A5012401E0AFF30080E4
:1003300000210A2206F1240709E0B0FBF2FCB0FB21
:10034000F2F302FB1C00303078541846491C002898
:10035000F3D123462A463046BDE8F04100F037B8D5
:10036000000000002D0000002B0000002000000015
:1003700070B504460D4621461068AFF30080218811
:10038000090502D50F4A7A4402E00E4A7A440E3239
:10039000002104F1240305E000F00F060009965D3A
:1003A0005E54491C0028F7D120780023000704D5AB
:1003B000702D02D009B1022311322046BDE87040F1
:1003C00000F005B8F61700007047704770472DE938
:1003D000F0470D4699469246044600F1240801680C
:1003E000880604D5E06921F01001216000E00120B9
:1003F000A84201DD471B00E00027A1697A1902EB42
:100400000900081AA0612078C00602D42046AFF384
:100410000080002608E0D4E901211AF80600904780
:10042000206A401C761C20624E45F4DB2078C00612
:100430000AD52046AFF3008006E0D4E90121302040
:100440009047206A401C2062381EA7F10107F4DCA7
:1004500007E0D4E9012118F805009047206A401C04
:100460002062281EA5F10105F3DC2046AFF30080D1
:100470002078000602D50220BDE8F0870120FBE7C6
:10048000074B70B50D467B4400F011F80446284632
:1004900000F020F810B14FF0FF3070BD204670BD65
:1004A000F70E000001694A1C02610878704700B528
:1004B0008FB0CDE901310021059105497944CDE99D
:1004C000031011466846FFF7E3FE0FB000BD0000C1
:1004D000E5FFFFFF007B00F080007047754600F0ED
:1004E0002BF8AE4605006946534620F007008546C6
:1004F00018B020B5FFF7AEFEBDE820404FF0000673
:100500004FF000074FF000084FF0000B21F00701FB
:10051000AC46ACE8C009ACE8C009ACE8C009ACE83E
:10052000C0098D46704710B50446AFF300802046E1
:10053000BDE81040FFF779BE004870471C0000205E
:1005400001491820ABBEFEE726000200704700BF3D
:10055000FEE7704712E000214FF0E022116145F202
:1005600007215161002191610121116100BF4FF00C
:10057000E021096901F480310029F8D0011EA0F1C1
:100580000100E8D14FF0E0221161704711E0002135
:100590004FF0E0221161142151610021916101218C
:1005A000116100BF4FF0E021096901F48031002999
:1005B000F8D0011EA0F10100E9D14FF0E022116155
:1005C0007047F0B50A4600210023002400BF3DE03B
:1005D000012505FA01F3156805EA03049C4234D1AC
:1005E00005684F000326BE40B543056015794E00EF
:1005F000B5400668354305601579012D02D015799F
:10060000022D16D185684F000326BE40B543856094
:1006100055794E00B54086683543856045680126AA
:100620008E40B5434560456896798E40B6B23543F5
:100630004560C5684F000326BE40B543C560D57907
:100640004E00B540C6683543C560491C1029BFD36C
:10065000F0BDF0B5002300244D07ED0E02FA05F3BE
:10066000CE1000F1200555F826504E07F70E0F2644
:10067000BE40B543CF1000F1200646F82750CE10FB
:1006800000F1200555F8265045EA0304CE1000F18C
:10069000200545F82640F0BD0246002013690B40B6
:1006A0000BB1012000E0002070470AB1018300E097
:1006B0004183704700BFFEE71CB50121042000F014
:1006C00057FB01208DF8040003208DF80500012060
:1006D0008DF8060000208DF807004FF42070009080
:1006E00069460748FFF76DFF012280210448FFF7A4
:1006F000DCFF012251020248FFF7D7FF1CBD0000BA
:100700000008024070B505460026002000F0C4FB3A
:1007100007241DE000224FF400711348FFF7C5FFC6
:100720000520FFF733FF012251020F48FFF7BDFFFD
:100730000520FFF72BFF80210B48FFF7ADFF18B115
:100740000120A0403043C6B20520FFF71FFF641E02
:10075000002CDFDA1DB1012000F008F802E00020D3
:1007600000F004F8304670BD0008024010B50446A1
:1007700000224FF400711348FFF797FF012000F0AB
:100780008BFB2CB1012280210E48FFF78EFF04E085
:10079000002280210B48FFF788FF0520FFF7F6FEB7
:1007A000012251020748FFF780FF0520FFF7EEFE08
:1007B00000224FF400710348FFF777FF0520FFF791
:1007C000E5FE10BD0008024070B50546012000F0AE
:1007D00063FB00224FF400711748FFF766FF052006
:1007E000FFF7D4FE072424E00120A040284028B1D0
:1007F000012280211048FFF758FF04E000228021E9
:100800000D48FFF752FF0520FFF7C0FE01225102FD
:100810000948FFF74AFF0520FFF7B8FE00224FF412
:1008200000710548FFF741FF0520FFF7AFFE601E8E
:1008300044B2002CD8DA70BD0008024010B5012087
:1008400000F02AFB012280210E48FFF72EFF012233
:1008500051020C48FFF729FF0520FFF797FE002201
:1008600080210848FFF721FF0520FFF78FFE0022B7
:100870004FF400710348FFF718FF0520FFF786FECD
:1008800010BD00000008024010B5012000F004FB7C
:10089000002280210C48FFF708FF00224FF400716E
:1008A0000948FFF702FF0520FFF770FE0122510201
:1008B0000548FFF7FAFE012280210348FFF7F5FE05
:1008C0000520FFF763FE10BD0008024010B50024AC
:1008D000002000F0E1FA00224FF400711348FFF706
:1008E000E4FE0520FFF752FE012251020F48FFF7F8
:1008F000DCFE0520FFF74AFE07E0601CC4B2FA2CBC
:1009000003DDFFF7C1FF012010BD80210748FFF77D
:10091000C3FE0028F1D100224FF400710348FFF715
:10092000C4FE0520FFF732FE0020EDE7000802407C
:100930002DE9FE4304460D4617461E46DDE90A89A9
:10094000200A8DF80000E0B28DF80100280A8DF829
:100950000200E8B28DF80300380A8DF80400F8B2FE
:100960008DF80500300A8DF80600F0B28DF807000A
:100970004FEA18208DF8080008F0FF008DF80900F4
:100980004FEA19208DF80A0009F0FF008DF80B00DE
:100990000C226946A12000F06AFCBDE8FE832DE927
:1009A000FC4104460D4616466B4606223B21682054
:1009B00000F0EDF80746BFB99DF801009DF8001062
:1009C00040EA012000B220809DF803009DF802104B
:1009D00040EA012000B228809DF805009DF804102F
:1009E00040EA012000B230803846BDE8FC812DE9A4
:1009F000FC4104460D4616466B46062243216820FC
:100A000000F0C5F80746BFB99DF801009DF8001039
:100A100040EA012000B220809DF803009DF80210FA
:100A200040EA012000B228809DF805009DF80410DE
:100A300040EA012000B230803846BDE8FC81000069
:100A400010B52DED088B82B001AB02224121682048
:100A500000F09DF89DF805009DF8041040EA012083
:100A600004B2204600F02CFF41EC1B0B9FED100B55
:100A700053EC102B00F0CCFD41EC1A0B9FED0E0B4C
:100A800053EC102B00F01CFD41EC190B00F0E6FCC0
:100A900008EE100A9FED0A0A28EE000ABDEEC00A11
:100AA00010EE100A00B202B0BDEC088B10BD0000C1
:100AB0000000000000407540A4703D0AD74342404A
:100AC0000000C84210B5FFF7F7FD80216B2000F051
:100AD000E2F86420FFF73EFD00216B2000F0DBF818
:100AE000032000F096F8002000F08BF8322000F090
:100AF000B5F80021382000F0CEF800216A2000F07F
:100B0000CAF80021232000F0C6F88021372000F029
:100B1000C2F8752000F01EF8044621460AA0FFF72F
:100B2000ABFB682C0BD101216B2000F0B4F8002145
:100B30006C2000F0B0F8322000F090F801E00120C5
:100B400010BD0020FCE700005245533D25580D0A1A
:100B50000000000070B50446FFF770FED020FFF7DC
:100B600033FEFFF7B3FE2046FFF72EFEFFF7AEFE83
:100B7000FFF764FED120FFF727FEFFF7A7FE012055
:100B8000FFF7C0FD0546FFF77FFE284670BD2DE943
:100B9000F04106460F4614461D46FFF74FFE002162
:100BA00041EA4601C8B2FFF70FFEFFF78FFE20B102
:100BB000FFF76AFE0120BDE8F0813846FFF704FE2A
:100BC000FFF784FEFFF73AFE012101EB4601C8B2B0
:100BD000FFF7FAFDFFF77AFE0DE0012C04D10120AA
:100BE000FFF790FD287003E00020FFF78BFD2870D1
:100BF000601EC4B26D1C002CEFD1FFF745FE002033
:100C0000D9E710B50446E006010E1C2000F043F8B9
:100C100010BD10B50446E006010E1B2000F03BF8A5
:100C200010BD70B504460025BC2C01DB012510E089
:100C3000622C01DB02250CE02A2C01DB032508E0F5
:100C4000142C01DB042504E00A2C01DB052500E05F
:100C5000062529461A2000F01EF870BD70B504461E
:100C6000B4F57A7F01DD4FF47A74042C00DA0424A1
:100C70004FF47A7090FBF4F0401EC5B2294619205B
:100C800000F009F80546264604EBD671C1F34F0083
:100C9000FFF7C7FF70BD70B505460C46FFF7CEFDE8
:100CA000D020FFF791FDFFF711FE18B1FFF7ECFD23
:100CB000012070BD2846FFF787FDFFF707FE20469D
:100CC000FFF782FDFFF702FE18B1FFF7DDFD0120FF
:100CD000EFE7FFF7D9FD0020EBE700BFFEE7704725
:100CE00070B5002100230F22C4781CB3174C246870
:100CF00004F4E064C4F5E064C4F30721C1F1040422
:100D0000E3B20A4144789C40E1B284781440214324
:100D10000C07210E0E4C05786155047804F01F0570
:100D20000124AC4005786D11AD0005F1E025C5F852
:100D3000004109E0047804F01F050124AC40054D92
:100D40000678761145F8264070BD00000CED00E0F5
:100D500000E400E080E100E002490143024A116042
:100D6000704700000000FA050CED00E0704700003D
:100D700029B1064A12680243044B1A6004E0034A90
:100D800012688243014B1A607047000030380240FD
:100D900029B1064A12680243044B1A6004E0034A70
:100DA00012688243014B1A607047000044380240C9
:100DB000F0B5002100220024022500260223324F34
:100DC0003F6807F00C0121B1042905D0082937D16B
:100DD00005E02E4F076036E02D4F076033E02A4FC5
:100DE0003F1F3F68C7F38056274F3F1F3F6807F0FC
:100DF0003F036EB1264FB7FBF3F7DFF88CC0ACF1C1
:100E0000040CDCF800C0CCF3881C07FB0CF40CE0ED
:100E10001E4FB7FBF3F7DFF870C0ACF1040CDCF841
:100E200000C0CCF3881C07FB0CF4174F3F1F3F6832
:100E3000C7F301477F1C7D00B4FBF5F7076002E0B4
:100E4000124F076000BF00BF0F4F3F6807F0F0016F
:100E50000909104F7A5C0768D74047600A4F3F681E
:100E600007F4E051890A0B4F7A5C4768D7408760E6
:100E7000054F3F6807F46041490B064F7A5C4768AD
:100E8000D740C760F0BD0000083802400024F400DD
:100E900000127A00000000201CB504468DF80440C2
:100EA00003208DF8050001208DF8060000208DF844
:100EB00007008020009069460148FFF782FB1CBDB7
:100EC00000080240704700000CB50020019000901F
:100ED0003448006840F480303249086000BF31482F
:100EE000006800F4003000900198401C01900098C8
:100EF00018B90198B0F5A04FF1D12A48006800F464
:100F0000003010B10120009001E000200090009816
:100F1000012846D123484030006840F080502149E4
:100F2000403108602048006840F440401E49086095
:100F30001C48083000681B490831086008460068F2
:100F400040F4004008600846006840F4A050086083
:100F50001648091F0860081F006840F08070091FCC
:100F6000086000BF0F48006800F000700028F9D04A
:100F700040F205700E4908600A480830006820F009
:100F800003000849083108600846006840F0020084
:100F9000086000BF03480830006800F00C00082813
:100FA000F8D10CBD003802400070004008544007E2
:100FB000003C02407047000010B51548006840F43E
:100FC0007000134908601348006840F0010011499F
:100FD000086000200F49083108600E4800680E497B
:100FE00008400C4908600D48091D0860081F00688A
:100FF00020F48020091F0860002006490C31086099
:10100000FFF762FF4FF0006001498039086010BDB2
:1010100088ED00E000380240FFFFF6FE10300024AB
:1010200010B502210C4800F021F8012808D10A4827
:1010300000F019F8094908600221074800F010F88B
:101040000121054800F012F8012803D101210248CE
:1010500000F006F810BD0000001C00401800002041
:10106000CA43028270470146486B704730B502465A
:10107000002000230024158A05EA0103958905EA6A
:10108000010413B10CB1012000E0002030BD0000CC
:1010900010B540F22551074800F027F8012807D184
:1010A000044800F0DBF8C4B22146024800F0DBF847
:1010B00010BD00000010014021B1828942F40052AD
:1010C000828104E082894DF6FF731A408281704765
:1010D00002460020B1F5007F00D100BF13880B400D
:1010E0000BB1012000E00020704770B502460024DB
:1010F00000230025002040F66A16B14200D100BF4F
:10110000C1F3421501F01F03012606FA03F3012D76
:1011100002D19689334006E0022D02D1168A33406F
:1011200001E0968A33400C12012606FA04F4168870
:10113000344013B10CB1012000E0002070BDF0B5C7
:101140000346002400260025002040F66A17B94215
:1011500000D100BF1846C1F3421401F01F06012759
:1011600007FA06F5012C01D10C3004E0022C01D164
:10117000103000E014301AB107682F43076002E016
:101180000768AF430760F0BD2DE9FF4705460E46EF
:101190000024A14600BFA046B08900B100BF2C8A40
:1011A00024F44054F08804432C82AC8941F20C6052
:1011B0008443B08831890843718908430443AC8172
:1011C000AC8A24F44074B0890443AC826846FFF7CB
:1011D000EFFD2048854202D01F48854202D1DDF84C
:1011E0000C9001E0DDF80890A88900F4004040B1BF
:1011F00009EBC90000EB091031684900B0FBF1F7B9
:1012000007E009EBC90000EB091031688900B0FB69
:10121000F1F76420B7FBF0F004012009642101FB21
:101220001078A88900F4004040B1322000EBC800DB
:10123000B0FBF1F000F00700044308E0322000EBBF
:1012400008106421B0FBF1F000F00F0004432C8182
:10125000BDE8FF8700100140001401400146888866
:10126000C0F308007047C1F308028280704770B570
:1012700088B003461C2A01DD08B070BD0025D41CCF
:101280000DF8045088248DF800408DF801308DF859
:101290000220002005E00D5CC41C0DF80450441C25
:1012A000E0B29042F7DB00200BE0D41C1DF80440B4
:1012B0001DF800502C44E5B2D41C0DF80450441C19
:1012C000E0B2D41CA042F0DB00BFD5E700B587B088
:1012D00001210846FFF74CFD01211020FFF758FDC2
:1012E000072209212348FFF7B4F907220A212148E0
:1012F000FFF7AFF902208DF8040003208DF80500F8
:1013000000208DF8060001208DF807004FF4C06022
:10131000009069461748FFF754F94FF4E130039005
:101320000020ADF81000ADF81200ADF81400ADF8D3
:1013300018000C20ADF8160003A90F48FFF724FF92
:1013400025208DF8080000208DF809008DF80A008E
:1013500001208DF80B0002A8FFF7C2FC012240F229
:1013600025510548FFF7EBFE01210348FFF7A4FED6
:1013700007B000BD000002400010014000BFFEE7C2
:1013800070B504460D46A1B20548FFF76CFF00BFDB
:1013900080210348FFF79CFE0028F9D0204670BD4D
:1013A000001001408AB04FF4A060FFF7D5FCFFF7B2
:1013B0008DFFFFF787FB33E0002C2DD1FFF740FBBB
:1013C00007AA08A909A8FFF7EAFA04AA05A906A826
:1013D000FFF70DFBBDF91000BDF91410CDE90010A9
:1013E000BDF91830BDF91C20BDF92010BDF924004D
:1013F000FFF79EFABDF91000BDF91410BDF91820D1
:10140000CDE900210290BDF91C30BDF92020BDF9C5
:10141000241004A0FEF730FF4FF4FA70FFF79AF89B
:10142000CAE70000616163783A25642C61616379E1
:101430003A25642C6161637A3A25642C6779726F6E
:10144000783A25642C6779726F793A25642C67792C
:10145000726F7A3A25640D0A0000000021F0004204
:10146000A2F16052B2F5801F01F0004328BFD2F113
:101470007F6C0BD95FEA001C43EAC20242EB50705A
:1014800018BF704728BF20F001007047B2F5801FD9
:10149000BCBF184670474FEA410C1CF5001F02D232
:1014A000084600F068BB70B500F021FA0000008922
:1014B000FFF7F6BF4FF00040A0F580007047000036
:1014C00010B591EA030F48BF83F0004300F16C822E
:1014D000841A71EB030C05D2121943EB0C03001BA9
:1014E00061EB0C01DFF824E14FEA1154A4EB135C2B
:1014F0001EEA430F18BF9EEA445F73D023EA0E032F
:10150000DCF1200E21EA045143F4801332D322FA95
:101510000CFE10EB0E0023FA0CFE41EB0E01CCF199
:10152000200E03FA0EFE10EB0E0051F10001B1F592
:10153000801FCCF1200E32D201EB045112FA0EF2D0
:10154000BDE8104058BF7047401C38BF5FEA4202F8
:1015500018BF7047002814BF20F0010041F10001BE
:101560004FEA410313F5001F38BF7047A1F1C04196
:1015700000F00BBA012A43EB0302ACF1200CDCF1C2
:101580001F0E32BF4FF0000E23FA0CF310EB0300D6
:1015900041EB0451B4EB115FD0D0A1EB045101F544
:1015A000801149085FEA300001EB04510ED350F17D
:1015B000000038BF12FA0EFE08D1BDE81040C9E79E
:1015C000401C38BF5FEA4202CAD1C3E7BDE8104001
:1015D0004FEA410313F5001F38BF7047A1F1C04126
:1015E00000F0D3B99EEA445F08D011EA5E0FBDE86F
:1015F000104004BF01F0004100207047BDE81040DA
:1016000070B500F074F900BF64FBBE3E0000E0FF5F
:101610002DE9C04130B4DFF8A0C23CEA111418BF74
:101620003CEA131400F0EC8081EA03051CEA111473
:1016300044EAD57418BF1CEA131500F0C780A4EB68
:1016400005044FF0004545EAC12145EAC32341EABC
:10165000505143EA525304F17F74994204F5003427
:101660004FEAC0204FEAC22208BF904200F09C809F
:101670004FEA13650FF24016765D4FEA134506FBFD
:1016800005F7C7F1807706FB07F74FEAD737A7FBC7
:1016900003687642C8F58038A7FB06CE38BFA8F1AC
:1016A000010807FB08E64FF0000EA6FB028CE6FBE4
:1016B00003CEDCF1000CCEF1004E38BFAEF1010ECE
:1016C000A6FB0C584FF000074FF00005E6FB0E8715
:1016D000A1FB08C6A0FB07CE16EB0E0645F10005E0
:1016E000E1FB076515F1E04E7EBFA4F580345FEAAB
:1016F00046066D4116F1800745F100054FEA1727B0
:101700004FEA066647EA0567A6F1DE46B6F1805F56
:101710004FEA15251FD9384624F0010C05EBC4719A
:10172000BCF1FE6F01EB0C1102D8F0BCBDE80081EA
:1017300024425CBF01F5801E9EEAC47F02D4F0BC47
:10174000BDE80081244238D4F0BCA1F1C041BDE81D
:10175000004100F01AB94FEAD22242EA43524FEA5E
:10176000D323A7FB02864FEAD02040EA415007FB73
:1017700003661EEA0E0F4FEAD12105FB026658BF31
:10178000A6EB0056B6EB00564FEA520E4EEAC37E69
:1017900018EB0E0E56EB530EBDD518EB02085E414A
:1017A0007F1C55F10005B6E74FF480154FF0000798
:1017B0004FF000064FF00008ADE7F0BC4FF000001E
:1017C00001F1C04101F00041BDE8008111EA0C1FA8
:1017D0000CEA131500D00CE013EA0C1F00F0258072
:1017E0004FF00000F0BC81EA030101F00041BDE8C8
:1017F0000081F0BCBDE8004181EA030100F0C5B8FA
:10180000F0BCBDE8004170B500F071F8097EFC3E07
:1018100000F007B881EA03014FF0000001F0004139
:10182000704781EA030100F0B0B8F0BCBDE80041A8
:101830004FF0000021497047FFFDFBF9F7F5F4F286
:10184000F0EEEDEBE9E8E6E4E3E1E0DEDDDBDAD85B
:10185000D7D5D4D3D1D0CFCDCCCBCAC8C7C6C5C4B9
:10186000C2C1C0BFBEBDBCBBBAB9B8B7B6B5B4B3D0
:10187000B2B1B0AFAEADACABAAA9A8A8A7A6A5A4BB
:10188000A3A3A2A1A09F9F9E9D9C9C9B9A9999987F
:101890009797969595949393929191908F8F8E8E22
:1018A0008D8C8C8B8B8A89898888878786858584AF
:1018B00084838382828181800000FF070000F87F9B
:1018C00010F0004248BF4042B0FA80F310FA03F132
:1018D0000AD0C3F11D0303F580634FEA415002EBC8
:1018E000035202EBD12170474FF0000070470EF118
:1018F000020E2EF0030E5EF8046B364205D4012A68
:1019000043EB030515F5001F12D8012841EB010C2C
:101910001CF5001F0CD80ED14FEAD17C15F5001F25
:101920000CEB4C0C0CF1020C08BF4CEBD37C04E02C
:101930004FF0080C01E04FEAD37C0CEB4C0526FA83
:1019400005F606F00706B6F1040C06D20EEB860C7F
:10195000BDE870404CF0010C6047DFE80CF0090B6B
:1019600002024FF000414FF00000A1F5002170BDD0
:1019700019461046012851EB010418BFD4F5001494
:1019800084BF002001F0004170BD0808A0F50011DF
:101990004FEA31017047000010B591EA030F48BFCC
:1019A00083F000433FF594AD841A71EB030C07D22A
:1019B00012198CF0004C43EB0C03001B61EB0C0183
:1019C000DFF8A4E14FEA1154A4EB135C1EEA430FC5
:1019D00018BF9EEA445F00F0B08023EA6E035242D3
:1019E00021EA0451C3EB6E0338BF5B1EDCF1200E0D
:1019F00025D322FA0CFE10EB0E0043FA0CFE41EB4D
:101A00000E01CCF1200E03FA0EFE10EB0E0051F188
:101A10000001CCF1200E29D412FA0EF201EB045190
:101A2000BDE8104058BF7047401C1CBFB2F1004FCA
:101A3000704700280CBF491C20F00100704712EBD2
:101A4000020E43EB030218BF4FF0010E4EEA4202B2
:101A5000ACF1200CDCF11E0E54D943FA0CFE10EB55
:101A60000E0051F1FF31CCF11E0ED5D50EF1010E55
:101A700012FA0EFE404141EB010101EB445C5FEACA
:101A80005C5C10D910EBDE7001EB045138BFBEF185
:101A9000004FBDE8104018BF704700280CBF491C1C
:101AA00020F00100704730D24FEAD42C11F500111C
:101AB00024F400641BD0B1FA81F20B3AA41AA41EDC
:101AC000D2F12003914030FA03F31943904001EB27
:101AD000CC71002C01EB0451BDE81040A8BF704749
:101AE00001F1C0414FF0000001F000417047B0FA31
:101AF00080F310FA03F100D110BDE41A173C480539
:101B0000C90AE4E701EB045110BD491001EB04518F
:101B1000BDE810404FEA300002E04FF0000170478E
:101B20004A0008BF0042F8D0B2F5001F28BF704736
:101B300001F000414FF0000070479EEA445F07D07B
:101B400011EA5E0FBDE8104004BF0021002070477D
:101B5000BDE8104070B5FFF7CAFE00BF40DFF63E9B
:101B600083F00041104670470000E0FF4FF04070E6
:101B7000E1EE100A7047FF2141EAD050C0057047DE
:101B800030313233343536373839414243444546B3
:101B900040305800303132333435363738396162AD
:101BA0006364656640307800C81B000800000020B0
:101BB0001C000000C4010008E41B00081C000020F9
:101BC00064060000E00100080000000001020304B8
:101BD00001020304060708090000000000000000DD
:041BE0000000000001
:040000050800018965
:00000001FF
