:020000040800F2
:100000006007002045020008AF0D0008A70D00089A
:10001000AB0D00082B0C0008E51B000800000000D9
:10002000000000000000000000000000ED160008C5
:100030002F0C000800000000490E0008DD17000822
:100040005F0200085F0200085F020008BD1500089B
:100050005F0200085F0200085F0200085F020008FC
:100060005F0200085F0200085F0200085F020008EC
:100070005F0200085F0200085F0200085F020008DC
:100080005F0200085F0200085F0200085F020008CC
:100090005F0200085F0200085F0200085F020008BC
:1000A0005F0200085F0200085F0200085F020008AC
:1000B0005F0200085F0200085F0200085F0200089C
:1000C0005F0200085F0200085F0200085F0200088C
:1000D0005F02000849180008711800085F02000854
:1000E0005F0200085F0200085F0200085F0200086C
:1000F0005F0200085F0200085F0200085F0200085C
:100100005F0200085F0200085F0200085F0200084B
:100110005F0200085F0200085F0200085F0200083B
:100120005F0200085F0200085F0200085F0200082B
:100130005F0200085F0200085F0200085F0200081B
:100140005F0200085F0200085F0200085F0200080B
:100150005F0200085F0200085F0200085F020008FB
:100160005F0200085F0200085F0200085F020008EB
:100170005F0200085F0200085F0200085F020008DB
:100180005F0200085F02000800F002F800F04AF881
:100190000AA090E8000C82448344AAF10107DA45E2
:1001A00001D100F03FF8AFF2090EBAE80F0013F0EA
:1001B000010F18BFFB1A43F001031847441B00004E
:1001C000641B0000103A24BF78C878C1FAD85207DF
:1001D00024BF30C830C144BF04680C6070470000C1
:1001E0000023002400250026103A28BF78C1FBD840
:1001F000520728BF30C148BF0B607047642900F028
:100200004D80002070471FB501F06CFD00F0C2FC6E
:1002100004000020002101F04FFD401C60601FBD64
:1002200010B510BD00F07AFC1146FFF7ECFF01F0AD
:10023000F5FC00F0A1FC03B4FFF7F2FF03BC00F0F3
:10024000EDFC00000948804709480047FEE7FEE74B
:10025000FEE7FEE7FEE7FEE7FEE7FEE7FEE7FEE776
:1002600004480549054A064B70470000E11700089D
:100270008901000860010020600700206003002061
:10028000600300200FB4044910B503AA029800F0DF
:100290000FFA10BC5DF814FB140000202DE9F041AA
:1002A0000646002410687529314616A510D0AFF314
:1002B0000080002802DA404213A507E031688A076F
:1002C00001D512A502E0490704D511A5012401E0DA
:1002D000AFF3008000210A2206F1240709E0B0FBF9
:1002E000F2FCB0FBF2F302FB1C00303078541846ED
:1002F000491C0028F3D123462A463046BDE8F04188
:1003000000F07DB9000000002D0000002B0000006F
:10031000200000002DE9F05F894604464FF0000AF6
:10032000DFF824B1FB44C0F820A02046E1688847EC
:1003300000287DD0252806D0D4E901219047206AE5
:10034000401C2062F1E700255F462046E1688847AF
:100350002028064607DB312E05D2B81910F8200CEC
:1003600008B10543F1E7A80701D525F00405C4F855
:100370001CA00027C4F818A02A2E09D0304601F08E
:1003800033FC38B304EB8708303EC8F8186019E036
:1003900059F8041B204604EB87029161E168884705
:1003A000012F064618D1E069002820DA25F0200543
:1003B0001DE0D8F8180000EB800006EB4000303854
:1003C000C8F818002046E1688847064601F00CFC92
:1003D0000028EED1012F0AD02E2E08D12046E16848
:1003E00088477F1C0646022F45F02005C4DBA06924
:1003F000002803DA404245F00105A061E80701D07A
:1004000025F01005A6B1A6F14100192802D8203622
:1004100045F400654A463146204625604D46FFF7C3
:10042000EDFE60B1012807D0ED1D25F0070000E0CA
:1004300007E000F1080978E705F1040975E730469F
:100440007AE7206ABDE8F09FC61900000FB400B536
:100450008DB010A9099000910B904FF0FF300A90D9
:1004600000200C90064878440690064878446A4676
:1004700007900F9909A800F041F90DB05DF814FB41
:10048000B3020000CB0200002DE9FF5F1D464FF0D4
:10049000FF3B91464FF000085F46D5E90146A96948
:1004A00001987F1C8847296A824688470028F6D130
:1004B000BAF1FF3F0CD0002E24F4C06419DD6006B1
:1004C00014D5BAF12B0F09D0BAF12D0F0ED103E0DC
:1004D000584604B0BDE8F09F44F48064A9690198CF
:1004E0007F1C8847761E8246002E02DDBAF1300F4F
:1004F00003D0B9F1000F26D032E0A969761E019829
:100500007F1C44F400748847002E824605DDBAF152
:10051000780F06D0BAF1580F03D0B9F1000F10D000
:100520001EE0B9F1000F02D0B9F1100F18D1A9697E
:10053000761E01987F1C24F40074884782461020A0
:1005400002E0082000E00A20814609E0A96908FBD2
:100550000908761E01987F1C44F40074884782467F
:10056000002E05DD4946504600F0B4F80028EDDACB
:10057000E96901988847A00502D46FF00100A8E757
:10058000E00725D1600613D5600502D5C8F100004B
:1005900000E0404629680A1D2A600968220501D545
:1005A000087015E0220701D5088011E008600FE00F
:1005B0002868011D29600068210502D580F80080A7
:1005C00006E0210702D5A0F8008001E0C0F8008015
:1005D00038467EE730B505460B462A4613F8014BF0
:1005E00012F8010B08B1A042F8D01CB1002802D0CB
:1005F0006D1CF1E7284630BD7047704770472DE904
:10060000F0470D4699469246044600F124080168D9
:10061000880604D5E06921F01001216000E0012086
:10062000A84201DD471B00E00027A1697A1902EB0F
:100630000900081AA0612078C00602D42046AFF352
:100640000080002608E0D4E901211AF8060090474E
:10065000206A401C761C20624E45F4DB2078C006E0
:100660000AD52046AFF3008006E0D4E9012130200E
:100670009047206A401C2062381EA7F10107F4DC75
:1006800007E0D4E9012118F805009047206A401CD2
:100690002062281EA5F10105F3DC2046AFF300809F
:1006A0002078000602D50220BDE8F0870120FBE794
:1006B000074B70B50D467B4400F05FF804462846B2
:1006C00000F028FA10B14FF0FF3070BD204670BD29
:1006D0003F1500003A2800D2303820F02002412A8D
:1006E00001D3A2F13700884201D34FF0FF307047A9
:1006F000026811441378016018467047D1600549BB
:100700007944516104497944116200211161114613
:1007100000F046B8EDFFFFFF53000000426842B111
:10072000016811F8013B23B1521EC0E900121846BE
:1007300070470121C160881E704742685AB1C36882
:10074000016843B983688B4205D0491E521CC0E939
:100750000012002070474FF0FF30704710B504467C
:1007600000F002FA0068005D00F0010010BD00001A
:1007700001694A1C02610878704700B58FB0CDE965
:1007800001310021059105497944CDE90310114655
:100790006846FFF7BFFD0FB000BD0000E5FFFFFF9B
:1007A0002DE9F34F4FF0000A0C4656468DB001205C
:1007B0000C9001F10C000B9062690B98012190479D
:1007C000051E2DD0252D2CD0216A8847C0B1626925
:1007D0000B9801219047216A88470028F7D1626968
:1007E000411E0B98904700E0761CA1690D98884740
:1007F000216A88470028F7D1E1690D988847DBE72F
:10080000A1690D988847A842074601D1761CD3E715
:10081000E1690D9888477F1C02D1BAF1000F6FD0B3
:100820006BE162690B9800273D46394690472A28BC
:1008300004D162690B98012190470125DFF8D0822D
:1008400062690B9801219047A0F130010A290AD270
:100850004745E5DC07EB870100EB4107303FDFD47C
:1008600045F01005ECE7E90601D46FF000476C286D
:100870000AD04C2814D0682815D06A280DD07428C6
:100880001CD07A281AD01DE062690B98012190478C
:100890006C2802D045F0040514E045F002050DE097
:1008A00045F020050AE062690B980121904768280D
:1008B00002D045F0080505E045F4006562690B9833
:1008C00001219047C4E9015765283DD019DC58281B
:1008D0007AD00CDC452837D004DC252826D04128E6
:1008E0009ED131E046282FD0472899D12CE05B28B3
:1008F00077D0612828D063287CD0642823D15AE09F
:10090000F6E06F2848D008DC66281DD067281BD089
:10091000692821D06E2816D127E0702845D0732889
:1009200068D0752847D078280DD14DE0A1690D9881
:100930008847252805463FF469AFE1690D98884747
:100940006D1C3FF46AAFD8E00D9923466A466FF0FC
:100950000100AFF30080C5E045F0400023464FF0B2
:1009600000026060A80736D43EE0E8077FF447AF96
:100970002068011D21600068290501D506701BE76C
:10098000290701D5068017E7A90703D5F117C0E9A4
:10099000006111E706600FE745F0400023464FF085
:1009A00008026060A80716D41EE040F60E0125EA92
:1009B0000100606016E045F0400023464FF00A0257
:1009C0006060A80707D40FE045F040006060A8070A
:1009D00008D5234610220D996FF00100AFF3008077
:1009E00080E007E0102223460D996FF00100FFF729
:1009F0004BFD77E04FF0000963284F46C8464B4651
:100A0000CB4602D05B2806D038E0E80601D40120AE
:100A1000A060012732E06269D4F80CB00B98012184
:100A200090475E2807D14FF0010949466269D4F822
:100A30000CB00B989047216939B900210A4603ABE5
:100A400043F82120491C0829FADBD8B3216949B3AE
:100A500008F1010862690B98012190475D28F4D1E3
:100A6000B9F1000F09D0002003A951F82020D2438A
:100A700041F82020401C0828F7DB03AB2069002840
:100A800020794FEA40701ED05B462246CDF80080A8
:100A9000CDE901970D9900286FF0010020DAAFF33E
:100AA00000801FE0C11703AA00EBD1614B1121F0B8
:100AB0001F0102EB8302411A13680120884003439F
:100AC0001360C7E719E00D99224600286FF0010076
:100AD000009702DAAFF3008004E0AFF3008001E09A
:100AE000AFF3008000280ADA401C06D10C9820B130
:100AF0004FF0FF300FB0BDE8F08F5046FAE7E9073E
:100B000001D10AF1010A064400200C9054E60000CD
:100B1000CCCCCC0C007B00F080007047754600F018
:100B200035F8AE4605006946534620F00700854675
:100B300018B020B5FFF794FBBDE820404FF0000649
:100B40004FF000074FF000084FF0000B21F00701B5
:100B5000AC46ACE8C009ACE8C009ACE8C009ACE8F8
:100B6000C0098D467047000010B500F013F8001D55
:100B700010BD00BF4511000010B50446AFF3008062
:100B80002046BDE81040FFF756BB00000048704704
:100B9000FC000020004870471C0100204FF0013C81
:100BA00050F8042B51F8043B9A4221D1A2EB0C03DC
:100BB000934313EACC1317D150F8042B51F8043B9C
:100BC0009A4215D1A2EB0C03934313EACC130BD139
:100BD00050F8042B51F8043B9A4209D1A2EB0C03C4
:100BE000934313EACC13DBD04FF00000704700BFF3
:100BF000D01A01BAB1FA81F101F0180122FA01F01C
:100C0000CB40C1F12001DBB2C0B2C01A2CFA01F313
:100C1000D11A914311EAC311E6D170470149182056
:100C2000ABBEFEE726000200704700BFFEE770473C
:100C30000149086070470000143C0140002123492D
:100C40008279002A3AD00A46126803689A430B4612
:100C50001A600A1D126803689A430B1D1A60027914
:100C600011440A6803681A430A60184A0832126875
:100C700003689A43154B08331A601A1D12680368FB
:100C80009A43124B0C331A604279102A0ED11A1F64
:100C9000126803681A430D4B08331A601A1D126854
:100CA00003681A43094B0C331A600DE00749427977
:100CB00011440A6803681A430A6005E00279114486
:100CC0000A6803689A430A6070470000003C0140CC
:100CD000F0B50A4600210023002400BF3DE00125B5
:100CE00005FA01F3156805EA03049C4234D105684E
:100CF0004F000326BE40B543056015794E00B54050
:100D00000668354305601579012D02D01579022D4D
:100D100016D185684F000326BE40B54385605579DE
:100D20004E00B540866835438560456801268E4093
:100D3000B5434560456896798E40B6B23543456007
:100D4000C5684F000326BE40B543C560D5794E0047
:100D5000B540C6683543C560491C1029BFD3F0BDF6
:100D6000F0B5002300244D07ED0E02FA05F3CE1076
:100D700000F1200555F826504E07F70E0F26BE400D
:100D8000B543CF1000F1200646F82750CE1000F1F1
:100D9000200555F8265045EA0304CE1000F1200541
:100DA00045F82640F0BD00BFFEE700BFFEE77047F4
:100DB00070B5002100230F22C4781CB3174C24689F
:100DC00004F4E064C4F5E064C4F30721C1F1040451
:100DD000E3B20A4144789C40E1B284781440214354
:100DE0000C07210E0E4C05786155047804F01F05A0
:100DF0000124AC4005786D11AD0005F1E025C5F882
:100E0000004109E0047804F01F050124AC40054DC1
:100E10000678761145F8264070BD00000CED00E024
:100E200000E400E080E100E002490143024A116071
:100E3000704700000000FA050CED00E0014908626F
:100E40007047000000000E427047000029B1064ABA
:100E500012680243044B1A6004E0034A126882439A
:100E6000014B1A60704700003038024029B1064A31
:100E700012680243044B1A6004E0034A126882437A
:100E8000014B1A60704700004038024029B1064A01
:100E900012680243044B1A6004E0034A126882435A
:100EA000014B1A607047000044380240F0B5002141
:100EB00000220024022500260223324F3F6807F05B
:100EC0000C0121B1042905D0082937D105E02E4FA6
:100ED000076036E02D4F076033E02A4F3F1F3F6821
:100EE000C7F38056274F3F1F3F6807F03F036EB19F
:100EF000264FB7FBF3F7DFF88CC0ACF1040CDCF83D
:100F000000C0CCF3881C07FB0CF40CE01E4FB7FBB1
:100F1000F3F7DFF870C0ACF1040CDCF800C0CCF3E0
:100F2000881C07FB0CF4174F3F1F3F68C7F30147AE
:100F30007F1C7D00B4FBF5F7076002E0124F0760ED
:100F400000BF00BF0F4F3F6807F0F0010909104FC5
:100F50007A5C0768D74047600A4F3F6807F4E05162
:100F6000890A0B4F7A5C4768D7408760054F3F6816
:100F700007F46041490B064F7A5C4768D740C76069
:100F8000F0BD0000083802400024F40000127A008E
:100F90000000002010B501460022002300204A1165
:100FA000012A02D10A4C236808E0022A03D1084C26
:100FB0007034236802E0064C7434236801F01F0289
:100FC000012494401C400CB1012000E0002010BD21
:100FD000003802400021094A11701170012802D026
:100FE000042808D103E00121044A117004E005211E
:100FF000024A117000E000BF00BF70477038024025
:1010000001490860704700003C0E4742002100F48F
:101010004072B2F5407F08D1094A116821F4F811F5
:10102000084A02401143064A1160054A68321268B4
:10103000C0F30B031A43024B68331A607047000079
:1010400008380240FFFCFF0F014600BF080900EB13
:101050008000420001F00F001044C0B2704701460A
:10106000002204E0501CC2B2A1F10A00C1B20A2958
:10107000F8DA100741EA1060704700000EB5012150
:101080000807FFF7F3FE0120FFF7D8FE03208DF8D5
:10109000080001208DF8090000208DF80A000120C9
:1010A0008DF80B0002A8FFF783FE4FF48000FFF7D6
:1010B000BFFD4FF48000009000208DF80400082050
:1010C0008DF8050001208DF806006846FFF7B6FD93
:1010D0000120FFF77FFF00BF4120FFF75BFF0028E3
:1010E000FAD04FF48070FFF791FF0120FFF788FFDF
:1010F00000F078FA7F2019494860FF2088600020BE
:101100000860084600F012F924201549C87007202D
:1011100048701420887007200870012000F038F90A
:1011200000201049C8701220087055204870002017
:101130008870012000F090F9042000F083FA00206C
:1011400000F0F2F90121880300F0BEF84FF480406E
:1011500000F00AF8012000F08DFA0EBD8C0000208E
:10116000200000201C000020002101098AB242F06A
:101170008002044B1B6803F0800363EA0202014B08
:101180001A6070470C28004008B500220092002029
:101190000021104A126802F04002CAB9421E0D4BEB
:1011A0001A6000BF0B4A126802F04001009A521CFC
:1011B0000092009AB2F5803F01D00029F2D0054A92
:1011C000126802F040020AB1012002E0002000E0B3
:1011D000012008BD0C2800400348006820F0800072
:1011E00001490860704700000C28004070B50646B1
:1011F0000C4600250E4800680E4900EA0105280C3F
:10120000E070C5F30420607005F03F00A070C5F3E6
:10121000423020705EB9E078FFF716FFE07060782A
:10122000FFF712FF6070A078FFF70EFFA07070BD8F
:10123000042800403FFFFF0030B501460020002297
:1012400000230C4C246804F004020A4C383C246847
:101250000C4002EAD13544EA0503064C343C2468CC
:1012600004EA11121BB194B20CB1012000E000207D
:1012700030BD00004028004070B506460C460025F1
:101280000F4800680F4900EA0105C5F305402070CA
:10129000C5F30620607005F07F00A07005F48000A3
:1012A000000CE0705EB92078FFF7CEFE2070607809
:1012B000FFF7CAFE6070A078FFF7C6FEA07070BD91
:1012C000002800407F7F7F00CA22174B1A605322FC
:1012D0001A6091B1144A1C3A126820F004031A43B0
:1012E000114B1C3B1A60104A1C32126800F00403B8
:1012F0001A430D4B1C331A6011E00B4A1C3A12685A
:1013000020F004039A43084B1C3B1A60064A1C3227
:10131000126800F004039A43034B1C331A60FF2247
:10132000014B1A60704700002428004030B5044685
:101330000025CA201549086053200860FFF724FFE4
:1013400000B91DE011481C38006820F040000F492A
:101350001C39086008460068216808430B491C399D
:1013600008600A491439A068086008460068A18826
:1013700040EA0140054914390860FFF72DFF0125B7
:10138000FF2002490860284630BD000024280040A4
:101390002DE9F04105460C46002600274DB960783E
:1013A00000F01000102804D1607820F010000A30FE
:1013B000607005B908E06078FFF746FE0646A07841
:1013C000FFF742FE064600BF55B1E07800046178A1
:1013D00040EA0120A1780843217840EA413611E033
:1013E000E078FFF73CFE4FEA00486078FFF737FEF1
:1013F00048EA0028A078FFF732FE48EA0008207883
:1014000048EA4036CA201249086053200860FFF7B6
:10141000BBFE08B9002714E00E4830400C492039C3
:101420000860FFF7D9FE0A481C38006800F0200069
:1014300030B900F0D7F808B9002702E0012700E032
:101440000127FF20024908603846BDE8F08100000E
:10145000242800403FFFFF002DE9F04105460C46DF
:10146000002600274DB92E48006800F0400000B16A
:1014700002E00020E07000BF0DE02948006800F0A5
:10148000400020B12078FFF7DFFD064602E0002093
:10149000E07000BF00BF55B120780004617840EAD9
:1014A0000120A1780843E17840EA014611E0207864
:1014B000FFF7D5FD4FEA00486078FFF7D0FD48EA16
:1014C0000028A078FFF7CBFD48EA0008E07848EA5A
:1014D0000046CA2012491C31086053200860FFF7FB
:1014E00053FE08B9002713E00E4830400C49083974
:1014F0000860FFF771FE0A48006800F0200030B96C
:1015000000F070F808B9002702E0012700E0012789
:10151000FF2003491C3108603846BDE8F081000017
:10152000082800407F7F7F00CA21054A11605321AF
:101530001160034910390860FF21116070470000F5
:101540002428004010B50F480068012818D10E4922
:101550000020FFF791FE0D490020FFF747FE0A48E3
:101560008378427801780AA0FEF78CFE07488378DA
:101570004278C1780BA0FEF785FE00200149086083
:1015800010BD0000240000201C00002020000020CE
:1015900025302E32643A25302E32643A25302E32F0
:1015A000640D0A00323025302E32642D25302E3263
:1015B000642D25302E32640D0A00000010B54FF462
:1015C0008040FFF739FE48B10120054908608003DB
:1015D000FFF7CAFD4FF48000FFF72AFB10BD0000A3
:1015E0002400002008B50022009200200021CA2219
:1015F000134B1A6053221A60114A183A126822F0EB
:10160000A0020F4B183B1A6000BF0D4A183A12682F
:1016100002F02001009A521C0092009AB2F5003F9D
:1016200001D00029F1D0064A183A126802F02002CF
:101630000AB1012000E00020FF22014B1A6008BD22
:1016400024280040CA210A4A116053211160084928
:101650001C39096821F00701054A1C3A116011463E
:10166000096801431160FF21014A116070470000C1
:101670002428004018B501460023009300220020D2
:10168000CA23194C23605323236049B1164B1C3BDA
:101690001B6843F48063144C1C3C236001201FE052
:1016A000114B1C3B1B6823F480630F4C1C3C2360D4
:1016B00000BF0D4B183B1B6803F00402009B5B1C32
:1016C0000093009BB3F5803F01D0002AF1D0064B78
:1016D000183B1B6803F004030BB9002000E0012055
:1016E000FF23014C236018BD2428004070470000F0
:1016F0000CB50020019000903448006840F4803020
:101700003249086000BF3148006800F400300090A2
:101710000198401C0190009818B90198B0F5A04FAD
:10172000F1D12A48006800F4003010B10120009087
:1017300001E0002000900098012846D12348403065
:10174000006840F08050214940310860204800681E
:1017500040F440401E4908601C48083000681B499E
:10176000083108600846006840F4004008600846F8
:10177000006840F4A05008601648091F0860081F60
:10178000006840F08070091F086000BF0F480068C3
:1017900000F000700028F9D040F205700E49086092
:1017A0000A480830006820F0030008490831086042
:1017B0000846006840F00200086000BF0348083097
:1017C000006800F00C000828F8D10CBD0038024079
:1017D0000070004008544007003C02407047000081
:1017E00010B51548006840F47000134908601348AC
:1017F000006840F001001149086000200F490831DD
:1018000008600E4800680E4908400C4908600D4801
:10181000091D0860081F006820F48020091F086067
:10182000002006490C310860FFF762FF4FF00060AE
:1018300001498039086010BD88ED00E000380240A1
:10184000FFFFF6FE1030002410B540F22551074886
:1018500000F055F8012807D1044800F009F9C4B296
:101860002146024800F009F910BD000000100140B7
:1018700010B540F22551124800F041F801281ED160
:101880000F4800F0F5F8C4B26E2C01D00D2C0AD12F
:1018900000200C490C4A127888540B4908700948FA
:1018A00000F0E6F90BE008480078632807D2064804
:1018B00001780078401C044A10700248445410BD5E
:1018C00000440040280000201000002021B182893F
:1018D00042F40052828104E082894DF6FF731A407F
:1018E0008281704702460020B1F5007F00D100BF21
:1018F00013880B400BB1012000E00020704770B549
:101900000246002400230025002040F66A16B1425A
:1019100000D100BFC1F3421501F01F03012606FAF2
:1019200003F3012D02D19689334006E0022D02D146
:10193000168A334001E0968A33400C12012606FADB
:1019400004F41688344013B10CB1012000E00020EB
:1019500070BDF0B50346002400260025002040F6A7
:101960006A17B94200D100BF1846C1F3421401F012
:101970001F06012707FA06F5012C01D10C3004E0FF
:10198000022C01D1103000E014301AB107682F4347
:10199000076002E00768AF430760F0BD2DE9FF472D
:1019A00005460E460024A14600BFA046B08900B1FE
:1019B00000BF2C8A24F44054F08804432C82AC8964
:1019C00041F20C608443B08831890843718908432F
:1019D0000443AC81AC8A24F44074B0890443AC82E3
:1019E0006846FFF763FA2048854202D01F488542C7
:1019F00002D1DDF80C9001E0DDF80890A88900F430
:101A0000004040B109EBC90000EB09103168490002
:101A1000B0FBF1F707E009EBC90000EB09103168F2
:101A20008900B0FBF1F76420B7FBF0F00401200956
:101A3000642101FB1078A88900F4004040B13220F5
:101A400000EBC800B0FBF1F000F00700044308E031
:101A5000322000EB08106421B0FBF1F000F00F0021
:101A600004432C81BDE8FF870010014000140140B1
:101A700001468888C0F308007047C1F308028280DD
:101A80007047000000B587B001210846FFF7DEF976
:101A900001211020FFF7FAF9072209212348FFF757
:101AA0005FF907220A212148FFF75AF902208DF831
:101AB000040003208DF8050000208DF806000120A9
:101AC0008DF807004FF4C060009069461748FFF793
:101AD000FFF84FF4165003900020ADF81000ADF859
:101AE0001200ADF81400ADF818000C20ADF8160087
:101AF00003A90F48FFF752FF25208DF808000020AA
:101B00008DF809008DF80A0001208DF80B0002A85D
:101B1000FFF74EF9012240F225510548FFF719FF62
:101B200001210348FFF7D2FE07B000BD00000240CC
:101B30000010014000B587B001210846FFF786F983
:101B400001214804FFF792F9072202212348FFF7F9
:101B500007F9072203212148FFF702F902208DF837
:101B6000040003208DF8050000208DF806000120F8
:101B70008DF807000C20009069461848FFF7A8F878
:101B80004FF4E13003900020ADF81000ADF81200E2
:101B9000ADF81400ADF818000C20ADF8160003A93C
:101BA0000F48FFF7FBFE26208DF8080000208DF877
:101BB00009008DF80A0001208DF80B0002A8FFF73C
:101BC000F7F8012240F225510548FFF7C2FE012136
:101BD0000348FFF77BFE07B000BD00000000024095
:101BE0000044004000BFFEE730380A2801D201203F
:101BF000704700207047000070B504460D46A1B242
:101C00000548FFF73AFF00BF80210348FFF76AFE4F
:101C10000028F9D0204670BD001001404FF4A060AC
:101C2000FFF702F9FFF72EFFFFF784FFFFF726FA11
:101C300000BFFEE77FB505460C4601A802AB03AA2C
:101C400008A100902846FEF701FC9DF80C002070CA
:101C50009DF8080060709DF80400A070012004B099
:101C600070BD000025326425326425326400000016
:101C700070B504460CA12046FEF7ACFCA04211D181
:101C800009A12046FEF7A6FC05460A4905F1080011
:101C9000FFF7D0FF28B107490020FFF7DDFBFFF772
:101CA00051FC00BF70BD000053455454494D453AA6
:101CB000000000001C00002010B500290AD00878A0
:101CC000002807D005487844FEF768FF002801D0B7
:101CD000002010BD0248784410BD00005A000000EA
:101CE000520000004FF04070E1EE100A704704000F
:101CF00000080000000000000002000100001000C9
:101D0000301E00080000002028000000C401000868
:101D1000581E00082800002038070000E0010008D5
:101D20001001000043000000F8FFFFFF00404040AA
:101D3000404040404040414141414140404040409E
:101D4000404040404040404040404040400502024A
:101D50000202020202020202020202020220202009
:101D60002020202020202002020202020202909065
:101D70009090909010101010101010101010101063
:101D800010101010101010100202020202028888B7
:101D900088888888080808080808080808080808C3
:101DA00008080808080808080202020240000000AB
:101DB0000000000000000000000000000000000023
:101DC0000000000000000000000000000000000013
:101DD0000000000000000000000000000000000003
:101DE00000000000000000000000000000000000F3
:101DF00000000000000000000000000000000000E3
:101E000000000000000000000000000000000000D2
:101E100000000000000000000000000000000000C2
:101E200000000000000000000000000000000000B2
:101E30000000000001020304010203040607080970
:101E40000000000000000000000000000000000092
:081E500000000000000000008A
:040000050800018965
:00000001FF
