:020000040800F2
:100000008006002031020008C507000873070008B9
:10001000C1070008EF0400084D11000800000000AF
:100020000000000000000000000000008D09000832
:10003000F304000800000000410800087D0A0008E1
:100040004B0200084B0200084B0200084B0200085C
:100050004B0200084B0200087D0500084B02000817
:10006000B5050008ED050008210600084B02000850
:100070004B0200084B0200084B0200084B0200082C
:100080004B0200084B0200084B0200084B0200081C
:100090004B0200084B0200084B0200084B0200080C
:1000A0004B0200084B0200084B0200084B020008FC
:1000B0004B0200084B0200084B0200084B020008EC
:1000C0004B0200084B0200084B0200084B020008DC
:1000D0004B020008BD0E00084B0200084B0200084E
:1000E0004B0200084B0200084B0200084B020008BC
:1000F0000D0C00084B0200084B0200084B020008E0
:100100004B0200084B0200084B0200084B0200089B
:100110004B0200084B0200084B0200084B0200088B
:100120004B0200084B0200084B0200084B0200087B
:100130004B0200084B0200084B0200084B0200086B
:100140004B0200084B0200084B0200084B0200085B
:100150004B0200084B0200084B0200084B0200084B
:100160004B0200084B0200084B0200084B0200083B
:100170004B0200084B0200084B0200084B0200082B
:100180004B0200084B02000800F002F800F041F8B2
:100190000AA090E8000C82448344AAF10107DA45E2
:1001A00001D100F036F8AFF2090EBAE80F0013F0F3
:1001B000010F18BFFB1A43F0010318472810000075
:1001C00048100000103A24BF78C878C1FAD8520706
:1001D00024BF30C830C144BF04680C6070470000C1
:1001E0000023002400250026103A28BF78C1FBD840
:1001F000520728BF30C148BF0B607047642900F028
:100200007780002070471FB500F0E7FF1FBD10B5D5
:1002100010BD00F033F91146FFF7F5FF00F0D2FFF3
:1002200000F051F903B4FFF7F2FF03BC00F058F9F6
:100230000948804709480047FEE7FEE7FEE7FEE77A
:10024000FEE7FEE7FEE7FEE7FEE7FEE704480549B6
:10025000054A064B70470000810A00088901000822
:100260008000002080060020800200208002002004
:100270000FB4044910B503AA029800F0D1F810BCDD
:100280005DF814FB100000202DE9F0410E460446F5
:10029000002020622046E168884730B3252805D039
:1002A000D4E901219047206A401CF2E7E16820462A
:1002B00000278847050018D0A5F14100192802D869
:1002C00020354FF400673246294620462760FFF765
:1002D00095FF40B1012804D0F61D26F00706083628
:1002E000D8E7361DD6E72846DAE7206ABDE8F08170
:1002F0002DE9F0410646002410687529314616A5FF
:1003000010D0AFF30080002802DA404213A507E0C6
:1003100031688A0701D512A502E0490704D511A565
:10032000012401E0AFF3008000210A2206F1240736
:1003300009E0B0FBF2FCB0FBF2F302FB1C00303032
:1003400078541846491C0028F3D123462A463046E3
:10035000BDE8F04100F00BB8000000002D000000E7
:100360002B000000200000007047704770472DE907
:10037000F0470D4699469246044600F1240801686C
:10038000880604D5E06921F01001216000E0012019
:10039000A84201DD471B00E00027A1697A1902EBA2
:1003A0000900081AA0612078C00602D42046AFF3E5
:1003B0000080002608E0D4E901211AF806009047E1
:1003C000206A401C761C20624E45F4DB2078C00673
:1003D0000AD52046AFF3008006E0D4E901213020A1
:1003E0009047206A401C2062381EA7F10107F4DC08
:1003F00007E0D4E9012118F805009047206A401C65
:100400002062281EA5F10105F3DC2046AFF3008031
:100410002078000602D50220BDE8F0870120FBE726
:10042000074B70B50D467B4400F011F80446284692
:1004300000F020F810B14FF0FF3070BD204670BDC5
:10044000770D000001694A1C02610878704700B509
:100450008FB0CDE901310021059105497944CDE9FD
:10046000031011466846FFF70FFF0FB000BD0000F4
:10047000E5FFFFFF007B00F080007047754600F04D
:100480002BF8AE4605006946534620F00700854626
:1004900018B020B5FFF7DAFEBDE820404FF00006A7
:1004A0004FF000074FF000084FF0000B21F007015C
:1004B000AC46ACE8C009ACE8C009ACE8C009ACE89F
:1004C000C0098D46704710B50446AFF30080204642
:1004D000BDE81040FFF7A6BE004870471C00002092
:1004E00001491820ABBEFEE726000200704700BF9E
:1004F000FEE7704712E000214FF0E022116145F263
:1005000007215161002191610121116100BF4FF06C
:10051000E021096901F480310029F8D0011EA0F121
:100520000100E8D14FF0E0221161704710B5034699
:10053000002404E04FF47A70FFF7DCFF641C9C4257
:10054000F8DB10BD11E000214FF0E0221161142111
:100550005161002191610121116100BF4FF0E02143
:10056000096901F480310029F8D0011EA0F10100D1
:10057000E9D14FF0E02211617047000010B5012071
:1005800000F06EF801280FD10A20FFF7B3FF012118
:10059000064800F0DCF820B94FF40071044800F080
:1005A000DFF8012000F056F810BD00000000024006
:1005B0000014024010B5042000F052F801280FD1B9
:1005C0000A20FFF797FF0421064800F0C0F820B981
:1005D0004FF48061044800F0C3F8042000F03AF8BA
:1005E00010BD0000001002400014024010B50820A9
:1005F00000F036F801280FD10A20FFF77BFF082111
:10060000064800F0A4F820B94FF40051034800F068
:10061000A7F8082000F01EF810BD000000100240EE
:1006200010B5102000F01CF801280FD10A20FFF7A8
:1006300061FF1021064800F08AF820B94FF480418C
:10064000034800F08DF8102000F004F810BD000001
:10065000001002400149086070470000143C01404E
:1006600001460020034A12680A400AB1012000E056
:1006700000207047143C0140F0B50A4600210023D9
:10068000002400BF3DE0012505FA01F3156805EAE5
:1006900003049C4234D105684F000326BE40B54395
:1006A000056015794E00B54006683543056015793B
:1006B000012D02D01579022D16D185684F00032631
:1006C000BE40B543856055794E00B54086683543D8
:1006D0008560456801268E40B5434560456896793A
:1006E0008E40B6B235434560C5684F000326BE4014
:1006F000B543C560D5794E00B540C6683543C56081
:10070000491C1029BFD3F0BDF0B5002300244D07CC
:10071000ED0E02FA05F3CE1000F1200555F8265033
:100720004E07F70E0F26BE40B543CF1000F120064E
:1007300046F82750CE1000F1200555F8265045EA1E
:100740000304CE1000F1200545F82640F0BD024616
:10075000002013690B400BB1012000E0002070471E
:1007600042694A40426170470AB1018300E0418317
:10077000704700BFFEE7000010B50120084908607F
:100780000F20FFF7DFFE00200649C1F89802064857
:10079000016806A0FFF76CFD0120FFF7C7FE10BD42
:1007A0009802414200004142180000205468652030
:1007B00076616C75652069733A2025640D0A000026
:1007C00000BFFEE77047000070B5002100230F2234
:1007D000C4781CB3174C246804F4E064C4F5E064E6
:1007E000C4F30721C1F10404E3B20A4144789C40F8
:1007F000E1B28478144021430C07210E0E4C057899
:100800006155047804F01F050124AC4005786D1192
:10081000AD0005F1E025C5F8004109E0047804F0D9
:100820001F050124AC40054D0678761145F8264099
:1008300070BD00000CED00E000E400E080E100E0AD
:100840007047000029B1064A12680243044B1A603F
:1008500004E0034A12688243014B1A6070470000AB
:100860003038024029B1064A12680243044B1A602C
:1008700004E0034A12688243014B1A60704700008B
:100880004038024029B1064A12680243044B1A60FC
:1008900004E0034A12688243014B1A60704700006B
:1008A00044380240F0B50021002200240225002631
:1008B0000223324F3F6807F00C0121B1042905D013
:1008C000082937D105E02E4F076036E02D4F07602D
:1008D00033E02A4F3F1F3F68C7F38056274F3F1F23
:1008E0003F6807F03F036EB1264FB7FBF3F7DFF821
:1008F0008CC0ACF1040CDCF800C0CCF3881C07FB06
:100900000CF40CE01E4FB7FBF3F7DFF870C0ACF14E
:10091000040CDCF800C0CCF3881C07FB0CF4174F68
:100920003F1F3F68C7F301477F1C7D00B4FBF5F70D
:10093000076002E0124F076000BF00BF0F4F3F6823
:1009400007F0F0010909104F7A5C0768D74047604B
:100950000A4F3F6807F4E051890A0B4F7A5C4768F9
:10096000D7408760054F3F6807F46041490B064F49
:100970007A5C4768D740C760F0BD00000838024085
:100980000024F40000127A000000002070470000EC
:100990000CB50020019000903448006840F480308D
:1009A0003249086000BF3148006800F40030009010
:1009B0000198401C0190009818B90198B0F5A04F1B
:1009C000F1D12A48006800F4003010B101200090F5
:1009D00001E0002000900098012846D123484030D3
:1009E000006840F08050214940310860204800688C
:1009F00040F440401E4908601C48083000681B490C
:100A0000083108600846006840F400400860084665
:100A1000006840F4A05008601648091F0860081FCD
:100A2000006840F08070091F086000BF0F48006830
:100A300000F000700028F9D040F205700E490860FF
:100A40000A480830006820F00300084908310860AF
:100A50000846006840F00200086000BF0348083004
:100A6000006800F00C000828F8D10CBD00380240E6
:100A70000070004008544007003C024070470000EE
:100A800010B51548006840F4700013490860134819
:100A9000006840F001001149086000200F4908314A
:100AA00008600E4800680E4908400C4908600D486F
:100AB000091D0860081F006820F48020091F0860D5
:100AC000002006490C310860FFF762FF4FF000601C
:100AD00001498039086010BD88ED00E0003802400F
:100AE000FFFFF6FE10300024F0B50C46154600213D
:100AF0000022068C4FF6FE773E400684018B028C66
:100B00004FF60C7631407E1C06EA03162E43314325
:100B10004FF6F576324044F00106324301830284F9
:100B2000F0BDF0B50C461546002100220026078CCA
:100B30004FF6EF7C07EA0C070784018B028C4FF617
:100B4000FF7707EA041640F6FF4739404FF6FF7774
:100B500007EA033739434FF6FF7707EA052739439A
:100B60004FF65F773A4046F010073A43018302841C
:100B7000F0BDF0B50C461546002100220026078C7A
:100B80004FF6FF6C07EA0C070784818B028C4FF647
:100B9000FF7707EA04264FF60C7739404FF6FF77C8
:100BA00007EA03172F4339434FF2FF573A4046F401
:100BB00080773A4381830284F0BDF0B50C46154638
:100BC000002100220026078C4EF6FF7C07EA0C0766
:100BD0000784818B028C4FF6FF7707EA043640F6D4
:100BE000FF4739404FF6FF7707EA052739434FF6AD
:100BF000FF7707EA0337394345F6FF773A4046F473
:100C000080573A4381830284F0BD000010B5022171
:100C10000C4800F02DF8012808D10A4800F025F80A
:100C2000094908600221074800F010F80121054831
:100C300000F01EF8012803D10121024800F006F857
:100C400010BD0000001C004018000020CA430282B2
:100C5000704721B1028842F00102028004E002885C
:100C60004FF6FE731A40028070470146486B70478A
:100C700030B50246002000230024158A05EA01034E
:100C8000958905EA010413B10CB1012000E00020B0
:100C900030BD70B505460C46208850B92389A2881E
:100CA00061882846FFF720FFE188284600F033F8E6
:100CB00025E0208804280AD12389A2886188284653
:100CC000FFF72FFFE188284600F02EF817E0208874
:100CD00008280AD12389A28861882846FFF749FF9E
:100CE000E188284600F02DF809E02389A288618870
:100CF0002846FFF762FFE188284600F02BF870BD18
:100D00001AB183890B43838102E083898B438381FA
:100D1000704741627047028B4FF6F3731A400283AB
:100D2000028B0A4302837047028B4FF2FF331A4053
:100D30000283028B4FF6FF7303EA01231A430283F7
:100D40007047828B4FF6F3731A408283828B0A437B
:100D500082837047828B4FF2FF331A408283828BEB
:100D60004FF6FF7303EA01231A43828370470000A2
:100D700000220288184B98420ED0184B98420BD094
:100D8000B0F1804F08D0164B984205D0154B9842D1
:100D900002D0154B984204D14FF68F731A404B88FE
:100DA0001A43124B984207D0114B984204D04FF689
:100DB000FF431A400B891A4302804B68C3620B88B9
:100DC0000385054B984202D0044B984201D18B7A9F
:100DD0000386012383827047000001400004014024
:100DE0000004004000080040000C004000100040DB
:100DF0000014004000B589B001218020FFF732FDCA
:100E000001210846FFF71EFD092206212948FFF7A8
:100E10007BFC4020049002208DF8140003208DF804
:100E2000150000208DF8160002208DF8170004A987
:100E30002048FFF721FC4FF6FF70ADF81800532053
:100E400007900020ADF81A00ADF820008DF82200C0
:100E500006A91948FFF78CFF2C208DF80000002010
:100E60008DF8010001208DF802008DF8030068461E
:100E7000FFF7AAFC0020ADF80400ADF80600012041
:100E8000ADF808000020ADF80A00ADF80C0001A98B
:100E90000948FFF7FEFE012203210748FFF730FF54
:100EA00000210548FFF735FF01210348FFF7D1FE78
:100EB00009B000BD00000240001C004010B540F227
:100EC0002551074800F027F8012807D1044800F011
:100ED000DBF8C4B22146024800F0DBF810BD000088
:100EE0000010014021B1828942F40052828104E065
:100EF00082894DF6FF731A408281704702460020B6
:100F0000B1F5007F00D100BF13880B400BB1012069
:100F100000E00020704770B5024600240023002541
:100F2000002040F66A16B14200D100BFC1F342155D
:100F300001F01F03012606FA03F3012D02D1968961
:100F4000334006E0022D02D1168A334001E0968A32
:100F500033400C12012606FA04F41688344013B10B
:100F60000CB1012000E0002070BDF0B50346002464
:100F700000260025002040F66A17B94200D100BFC4
:100F80001846C1F3421401F01F06012707FA06F5BF
:100F9000012C01D10C3004E0022C01D1103000E012
:100FA00014301AB107682F43076002E00768AF43A7
:100FB0000760F0BD2DE9FF4705460E460024A14617
:100FC00000BFA046B08900B100BF2C8A24F4405471
:100FD000F08804432C82AC8941F20C608443B088D1
:100FE00031890843718908430443AC81AC8A24F4F5
:100FF0004074B0890443AC826846FFF753FC204834
:10100000854202D01F48854202D1DDF80C9001E0F4
:10101000DDF80890A88900F4004040B109EBC90050
:1010200000EB091031684900B0FBF1F707E009EB6C
:10103000C90000EB091031688900B0FBF1F76420AA
:10104000B7FBF0F004012009642101FB1078A889A6
:1010500000F4004040B1322000EBC800B0FBF1F0DA
:1010600000F00700044308E0322000EB0810642180
:10107000B0FBF1F000F00F0004432C81BDE8FF87C6
:10108000001001400014014001468888C0F30800A8
:101090007047C1F3080282807047000000B587B036
:1010A00001210846FFF7CEFB01211020FFF7EAFBE4
:1010B000072209212348FFF727FB07220A2121489D
:1010C000FFF722FB02208DF8040003208DF80500B5
:1010D00000208DF8060001208DF807004FF4C06055
:1010E000009069461748FFF7C7FA4FF4165003906F
:1010F0000020ADF81000ADF81200ADF81400ADF806
:1011000018000C20ADF8160003A90F48FFF752FF96
:1011100025208DF8080000208DF809008DF80A00C0
:1011200001208DF80B0002A8FFF74EFB012240F2D0
:1011300025510548FFF719FF01210348FFF7D2FEAB
:1011400007B000BD000002400010014000BFFEE7F4
:101150001CB501210420FFF775FB40200090012001
:101160008DF8040003208DF8050000208DF806009E
:101170008DF8070069460948FFF77EFA4FF4807042
:10118000009000208DF8040069460448FFF774FAC7
:10119000002240210148FFF7E7FA1CBD0008024089
:1011A00070B504460D46A1B20548FFF772FF00BFB7
:1011B00080210348FFF7A2FE0028F9D0204670BD29
:1011C0000010014000BFFFF769FFFFF7C1FFFFF705
:1011D00011FE01E0FFF7D0FAFCE74FF04070E1EEBE
:1011E000100A704704120008000000201C000000D4
:1011F000C4010008201200081C0000206406000042
:10120000E0010008000000000102030401020304E1
:1012100006070809000000000000000000000000B0
:040000050800018965
:00000001FF
